{
  "_format": "hh-sol-artifact-1",
  "contractName": "DataProvision",
  "sourceName": "contracts/DataProvision.sol",
  "abi": [
    {
      "inputs": [],
      "stateMutability": "payable",
      "type": "constructor"
    },
    {
      "inputs": [
        {
          "internalType": "address",
          "name": "owner",
          "type": "address"
        }
      ],
      "name": "OwnableInvalidOwner",
      "type": "error"
    },
    {
      "inputs": [
        {
          "internalType": "address",
          "name": "account",
          "type": "address"
        }
      ],
      "name": "OwnableUnauthorizedAccount",
      "type": "error"
    },
    {
      "anonymous": false,
      "inputs": [
        {
          "indexed": false,
          "internalType": "uint256",
          "name": "_tokenID",
          "type": "uint256"
        }
      ],
      "name": "OwnershipNFTMinted",
      "type": "event"
    },
    {
      "anonymous": false,
      "inputs": [
        {
          "indexed": true,
          "internalType": "address",
          "name": "previousOwner",
          "type": "address"
        },
        {
          "indexed": true,
          "internalType": "address",
          "name": "newOwner",
          "type": "address"
        }
      ],
      "name": "OwnershipTransferred",
      "type": "event"
    },
    {
      "anonymous": false,
      "inputs": [
        {
          "indexed": false,
          "internalType": "string",
          "name": "assetId",
          "type": "string"
        },
        {
          "indexed": false,
          "internalType": "uint256",
          "name": "newPrice",
          "type": "uint256"
        }
      ],
      "name": "PriceUpdated",
      "type": "event"
    },
    {
      "inputs": [
        {
          "internalType": "string",
          "name": "id",
          "type": "string"
        }
      ],
      "name": "_getDatasetById",
      "outputs": [
        {
          "components": [
            {
              "internalType": "string",
              "name": "id",
              "type": "string"
            },
            {
              "internalType": "uint256",
              "name": "price",
              "type": "uint256"
            },
            {
              "internalType": "address",
              "name": "author",
              "type": "address"
            },
            {
              "internalType": "enum datatype",
              "name": "datatype",
              "type": "uint8"
            },
            {
              "internalType": "string",
              "name": "liscence",
              "type": "string"
            },
            {
              "components": [
                {
                  "internalType": "uint256",
                  "name": "quantity",
                  "type": "uint256"
                },
                {
                  "internalType": "string",
                  "name": "storageUrl",
                  "type": "string"
                },
                {
                  "internalType": "uint256",
                  "name": "size",
                  "type": "uint256"
                },
                {
                  "internalType": "uint256",
                  "name": "date",
                  "type": "uint256"
                }
              ],
              "internalType": "struct DatasetMetadata",
              "name": "metadata",
              "type": "tuple"
            }
          ],
          "internalType": "struct Dataset",
          "name": "",
          "type": "tuple"
        }
      ],
      "stateMutability": "view",
      "type": "function"
    },
    {
      "inputs": [
        {
          "internalType": "string",
          "name": "id",
          "type": "string"
        }
      ],
      "name": "_getModelById",
      "outputs": [
        {
          "components": [
            {
              "internalType": "string",
              "name": "id",
              "type": "string"
            },
            {
              "internalType": "uint256",
              "name": "price",
              "type": "uint256"
            },
            {
              "internalType": "address",
              "name": "author",
              "type": "address"
            },
            {
              "internalType": "string",
              "name": "liscence",
              "type": "string"
            },
            {
              "internalType": "string",
              "name": "storageUrl",
              "type": "string"
            }
          ],
          "internalType": "struct Model",
          "name": "",
          "type": "tuple"
        }
      ],
      "stateMutability": "view",
      "type": "function"
    },
    {
      "inputs": [
        {
          "internalType": "address",
          "name": "addr",
          "type": "address"
        },
        {
          "internalType": "string",
          "name": "assetId",
          "type": "string"
        }
      ],
      "name": "_isOwner",
      "outputs": [
        {
          "internalType": "bool",
          "name": "",
          "type": "bool"
        }
      ],
      "stateMutability": "view",
      "type": "function"
    },
    {
      "inputs": [
        {
          "internalType": "string",
          "name": "id",
          "type": "string"
        },
        {
          "internalType": "uint256",
          "name": "price",
          "type": "uint256"
        },
        {
          "internalType": "string",
          "name": "dtype",
          "type": "string"
        },
        {
          "internalType": "string",
          "name": "liscence",
          "type": "string"
        },
        {
          "internalType": "uint256",
          "name": "quantity",
          "type": "uint256"
        },
        {
          "internalType": "string",
          "name": "storageUrl",
          "type": "string"
        },
        {
          "internalType": "uint256",
          "name": "size",
          "type": "uint256"
        },
        {
          "internalType": "uint256",
          "name": "date",
          "type": "uint256"
        }
      ],
      "name": "addDataset",
      "outputs": [],
      "stateMutability": "nonpayable",
      "type": "function"
    },
    {
      "inputs": [
        {
          "internalType": "string",
          "name": "id",
          "type": "string"
        },
        {
          "internalType": "uint256",
          "name": "price",
          "type": "uint256"
        },
        {
          "internalType": "address",
          "name": "author",
          "type": "address"
        },
        {
          "internalType": "string",
          "name": "liscence",
          "type": "string"
        },
        {
          "internalType": "string",
          "name": "storageUrl",
          "type": "string"
        }
      ],
      "name": "addModel",
      "outputs": [],
      "stateMutability": "nonpayable",
      "type": "function"
    },
    {
      "inputs": [
        {
          "internalType": "address",
          "name": "provider",
          "type": "address"
        }
      ],
      "name": "addProvider",
      "outputs": [],
      "stateMutability": "nonpayable",
      "type": "function"
    },
    {
      "inputs": [],
      "name": "cr8Cert",
      "outputs": [
        {
          "internalType": "contract CR8Cert",
          "name": "",
          "type": "address"
        }
      ],
      "stateMutability": "view",
      "type": "function"
    },
    {
      "inputs": [
        {
          "internalType": "address",
          "name": "",
          "type": "address"
        }
      ],
      "name": "datasets",
      "outputs": [
        {
          "internalType": "string",
          "name": "id",
          "type": "string"
        },
        {
          "internalType": "uint256",
          "name": "price",
          "type": "uint256"
        },
        {
          "internalType": "address",
          "name": "author",
          "type": "address"
        },
        {
          "internalType": "enum datatype",
          "name": "datatype",
          "type": "uint8"
        },
        {
          "internalType": "string",
          "name": "liscence",
          "type": "string"
        },
        {
          "components": [
            {
              "internalType": "uint256",
              "name": "quantity",
              "type": "uint256"
            },
            {
              "internalType": "string",
              "name": "storageUrl",
              "type": "string"
            },
            {
              "internalType": "uint256",
              "name": "size",
              "type": "uint256"
            },
            {
              "internalType": "uint256",
              "name": "date",
              "type": "uint256"
            }
          ],
          "internalType": "struct DatasetMetadata",
          "name": "metadata",
          "type": "tuple"
        }
      ],
      "stateMutability": "view",
      "type": "function"
    },
    {
      "inputs": [
        {
          "internalType": "string",
          "name": "id",
          "type": "string"
        }
      ],
      "name": "getDatasetById",
      "outputs": [
        {
          "components": [
            {
              "internalType": "string",
              "name": "id",
              "type": "string"
            },
            {
              "internalType": "uint256",
              "name": "price",
              "type": "uint256"
            },
            {
              "internalType": "address",
              "name": "author",
              "type": "address"
            },
            {
              "internalType": "enum datatype",
              "name": "datatype",
              "type": "uint8"
            },
            {
              "internalType": "string",
              "name": "liscence",
              "type": "string"
            },
            {
              "components": [
                {
                  "internalType": "uint256",
                  "name": "quantity",
                  "type": "uint256"
                },
                {
                  "internalType": "string",
                  "name": "storageUrl",
                  "type": "string"
                },
                {
                  "internalType": "uint256",
                  "name": "size",
                  "type": "uint256"
                },
                {
                  "internalType": "uint256",
                  "name": "date",
                  "type": "uint256"
                }
              ],
              "internalType": "struct DatasetMetadata",
              "name": "metadata",
              "type": "tuple"
            }
          ],
          "internalType": "struct Dataset",
          "name": "",
          "type": "tuple"
        }
      ],
      "stateMutability": "view",
      "type": "function"
    },
    {
      "inputs": [
        {
          "internalType": "address",
          "name": "author",
          "type": "address"
        }
      ],
      "name": "getDatasetsPerAuthor",
      "outputs": [
        {
          "components": [
            {
              "internalType": "string",
              "name": "id",
              "type": "string"
            },
            {
              "internalType": "uint256",
              "name": "price",
              "type": "uint256"
            },
            {
              "internalType": "address",
              "name": "author",
              "type": "address"
            },
            {
              "internalType": "enum datatype",
              "name": "datatype",
              "type": "uint8"
            },
            {
              "internalType": "string",
              "name": "liscence",
              "type": "string"
            },
            {
              "components": [
                {
                  "internalType": "uint256",
                  "name": "quantity",
                  "type": "uint256"
                },
                {
                  "internalType": "string",
                  "name": "storageUrl",
                  "type": "string"
                },
                {
                  "internalType": "uint256",
                  "name": "size",
                  "type": "uint256"
                },
                {
                  "internalType": "uint256",
                  "name": "date",
                  "type": "uint256"
                }
              ],
              "internalType": "struct DatasetMetadata",
              "name": "metadata",
              "type": "tuple"
            }
          ],
          "internalType": "struct Dataset",
          "name": "",
          "type": "tuple"
        }
      ],
      "stateMutability": "view",
      "type": "function"
    },
    {
      "inputs": [
        {
          "internalType": "string",
          "name": "id",
          "type": "string"
        }
      ],
      "name": "getModelById",
      "outputs": [
        {
          "components": [
            {
              "internalType": "string",
              "name": "id",
              "type": "string"
            },
            {
              "internalType": "uint256",
              "name": "price",
              "type": "uint256"
            },
            {
              "internalType": "address",
              "name": "author",
              "type": "address"
            },
            {
              "internalType": "string",
              "name": "liscence",
              "type": "string"
            },
            {
              "internalType": "string",
              "name": "storageUrl",
              "type": "string"
            }
          ],
          "internalType": "struct Model",
          "name": "",
          "type": "tuple"
        }
      ],
      "stateMutability": "view",
      "type": "function"
    },
    {
      "inputs": [
        {
          "internalType": "address",
          "name": "author",
          "type": "address"
        }
      ],
      "name": "getModelsPerAuthor",
      "outputs": [
        {
          "components": [
            {
              "internalType": "string",
              "name": "id",
              "type": "string"
            },
            {
              "internalType": "uint256",
              "name": "price",
              "type": "uint256"
            },
            {
              "internalType": "address",
              "name": "author",
              "type": "address"
            },
            {
              "internalType": "string",
              "name": "liscence",
              "type": "string"
            },
            {
              "internalType": "string",
              "name": "storageUrl",
              "type": "string"
            }
          ],
          "internalType": "struct Model",
          "name": "",
          "type": "tuple"
        }
      ],
      "stateMutability": "view",
      "type": "function"
    },
    {
      "inputs": [
        {
          "internalType": "address",
          "name": "author",
          "type": "address"
        }
      ],
      "name": "getTokensPerAuthor",
      "outputs": [
        {
          "internalType": "uint256[]",
          "name": "",
          "type": "uint256[]"
        }
      ],
      "stateMutability": "view",
      "type": "function"
    },
    {
      "inputs": [
        {
          "internalType": "address",
          "name": "addr",
          "type": "address"
        }
      ],
      "name": "isProvidor",
      "outputs": [
        {
          "internalType": "bool",
          "name": "",
          "type": "bool"
        }
      ],
      "stateMutability": "view",
      "type": "function"
    },
    {
      "inputs": [
        {
          "internalType": "address",
          "name": "",
          "type": "address"
        }
      ],
      "name": "models",
      "outputs": [
        {
          "internalType": "string",
          "name": "id",
          "type": "string"
        },
        {
          "internalType": "uint256",
          "name": "price",
          "type": "uint256"
        },
        {
          "internalType": "address",
          "name": "author",
          "type": "address"
        },
        {
          "internalType": "string",
          "name": "liscence",
          "type": "string"
        },
        {
          "internalType": "string",
          "name": "storageUrl",
          "type": "string"
        }
      ],
      "stateMutability": "view",
      "type": "function"
    },
    {
      "inputs": [],
      "name": "owner",
      "outputs": [
        {
          "internalType": "address",
          "name": "",
          "type": "address"
        }
      ],
      "stateMutability": "view",
      "type": "function"
    },
    {
      "inputs": [],
      "name": "renounceOwnership",
      "outputs": [],
      "stateMutability": "nonpayable",
      "type": "function"
    },
    {
      "inputs": [
        {
          "internalType": "address",
          "name": "newOwner",
          "type": "address"
        }
      ],
      "name": "transferOwnership",
      "outputs": [],
      "stateMutability": "nonpayable",
      "type": "function"
    }
  ],
  "bytecode": "0x608060405233600073ffffffffffffffffffffffffffffffffffffffff168173ffffffffffffffffffffffffffffffffffffffff16036200007a5760006040517f1e4fbdf700000000000000000000000000000000000000000000000000000000815260040162000071919062000215565b60405180910390fd5b6200008b81620000fe60201b60201c565b506040516200009a90620001c2565b604051809103906000f080158015620000b7573d6000803e3d6000fd5b50600660006101000a81548173ffffffffffffffffffffffffffffffffffffffff021916908373ffffffffffffffffffffffffffffffffffffffff16021790555062000232565b60008060009054906101000a900473ffffffffffffffffffffffffffffffffffffffff169050816000806101000a81548173ffffffffffffffffffffffffffffffffffffffff021916908373ffffffffffffffffffffffffffffffffffffffff1602179055508173ffffffffffffffffffffffffffffffffffffffff168173ffffffffffffffffffffffffffffffffffffffff167f8be0079c531659141344cd1fd0a4f28419497f9722a3daafe3b4186f6b6457e060405160405180910390a35050565b612c4080620034fe83390190565b600073ffffffffffffffffffffffffffffffffffffffff82169050919050565b6000620001fd82620001d0565b9050919050565b6200020f81620001f0565b82525050565b60006020820190506200022c600083018462000204565b92915050565b6132bc80620002426000396000f3fe608060405234801561001057600080fd5b50600436106101165760003560e01c806367b0b340116100a25780638da5cb5b116100715780638da5cb5b146103325780638f84b22414610350578063cc458dc714610380578063e99b5178146103b0578063f2fde38b146103ce57610116565b806367b0b34014610293578063715018a6146102c85780637654ccc2146102d2578063781a43361461030257610116565b806340bda6a8116100e957806340bda6a8146101b357806346e2577a146101e35780634eb4635f146101ff57806354917f831461022f5780635ea702201461026357610116565b8063085fb1e91461011b57806319ad26821461014b5780631dc076d1146101675780631ea6c0c014610183575b600080fd5b61013560048036038101906101309190612349565b6103ea565b60405161014291906125dc565b60405180910390f35b6101656004803603810190610160919061262a565b61083b565b005b610181600480360381019061017c919061277c565b610bd0565b005b61019d6004803603810190610198919061284b565b610ecb565b6040516101aa91906128fc565b60405180910390f35b6101cd60048036038101906101c8919061284b565b61113a565b6040516101da91906129cd565b60405180910390f35b6101fd60048036038101906101f8919061284b565b6111d1565b005b61021960048036038101906102149190612349565b6112d0565b60405161022691906125dc565b60405180910390f35b6102496004803603810190610244919061284b565b6112e8565b60405161025a959493929190612a57565b60405180910390f35b61027d6004803603810190610278919061284b565b6114d6565b60405161028a91906125dc565b60405180910390f35b6102ad60048036038101906102a8919061284b565b6117b2565b6040516102bf96959493929190612b31565b60405180910390f35b6102d06119e5565b005b6102ec60048036038101906102e79190612ba7565b6119f9565b6040516102f99190612c1e565b60405180910390f35b61031c60048036038101906103179190612349565b611aa4565b60405161032991906128fc565b60405180910390f35b61033a611abc565b6040516103479190612c39565b60405180910390f35b61036a6004803603810190610365919061284b565b611ae5565b6040516103779190612c1e565b60405180910390f35b61039a60048036038101906103959190612349565b611b3b565b6040516103a791906128fc565b60405180910390f35b6103b8611f1f565b6040516103c59190612cb3565b60405180910390f35b6103e860048036038101906103e3919061284b565b611f45565b005b6103f261211e565b60005b60058054905081116107fa57826040516020016104129190612d0a565b6040516020818303038152906040528051906020012060016000600584815481106104405761043f612d21565b5b9060005260206000200160009054906101000a900473ffffffffffffffffffffffffffffffffffffffff1673ffffffffffffffffffffffffffffffffffffffff1673ffffffffffffffffffffffffffffffffffffffff1681526020019081526020016000206000016040516020016104b89190612e48565b60405160208183030381529060405280519060200120036107e65760016000600583815481106104eb576104ea612d21565b5b9060005260206000200160009054906101000a900473ffffffffffffffffffffffffffffffffffffffff1673ffffffffffffffffffffffffffffffffffffffff1673ffffffffffffffffffffffffffffffffffffffff1681526020019081526020016000206040518060c001604052908160008201805461056b90612d7f565b80601f016020809104026020016040519081016040528092919081815260200182805461059790612d7f565b80156105e45780601f106105b9576101008083540402835291602001916105e4565b820191906000526020600020905b8154815290600101906020018083116105c757829003601f168201915b50505050508152602001600182015481526020016002820160009054906101000a900473ffffffffffffffffffffffffffffffffffffffff1673ffffffffffffffffffffffffffffffffffffffff1673ffffffffffffffffffffffffffffffffffffffff1681526020016002820160149054906101000a900460ff1660038111156106725761067161246b565b5b60038111156106845761068361246b565b5b815260200160038201805461069890612d7f565b80601f01602080910402602001604051908101604052809291908181526020018280546106c490612d7f565b80156107115780601f106106e657610100808354040283529160200191610711565b820191906000526020600020905b8154815290600101906020018083116106f457829003601f168201915b50505050508152602001600482016040518060800160405290816000820154815260200160018201805461074490612d7f565b80601f016020809104026020016040519081016040528092919081815260200182805461077090612d7f565b80156107bd5780601f10610792576101008083540402835291602001916107bd565b820191906000526020600020905b8154815290600101906020018083116107a057829003601f168201915b505050505081526020016002820154815260200160038201548152505081525050915050610836565b6001816107f39190612e8e565b90506103f5565b506040517f08c379a000000000000000000000000000000000000000000000000000000000815260040161082d90612f0e565b60405180910390fd5b919050565b600460003373ffffffffffffffffffffffffffffffffffffffff1673ffffffffffffffffffffffffffffffffffffffff16815260200190815260200160002060009054906101000a900460ff1661089157600080fd5b6000604051806080016040528086815260200185815260200184815260200183815250905060006040518060c001604052808b81526020018a81526020013373ffffffffffffffffffffffffffffffffffffffff1681526020016003808111156108fe576108fd61246b565b5b81526020018881526020018381525090506000855111610953576040517f08c379a000000000000000000000000000000000000000000000000000000000815260040161094a90612f7a565b60405180910390fd5b6000600660009054906101000a900473ffffffffffffffffffffffffffffffffffffffff1673ffffffffffffffffffffffffffffffffffffffff1663d204c45e33886040518363ffffffff1660e01b81526004016109b2929190612f9a565b6020604051808303816000875af11580156109d1573d6000803e3d6000fd5b505050506040513d601f19601f820116820180604052508101906109f59190612fdf565b90507fb8c120af1919d92a2ddb0482aeeeaac0cadaf2bdeac11ffa1e61bc8cff65081981604051610a26919061300c565b60405180910390a181600160003373ffffffffffffffffffffffffffffffffffffffff1673ffffffffffffffffffffffffffffffffffffffff1681526020019081526020016000206000820151816000019081610a8391906131b4565b506020820151816001015560408201518160020160006101000a81548173ffffffffffffffffffffffffffffffffffffffff021916908373ffffffffffffffffffffffffffffffffffffffff16021790555060608201518160020160146101000a81548160ff02191690836003811115610b0057610aff61246b565b5b02179055506080820151816003019081610b1a91906131b4565b5060a082015181600401600082015181600001556020820151816001019081610b4391906131b4565b5060408201518160020155606082015181600301555050905050600360003373ffffffffffffffffffffffffffffffffffffffff1673ffffffffffffffffffffffffffffffffffffffff1681526020019081526020016000208190806001815401808255809150506001900390600052602060002001600090919091909150555050505050505050505050565b600460003373ffffffffffffffffffffffffffffffffffffffff1673ffffffffffffffffffffffffffffffffffffffff16815260200190815260200160002060009054906101000a900460ff16610c2657600080fd5b60006040518060a001604052808781526020018681526020018573ffffffffffffffffffffffffffffffffffffffff1681526020018481526020018381525090506000825111610cab576040517f08c379a0000000000000000000000000000000000000000000000000000000008152600401610ca290612f7a565b60405180910390fd5b6000600660009054906101000a900473ffffffffffffffffffffffffffffffffffffffff1673ffffffffffffffffffffffffffffffffffffffff1663d204c45e33856040518363ffffffff1660e01b8152600401610d0a929190612f9a565b6020604051808303816000875af1158015610d29573d6000803e3d6000fd5b505050506040513d601f19601f82011682018060405250810190610d4d9190612fdf565b90507fb8c120af1919d92a2ddb0482aeeeaac0cadaf2bdeac11ffa1e61bc8cff65081981604051610d7e919061300c565b60405180910390a181600260003373ffffffffffffffffffffffffffffffffffffffff1673ffffffffffffffffffffffffffffffffffffffff1681526020019081526020016000206000820151816000019081610ddb91906131b4565b506020820151816001015560408201518160020160006101000a81548173ffffffffffffffffffffffffffffffffffffffff021916908373ffffffffffffffffffffffffffffffffffffffff1602179055506060820151816003019081610e4291906131b4565b506080820151816004019081610e5891906131b4565b50905050600360003373ffffffffffffffffffffffffffffffffffffffff1673ffffffffffffffffffffffffffffffffffffffff16815260200190815260200160002081908060018154018082558091505060019003906000526020600020016000909190919091505550505050505050565b610ed3612182565b600260008373ffffffffffffffffffffffffffffffffffffffff1673ffffffffffffffffffffffffffffffffffffffff1681526020019081526020016000206040518060a0016040529081600082018054610f2d90612d7f565b80601f0160208091040260200160405190810160405280929190818152602001828054610f5990612d7f565b8015610fa65780601f10610f7b57610100808354040283529160200191610fa6565b820191906000526020600020905b815481529060010190602001808311610f8957829003601f168201915b50505050508152602001600182015481526020016002820160009054906101000a900473ffffffffffffffffffffffffffffffffffffffff1673ffffffffffffffffffffffffffffffffffffffff1673ffffffffffffffffffffffffffffffffffffffff16815260200160038201805461101f90612d7f565b80601f016020809104026020016040519081016040528092919081815260200182805461104b90612d7f565b80156110985780601f1061106d57610100808354040283529160200191611098565b820191906000526020600020905b81548152906001019060200180831161107b57829003601f168201915b505050505081526020016004820180546110b190612d7f565b80601f01602080910402602001604051908101604052809291908181526020018280546110dd90612d7f565b801561112a5780601f106110ff5761010080835404028352916020019161112a565b820191906000526020600020905b81548152906001019060200180831161110d57829003601f168201915b5050505050815250509050919050565b6060600360008373ffffffffffffffffffffffffffffffffffffffff1673ffffffffffffffffffffffffffffffffffffffff1681526020019081526020016000208054806020026020016040519081016040528092919081815260200182805480156111c557602002820191906000526020600020905b8154815260200190600101908083116111b1575b50505050509050919050565b6111d9611fcb565b600073ffffffffffffffffffffffffffffffffffffffff168173ffffffffffffffffffffffffffffffffffffffff160361121257600080fd5b6001600460008373ffffffffffffffffffffffffffffffffffffffff1673ffffffffffffffffffffffffffffffffffffffff16815260200190815260200160002060006101000a81548160ff0219169083151502179055506005819080600181540180825580915050600190039060005260206000200160009091909190916101000a81548173ffffffffffffffffffffffffffffffffffffffff021916908373ffffffffffffffffffffffffffffffffffffffff16021790555050565b6112d861211e565b6112e1826103ea565b9050919050565b600260205280600052604060002060009150905080600001805461130b90612d7f565b80601f016020809104026020016040519081016040528092919081815260200182805461133790612d7f565b80156113845780601f1061135957610100808354040283529160200191611384565b820191906000526020600020905b81548152906001019060200180831161136757829003601f168201915b5050505050908060010154908060020160009054906101000a900473ffffffffffffffffffffffffffffffffffffffff16908060030180546113c590612d7f565b80601f01602080910402602001604051908101604052809291908181526020018280546113f190612d7f565b801561143e5780601f106114135761010080835404028352916020019161143e565b820191906000526020600020905b81548152906001019060200180831161142157829003601f168201915b50505050509080600401805461145390612d7f565b80601f016020809104026020016040519081016040528092919081815260200182805461147f90612d7f565b80156114cc5780601f106114a1576101008083540402835291602001916114cc565b820191906000526020600020905b8154815290600101906020018083116114af57829003601f168201915b5050505050905085565b6114de61211e565b600160008373ffffffffffffffffffffffffffffffffffffffff1673ffffffffffffffffffffffffffffffffffffffff1681526020019081526020016000206040518060c001604052908160008201805461153890612d7f565b80601f016020809104026020016040519081016040528092919081815260200182805461156490612d7f565b80156115b15780601f10611586576101008083540402835291602001916115b1565b820191906000526020600020905b81548152906001019060200180831161159457829003601f168201915b50505050508152602001600182015481526020016002820160009054906101000a900473ffffffffffffffffffffffffffffffffffffffff1673ffffffffffffffffffffffffffffffffffffffff1673ffffffffffffffffffffffffffffffffffffffff1681526020016002820160149054906101000a900460ff16600381111561163f5761163e61246b565b5b60038111156116515761165061246b565b5b815260200160038201805461166590612d7f565b80601f016020809104026020016040519081016040528092919081815260200182805461169190612d7f565b80156116de5780601f106116b3576101008083540402835291602001916116de565b820191906000526020600020905b8154815290600101906020018083116116c157829003601f168201915b50505050508152602001600482016040518060800160405290816000820154815260200160018201805461171190612d7f565b80601f016020809104026020016040519081016040528092919081815260200182805461173d90612d7f565b801561178a5780601f1061175f5761010080835404028352916020019161178a565b820191906000526020600020905b81548152906001019060200180831161176d57829003601f168201915b5050505050815260200160028201548152602001600382015481525050815250509050919050565b60016020528060005260406000206000915090508060000180546117d590612d7f565b80601f016020809104026020016040519081016040528092919081815260200182805461180190612d7f565b801561184e5780601f106118235761010080835404028352916020019161184e565b820191906000526020600020905b81548152906001019060200180831161183157829003601f168201915b5050505050908060010154908060020160009054906101000a900473ffffffffffffffffffffffffffffffffffffffff16908060020160149054906101000a900460ff16908060030180546118a290612d7f565b80601f01602080910402602001604051908101604052809291908181526020018280546118ce90612d7f565b801561191b5780601f106118f05761010080835404028352916020019161191b565b820191906000526020600020905b8154815290600101906020018083116118fe57829003601f168201915b505050505090806004016040518060800160405290816000820154815260200160018201805461194a90612d7f565b80601f016020809104026020016040519081016040528092919081815260200182805461197690612d7f565b80156119c35780601f10611998576101008083540402835291602001916119c3565b820191906000526020600020905b8154815290600101906020018083116119a657829003601f168201915b5050505050815260200160028201548152602001600382015481525050905086565b6119ed611fcb565b6119f76000612052565b565b600080611a05836103ea565b90508373ffffffffffffffffffffffffffffffffffffffff16816040015173ffffffffffffffffffffffffffffffffffffffff1603611a48576001915050611a9e565b6000611a5384611b3b565b90508473ffffffffffffffffffffffffffffffffffffffff16816040015173ffffffffffffffffffffffffffffffffffffffff1603611a9757600092505050611a9e565b5060009150505b92915050565b611aac612182565b611ab582611b3b565b9050919050565b60008060009054906101000a900473ffffffffffffffffffffffffffffffffffffffff16905090565b6000600460008373ffffffffffffffffffffffffffffffffffffffff1673ffffffffffffffffffffffffffffffffffffffff16815260200190815260200160002060009054906101000a900460ff169050919050565b611b43612182565b60005b6005805490508111611ede5782604051602001611b639190612d0a565b604051602081830303815290604052805190602001206002600060058481548110611b9157611b90612d21565b5b9060005260206000200160009054906101000a900473ffffffffffffffffffffffffffffffffffffffff1673ffffffffffffffffffffffffffffffffffffffff1673ffffffffffffffffffffffffffffffffffffffff168152602001908152602001600020600001604051602001611c099190612e48565b6040516020818303038152906040528051906020012003611eca576002600060058381548110611c3c57611c3b612d21565b5b9060005260206000200160009054906101000a900473ffffffffffffffffffffffffffffffffffffffff1673ffffffffffffffffffffffffffffffffffffffff1673ffffffffffffffffffffffffffffffffffffffff1681526020019081526020016000206040518060a0016040529081600082018054611cbc90612d7f565b80601f0160208091040260200160405190810160405280929190818152602001828054611ce890612d7f565b8015611d355780601f10611d0a57610100808354040283529160200191611d35565b820191906000526020600020905b815481529060010190602001808311611d1857829003601f168201915b50505050508152602001600182015481526020016002820160009054906101000a900473ffffffffffffffffffffffffffffffffffffffff1673ffffffffffffffffffffffffffffffffffffffff1673ffffffffffffffffffffffffffffffffffffffff168152602001600382018054611dae90612d7f565b80601f0160208091040260200160405190810160405280929190818152602001828054611dda90612d7f565b8015611e275780601f10611dfc57610100808354040283529160200191611e27565b820191906000526020600020905b815481529060010190602001808311611e0a57829003601f168201915b50505050508152602001600482018054611e4090612d7f565b80601f0160208091040260200160405190810160405280929190818152602001828054611e6c90612d7f565b8015611eb95780601f10611e8e57610100808354040283529160200191611eb9565b820191906000526020600020905b815481529060010190602001808311611e9c57829003601f168201915b505050505081525050915050611f1a565b600181611ed79190612e8e565b9050611b46565b506040517f08c379a0000000000000000000000000000000000000000000000000000000008152600401611f1190612f0e565b60405180910390fd5b919050565b600660009054906101000a900473ffffffffffffffffffffffffffffffffffffffff1681565b611f4d611fcb565b600073ffffffffffffffffffffffffffffffffffffffff168173ffffffffffffffffffffffffffffffffffffffff1603611fbf5760006040517f1e4fbdf7000000000000000000000000000000000000000000000000000000008152600401611fb69190612c39565b60405180910390fd5b611fc881612052565b50565b611fd3612116565b73ffffffffffffffffffffffffffffffffffffffff16611ff1611abc565b73ffffffffffffffffffffffffffffffffffffffff161461205057612014612116565b6040517f118cdaa70000000000000000000000000000000000000000000000000000000081526004016120479190612c39565b60405180910390fd5b565b60008060009054906101000a900473ffffffffffffffffffffffffffffffffffffffff169050816000806101000a81548173ffffffffffffffffffffffffffffffffffffffff021916908373ffffffffffffffffffffffffffffffffffffffff1602179055508173ffffffffffffffffffffffffffffffffffffffff168173ffffffffffffffffffffffffffffffffffffffff167f8be0079c531659141344cd1fd0a4f28419497f9722a3daafe3b4186f6b6457e060405160405180910390a35050565b600033905090565b6040518060c001604052806060815260200160008152602001600073ffffffffffffffffffffffffffffffffffffffff168152602001600060038111156121685761216761246b565b5b81526020016060815260200161217c6121c7565b81525090565b6040518060a001604052806060815260200160008152602001600073ffffffffffffffffffffffffffffffffffffffff16815260200160608152602001606081525090565b6040518060800160405280600081526020016060815260200160008152602001600081525090565b6000604051905090565b600080fd5b600080fd5b600080fd5b600080fd5b6000601f19601f8301169050919050565b7f4e487b7100000000000000000000000000000000000000000000000000000000600052604160045260246000fd5b6122568261220d565b810181811067ffffffffffffffff821117156122755761227461221e565b5b80604052505050565b60006122886121ef565b9050612294828261224d565b919050565b600067ffffffffffffffff8211156122b4576122b361221e565b5b6122bd8261220d565b9050602081019050919050565b82818337600083830152505050565b60006122ec6122e784612299565b61227e565b90508281526020810184848401111561230857612307612208565b5b6123138482856122ca565b509392505050565b600082601f8301126123305761232f612203565b5b81356123408482602086016122d9565b91505092915050565b60006020828403121561235f5761235e6121f9565b5b600082013567ffffffffffffffff81111561237d5761237c6121fe565b5b6123898482850161231b565b91505092915050565b600081519050919050565b600082825260208201905092915050565b60005b838110156123cc5780820151818401526020810190506123b1565b60008484015250505050565b60006123e382612392565b6123ed818561239d565b93506123fd8185602086016123ae565b6124068161220d565b840191505092915050565b6000819050919050565b61242481612411565b82525050565b600073ffffffffffffffffffffffffffffffffffffffff82169050919050565b60006124558261242a565b9050919050565b6124658161244a565b82525050565b7f4e487b7100000000000000000000000000000000000000000000000000000000600052602160045260246000fd5b600481106124ab576124aa61246b565b5b50565b60008190506124bc8261249a565b919050565b60006124cc826124ae565b9050919050565b6124dc816124c1565b82525050565b60006080830160008301516124fa600086018261241b565b506020830151848203602086015261251282826123d8565b9150506040830151612527604086018261241b565b50606083015161253a606086018261241b565b508091505092915050565b600060c083016000830151848203600086015261256282826123d8565b9150506020830151612577602086018261241b565b50604083015161258a604086018261245c565b50606083015161259d60608601826124d3565b50608083015184820360808601526125b582826123d8565b91505060a083015184820360a08601526125cf82826124e2565b9150508091505092915050565b600060208201905081810360008301526125f68184612545565b905092915050565b61260781612411565b811461261257600080fd5b50565b600081359050612624816125fe565b92915050565b600080600080600080600080610100898b03121561264b5761264a6121f9565b5b600089013567ffffffffffffffff811115612669576126686121fe565b5b6126758b828c0161231b565b98505060206126868b828c01612615565b975050604089013567ffffffffffffffff8111156126a7576126a66121fe565b5b6126b38b828c0161231b565b965050606089013567ffffffffffffffff8111156126d4576126d36121fe565b5b6126e08b828c0161231b565b95505060806126f18b828c01612615565b94505060a089013567ffffffffffffffff811115612712576127116121fe565b5b61271e8b828c0161231b565b93505060c061272f8b828c01612615565b92505060e06127408b828c01612615565b9150509295985092959890939650565b6127598161244a565b811461276457600080fd5b50565b60008135905061277681612750565b92915050565b600080600080600060a08688031215612798576127976121f9565b5b600086013567ffffffffffffffff8111156127b6576127b56121fe565b5b6127c28882890161231b565b95505060206127d388828901612615565b94505060406127e488828901612767565b935050606086013567ffffffffffffffff811115612805576128046121fe565b5b6128118882890161231b565b925050608086013567ffffffffffffffff811115612832576128316121fe565b5b61283e8882890161231b565b9150509295509295909350565b600060208284031215612861576128606121f9565b5b600061286f84828501612767565b91505092915050565b600060a083016000830151848203600086015261289582826123d8565b91505060208301516128aa602086018261241b565b5060408301516128bd604086018261245c565b50606083015184820360608601526128d582826123d8565b915050608083015184820360808601526128ef82826123d8565b9150508091505092915050565b600060208201905081810360008301526129168184612878565b905092915050565b600081519050919050565b600082825260208201905092915050565b6000819050602082019050919050565b6000612956838361241b565b60208301905092915050565b6000602082019050919050565b600061297a8261291e565b6129848185612929565b935061298f8361293a565b8060005b838110156129c05781516129a7888261294a565b97506129b283612962565b925050600181019050612993565b5085935050505092915050565b600060208201905081810360008301526129e7818461296f565b905092915050565b600082825260208201905092915050565b6000612a0b82612392565b612a1581856129ef565b9350612a258185602086016123ae565b612a2e8161220d565b840191505092915050565b612a4281612411565b82525050565b612a518161244a565b82525050565b600060a0820190508181036000830152612a718188612a00565b9050612a806020830187612a39565b612a8d6040830186612a48565b8181036060830152612a9f8185612a00565b90508181036080830152612ab38184612a00565b90509695505050505050565b612ac8816124c1565b82525050565b6000608083016000830151612ae6600086018261241b565b5060208301518482036020860152612afe82826123d8565b9150506040830151612b13604086018261241b565b506060830151612b26606086018261241b565b508091505092915050565b600060c0820190508181036000830152612b4b8189612a00565b9050612b5a6020830188612a39565b612b676040830187612a48565b612b746060830186612abf565b8181036080830152612b868185612a00565b905081810360a0830152612b9a8184612ace565b9050979650505050505050565b60008060408385031215612bbe57612bbd6121f9565b5b6000612bcc85828601612767565b925050602083013567ffffffffffffffff811115612bed57612bec6121fe565b5b612bf98582860161231b565b9150509250929050565b60008115159050919050565b612c1881612c03565b82525050565b6000602082019050612c336000830184612c0f565b92915050565b6000602082019050612c4e6000830184612a48565b92915050565b6000819050919050565b6000612c79612c74612c6f8461242a565b612c54565b61242a565b9050919050565b6000612c8b82612c5e565b9050919050565b6000612c9d82612c80565b9050919050565b612cad81612c92565b82525050565b6000602082019050612cc86000830184612ca4565b92915050565b600081905092915050565b6000612ce482612392565b612cee8185612cce565b9350612cfe8185602086016123ae565b80840191505092915050565b6000612d168284612cd9565b915081905092915050565b7f4e487b7100000000000000000000000000000000000000000000000000000000600052603260045260246000fd5b7f4e487b7100000000000000000000000000000000000000000000000000000000600052602260045260246000fd5b60006002820490506001821680612d9757607f821691505b602082108103612daa57612da9612d50565b5b50919050565b60008190508160005260206000209050919050565b60008154612dd281612d7f565b612ddc8186612cce565b94506001821660008114612df75760018114612e0c57612e3f565b60ff1983168652811515820286019350612e3f565b612e1585612db0565b60005b83811015612e3757815481890152600182019150602081019050612e18565b838801955050505b50505092915050565b6000612e548284612dc5565b915081905092915050565b7f4e487b7100000000000000000000000000000000000000000000000000000000600052601160045260246000fd5b6000612e9982612411565b9150612ea483612411565b9250828201905080821115612ebc57612ebb612e5f565b5b92915050565b7f4e6f7420466f756e640000000000000000000000000000000000000000000000600082015250565b6000612ef86009836129ef565b9150612f0382612ec2565b602082019050919050565b60006020820190508181036000830152612f2781612eeb565b9050919050565b7f53746f726167652055726c20697320656d707479000000000000000000000000600082015250565b6000612f646014836129ef565b9150612f6f82612f2e565b602082019050919050565b60006020820190508181036000830152612f9381612f57565b9050919050565b6000604082019050612faf6000830185612a48565b8181036020830152612fc18184612a00565b90509392505050565b600081519050612fd9816125fe565b92915050565b600060208284031215612ff557612ff46121f9565b5b600061300384828501612fca565b91505092915050565b60006020820190506130216000830184612a39565b92915050565b60006020601f8301049050919050565b600082821b905092915050565b6000600883026130747fffffffffffffffffffffffffffffffffffffffffffffffffffffffffffffffff82613037565b61307e8683613037565b95508019841693508086168417925050509392505050565b60006130b16130ac6130a784612411565b612c54565b612411565b9050919050565b6000819050919050565b6130cb83613096565b6130df6130d7826130b8565b848454613044565b825550505050565b600090565b6130f46130e7565b6130ff8184846130c2565b505050565b5b81811015613123576131186000826130ec565b600181019050613105565b5050565b601f8211156131685761313981612db0565b61314284613027565b81016020851015613151578190505b61316561315d85613027565b830182613104565b50505b505050565b600082821c905092915050565b600061318b6000198460080261316d565b1980831691505092915050565b60006131a4838361317a565b9150826002028217905092915050565b6131bd82612392565b67ffffffffffffffff8111156131d6576131d561221e565b5b6131e08254612d7f565b6131eb828285613127565b600060209050601f83116001811461321e576000841561320c578287015190505b6132168582613198565b86555061327e565b601f19841661322c86612db0565b60005b828110156132545784890151825560018201915060208501945060208101905061322f565b86831015613271578489015161326d601f89168261317a565b8355505b6001600288020188555050505b50505050505056fea264697066735822122080581912c54ae79487d163497e39a0a1a96489db218beadf79e5eb10f5348e6064736f6c6343000818003360806040523480156200001157600080fd5b50336040518060400160405280600e81526020017f43523843657274696669636174650000000000000000000000000000000000008152506040518060400160405280600481526020017f4352384300000000000000000000000000000000000000000000000000000000815250816000908162000090919062000472565b508060019081620000a2919062000472565b505050600073ffffffffffffffffffffffffffffffffffffffff168173ffffffffffffffffffffffffffffffffffffffff16036200011a5760006040517f1e4fbdf70000000000000000000000000000000000000000000000000000000081526004016200011191906200059e565b60405180910390fd5b6200012b816200013260201b60201c565b50620005bb565b6000600760009054906101000a900473ffffffffffffffffffffffffffffffffffffffff16905081600760006101000a81548173ffffffffffffffffffffffffffffffffffffffff021916908373ffffffffffffffffffffffffffffffffffffffff1602179055508173ffffffffffffffffffffffffffffffffffffffff168173ffffffffffffffffffffffffffffffffffffffff167f8be0079c531659141344cd1fd0a4f28419497f9722a3daafe3b4186f6b6457e060405160405180910390a35050565b600081519050919050565b7f4e487b7100000000000000000000000000000000000000000000000000000000600052604160045260246000fd5b7f4e487b7100000000000000000000000000000000000000000000000000000000600052602260045260246000fd5b600060028204905060018216806200027a57607f821691505b60208210810362000290576200028f62000232565b5b50919050565b60008190508160005260206000209050919050565b60006020601f8301049050919050565b600082821b905092915050565b600060088302620002fa7fffffffffffffffffffffffffffffffffffffffffffffffffffffffffffffffff82620002bb565b620003068683620002bb565b95508019841693508086168417925050509392505050565b6000819050919050565b6000819050919050565b6000620003536200034d62000347846200031e565b62000328565b6200031e565b9050919050565b6000819050919050565b6200036f8362000332565b620003876200037e826200035a565b848454620002c8565b825550505050565b600090565b6200039e6200038f565b620003ab81848462000364565b505050565b5b81811015620003d357620003c760008262000394565b600181019050620003b1565b5050565b601f8211156200042257620003ec8162000296565b620003f784620002ab565b8101602085101562000407578190505b6200041f6200041685620002ab565b830182620003b0565b50505b505050565b600082821c905092915050565b6000620004476000198460080262000427565b1980831691505092915050565b600062000462838362000434565b9150826002028217905092915050565b6200047d82620001f8565b67ffffffffffffffff81111562000499576200049862000203565b5b620004a5825462000261565b620004b2828285620003d7565b600060209050601f831160018114620004ea5760008415620004d5578287015190505b620004e1858262000454565b86555062000551565b601f198416620004fa8662000296565b60005b828110156200052457848901518255600182019150602085019450602081019050620004fd565b8683101562000544578489015162000540601f89168262000434565b8355505b6001600288020188555050505b505050505050565b600073ffffffffffffffffffffffffffffffffffffffff82169050919050565b6000620005868262000559565b9050919050565b620005988162000579565b82525050565b6000602082019050620005b560008301846200058d565b92915050565b61267580620005cb6000396000f3fe608060405234801561001057600080fd5b506004361061010b5760003560e01c8063715018a6116100a2578063b88d4fde11610071578063b88d4fde146102a4578063c87b56dd146102c0578063d204c45e146102f0578063e985e9c514610320578063f2fde38b146103505761010b565b8063715018a6146102425780638da5cb5b1461024c57806395d89b411461026a578063a22cb465146102885761010b565b806323b872dd116100de57806323b872dd146101aa57806342842e0e146101c65780636352211e146101e257806370a08231146102125761010b565b806301ffc9a71461011057806306fdde0314610140578063081812fc1461015e578063095ea7b31461018e575b600080fd5b61012a60048036038101906101259190611acd565b61036c565b6040516101379190611b15565b60405180910390f35b6101486103cd565b6040516101559190611bc0565b60405180910390f35b61017860048036038101906101739190611c18565b61045f565b6040516101859190611c86565b60405180910390f35b6101a860048036038101906101a39190611ccd565b61047b565b005b6101c460048036038101906101bf9190611d0d565b610491565b005b6101e060048036038101906101db9190611d0d565b610593565b005b6101fc60048036038101906101f79190611c18565b6105b3565b6040516102099190611c86565b60405180910390f35b61022c60048036038101906102279190611d60565b6105c5565b6040516102399190611d9c565b60405180910390f35b61024a61067f565b005b610254610693565b6040516102619190611c86565b60405180910390f35b6102726106bd565b60405161027f9190611bc0565b60405180910390f35b6102a2600480360381019061029d9190611de3565b61074f565b005b6102be60048036038101906102b99190611f58565b610765565b005b6102da60048036038101906102d59190611c18565b610782565b6040516102e79190611bc0565b60405180910390f35b61030a6004803603810190610305919061207c565b610895565b6040516103179190611d9c565b60405180910390f35b61033a600480360381019061033591906120d8565b6108d8565b6040516103479190611b15565b60405180910390f35b61036a60048036038101906103659190611d60565b61096c565b005b6000634906490660e01b7bffffffffffffffffffffffffffffffffffffffffffffffffffffffff1916827bffffffffffffffffffffffffffffffffffffffffffffffffffffffff191614806103c657506103c5826109f2565b5b9050919050565b6060600080546103dc90612147565b80601f016020809104026020016040519081016040528092919081815260200182805461040890612147565b80156104555780601f1061042a57610100808354040283529160200191610455565b820191906000526020600020905b81548152906001019060200180831161043857829003601f168201915b5050505050905090565b600061046a82610ad4565b5061047482610b5c565b9050919050565b61048d8282610488610b99565b610ba1565b5050565b600073ffffffffffffffffffffffffffffffffffffffff168273ffffffffffffffffffffffffffffffffffffffff16036105035760006040517f64a0ae920000000000000000000000000000000000000000000000000000000081526004016104fa9190611c86565b60405180910390fd5b60006105178383610512610b99565b610bb3565b90508373ffffffffffffffffffffffffffffffffffffffff168173ffffffffffffffffffffffffffffffffffffffff161461058d578382826040517f64283d7b00000000000000000000000000000000000000000000000000000000815260040161058493929190612178565b60405180910390fd5b50505050565b6105ae83838360405180602001604052806000815250610765565b505050565b60006105be82610ad4565b9050919050565b60008073ffffffffffffffffffffffffffffffffffffffff168273ffffffffffffffffffffffffffffffffffffffff16036106385760006040517f89c62b6400000000000000000000000000000000000000000000000000000000815260040161062f9190611c86565b60405180910390fd5b600360008373ffffffffffffffffffffffffffffffffffffffff1673ffffffffffffffffffffffffffffffffffffffff168152602001908152602001600020549050919050565b610687610dcd565b6106916000610e54565b565b6000600760009054906101000a900473ffffffffffffffffffffffffffffffffffffffff16905090565b6060600180546106cc90612147565b80601f01602080910402602001604051908101604052809291908181526020018280546106f890612147565b80156107455780601f1061071a57610100808354040283529160200191610745565b820191906000526020600020905b81548152906001019060200180831161072857829003601f168201915b5050505050905090565b61076161075a610b99565b8383610f1a565b5050565b610770848484610491565b61077c84848484611089565b50505050565b606061078d82610ad4565b5060006006600084815260200190815260200160002080546107ae90612147565b80601f01602080910402602001604051908101604052809291908181526020018280546107da90612147565b80156108275780601f106107fc57610100808354040283529160200191610827565b820191906000526020600020905b81548152906001019060200180831161080a57829003601f168201915b505050505090506000610838611240565b9050600081510361084d578192505050610890565b60008251111561088257808260405160200161086a9291906121eb565b60405160208183030381529060405292505050610890565b61088b84611257565b925050505b919050565b600061089f610dcd565b6000600860008154809291906108b49061223e565b9190505590506108c484826112c0565b6108ce81846112de565b8091505092915050565b6000600560008473ffffffffffffffffffffffffffffffffffffffff1673ffffffffffffffffffffffffffffffffffffffff16815260200190815260200160002060008373ffffffffffffffffffffffffffffffffffffffff1673ffffffffffffffffffffffffffffffffffffffff16815260200190815260200160002060009054906101000a900460ff16905092915050565b610974610dcd565b600073ffffffffffffffffffffffffffffffffffffffff168173ffffffffffffffffffffffffffffffffffffffff16036109e65760006040517f1e4fbdf70000000000000000000000000000000000000000000000000000000081526004016109dd9190611c86565b60405180910390fd5b6109ef81610e54565b50565b60007f80ac58cd000000000000000000000000000000000000000000000000000000007bffffffffffffffffffffffffffffffffffffffffffffffffffffffff1916827bffffffffffffffffffffffffffffffffffffffffffffffffffffffff19161480610abd57507f5b5e139f000000000000000000000000000000000000000000000000000000007bffffffffffffffffffffffffffffffffffffffffffffffffffffffff1916827bffffffffffffffffffffffffffffffffffffffffffffffffffffffff1916145b80610acd5750610acc8261133a565b5b9050919050565b600080610ae0836113a4565b9050600073ffffffffffffffffffffffffffffffffffffffff168173ffffffffffffffffffffffffffffffffffffffff1603610b5357826040517f7e273289000000000000000000000000000000000000000000000000000000008152600401610b4a9190611d9c565b60405180910390fd5b80915050919050565b60006004600083815260200190815260200160002060009054906101000a900473ffffffffffffffffffffffffffffffffffffffff169050919050565b600033905090565b610bae83838360016113e1565b505050565b600080610bbf846113a4565b9050600073ffffffffffffffffffffffffffffffffffffffff168373ffffffffffffffffffffffffffffffffffffffff1614610c0157610c008184866115a6565b5b600073ffffffffffffffffffffffffffffffffffffffff168173ffffffffffffffffffffffffffffffffffffffff1614610c9257610c436000856000806113e1565b6001600360008373ffffffffffffffffffffffffffffffffffffffff1673ffffffffffffffffffffffffffffffffffffffff168152602001908152602001600020600082825403925050819055505b600073ffffffffffffffffffffffffffffffffffffffff168573ffffffffffffffffffffffffffffffffffffffff1614610d15576001600360008773ffffffffffffffffffffffffffffffffffffffff1673ffffffffffffffffffffffffffffffffffffffff168152602001908152602001600020600082825401925050819055505b846002600086815260200190815260200160002060006101000a81548173ffffffffffffffffffffffffffffffffffffffff021916908373ffffffffffffffffffffffffffffffffffffffff160217905550838573ffffffffffffffffffffffffffffffffffffffff168273ffffffffffffffffffffffffffffffffffffffff167fddf252ad1be2c89b69c2b068fc378daa952ba7f163c4a11628f55a4df523b3ef60405160405180910390a4809150509392505050565b610dd5610b99565b73ffffffffffffffffffffffffffffffffffffffff16610df3610693565b73ffffffffffffffffffffffffffffffffffffffff1614610e5257610e16610b99565b6040517f118cdaa7000000000000000000000000000000000000000000000000000000008152600401610e499190611c86565b60405180910390fd5b565b6000600760009054906101000a900473ffffffffffffffffffffffffffffffffffffffff16905081600760006101000a81548173ffffffffffffffffffffffffffffffffffffffff021916908373ffffffffffffffffffffffffffffffffffffffff1602179055508173ffffffffffffffffffffffffffffffffffffffff168173ffffffffffffffffffffffffffffffffffffffff167f8be0079c531659141344cd1fd0a4f28419497f9722a3daafe3b4186f6b6457e060405160405180910390a35050565b600073ffffffffffffffffffffffffffffffffffffffff168273ffffffffffffffffffffffffffffffffffffffff1603610f8b57816040517f5b08ba18000000000000000000000000000000000000000000000000000000008152600401610f829190611c86565b60405180910390fd5b80600560008573ffffffffffffffffffffffffffffffffffffffff1673ffffffffffffffffffffffffffffffffffffffff16815260200190815260200160002060008473ffffffffffffffffffffffffffffffffffffffff1673ffffffffffffffffffffffffffffffffffffffff16815260200190815260200160002060006101000a81548160ff0219169083151502179055508173ffffffffffffffffffffffffffffffffffffffff168373ffffffffffffffffffffffffffffffffffffffff167f17307eab39ab6107e8899845ad3d59bd9653f200f220920489ca2b5937696c318360405161107c9190611b15565b60405180910390a3505050565b60008373ffffffffffffffffffffffffffffffffffffffff163b111561123a578273ffffffffffffffffffffffffffffffffffffffff1663150b7a026110cd610b99565b8685856040518563ffffffff1660e01b81526004016110ef94939291906122db565b6020604051808303816000875af192505050801561112b57506040513d601f19601f82011682018060405250810190611128919061233c565b60015b6111af573d806000811461115b576040519150601f19603f3d011682016040523d82523d6000602084013e611160565b606091505b5060008151036111a757836040517f64a0ae9200000000000000000000000000000000000000000000000000000000815260040161119e9190611c86565b60405180910390fd5b805181602001fd5b63150b7a0260e01b7bffffffffffffffffffffffffffffffffffffffffffffffffffffffff1916817bffffffffffffffffffffffffffffffffffffffffffffffffffffffff19161461123857836040517f64a0ae9200000000000000000000000000000000000000000000000000000000815260040161122f9190611c86565b60405180910390fd5b505b50505050565b606060405180602001604052806000815250905090565b606061126282610ad4565b50600061126d611240565b9050600081511161128d57604051806020016040528060008152506112b8565b806112978461166a565b6040516020016112a89291906121eb565b6040516020818303038152906040525b915050919050565b6112da828260405180602001604052806000815250611738565b5050565b806006600084815260200190815260200160002090816112fe9190612515565b507ff8e1a15aba9398e019f0b49df1a4fde98ee17ae345cb5f6b5e2c27f5033e8ce78260405161132e9190611d9c565b60405180910390a15050565b60007f01ffc9a7000000000000000000000000000000000000000000000000000000007bffffffffffffffffffffffffffffffffffffffffffffffffffffffff1916827bffffffffffffffffffffffffffffffffffffffffffffffffffffffff1916149050919050565b60006002600083815260200190815260200160002060009054906101000a900473ffffffffffffffffffffffffffffffffffffffff169050919050565b808061141a5750600073ffffffffffffffffffffffffffffffffffffffff168273ffffffffffffffffffffffffffffffffffffffff1614155b1561154e57600061142a84610ad4565b9050600073ffffffffffffffffffffffffffffffffffffffff168373ffffffffffffffffffffffffffffffffffffffff161415801561149557508273ffffffffffffffffffffffffffffffffffffffff168173ffffffffffffffffffffffffffffffffffffffff1614155b80156114a857506114a681846108d8565b155b156114ea57826040517fa9fbf51f0000000000000000000000000000000000000000000000000000000081526004016114e19190611c86565b60405180910390fd5b811561154c57838573ffffffffffffffffffffffffffffffffffffffff168273ffffffffffffffffffffffffffffffffffffffff167f8c5be1e5ebec7d5bd14f71427d1e84f3dd0314c0f7b2291e5b200ac8c7c3b92560405160405180910390a45b505b836004600085815260200190815260200160002060006101000a81548173ffffffffffffffffffffffffffffffffffffffff021916908373ffffffffffffffffffffffffffffffffffffffff16021790555050505050565b6115b1838383611754565b61166557600073ffffffffffffffffffffffffffffffffffffffff168373ffffffffffffffffffffffffffffffffffffffff160361162657806040517f7e27328900000000000000000000000000000000000000000000000000000000815260040161161d9190611d9c565b60405180910390fd5b81816040517f177e802f00000000000000000000000000000000000000000000000000000000815260040161165c9291906125e7565b60405180910390fd5b505050565b60606000600161167984611815565b01905060008167ffffffffffffffff81111561169857611697611e2d565b5b6040519080825280601f01601f1916602001820160405280156116ca5781602001600182028036833780820191505090505b509050600082602001820190505b60011561172d578080600190039150507f3031323334353637383961626364656600000000000000000000000000000000600a86061a8153600a858161172157611720612610565b5b049450600085036116d8575b819350505050919050565b6117428383611968565b61174f6000848484611089565b505050565b60008073ffffffffffffffffffffffffffffffffffffffff168373ffffffffffffffffffffffffffffffffffffffff161415801561180c57508273ffffffffffffffffffffffffffffffffffffffff168473ffffffffffffffffffffffffffffffffffffffff1614806117cd57506117cc84846108d8565b5b8061180b57508273ffffffffffffffffffffffffffffffffffffffff166117f383610b5c565b73ffffffffffffffffffffffffffffffffffffffff16145b5b90509392505050565b600080600090507a184f03e93ff9f4daa797ed6e38ed64bf6a1f0100000000000000008310611873577a184f03e93ff9f4daa797ed6e38ed64bf6a1f010000000000000000838161186957611868612610565b5b0492506040810190505b6d04ee2d6d415b85acef810000000083106118b0576d04ee2d6d415b85acef810000000083816118a6576118a5612610565b5b0492506020810190505b662386f26fc1000083106118df57662386f26fc1000083816118d5576118d4612610565b5b0492506010810190505b6305f5e1008310611908576305f5e10083816118fe576118fd612610565b5b0492506008810190505b612710831061192d57612710838161192357611922612610565b5b0492506004810190505b60648310611950576064838161194657611945612610565b5b0492506002810190505b600a831061195f576001810190505b80915050919050565b600073ffffffffffffffffffffffffffffffffffffffff168273ffffffffffffffffffffffffffffffffffffffff16036119da5760006040517f64a0ae920000000000000000000000000000000000000000000000000000000081526004016119d19190611c86565b60405180910390fd5b60006119e883836000610bb3565b9050600073ffffffffffffffffffffffffffffffffffffffff168173ffffffffffffffffffffffffffffffffffffffff1614611a5c5760006040517f73c6ac6e000000000000000000000000000000000000000000000000000000008152600401611a539190611c86565b60405180910390fd5b505050565b6000604051905090565b600080fd5b600080fd5b60007fffffffff0000000000000000000000000000000000000000000000000000000082169050919050565b611aaa81611a75565b8114611ab557600080fd5b50565b600081359050611ac781611aa1565b92915050565b600060208284031215611ae357611ae2611a6b565b5b6000611af184828501611ab8565b91505092915050565b60008115159050919050565b611b0f81611afa565b82525050565b6000602082019050611b2a6000830184611b06565b92915050565b600081519050919050565b600082825260208201905092915050565b60005b83811015611b6a578082015181840152602081019050611b4f565b60008484015250505050565b6000601f19601f8301169050919050565b6000611b9282611b30565b611b9c8185611b3b565b9350611bac818560208601611b4c565b611bb581611b76565b840191505092915050565b60006020820190508181036000830152611bda8184611b87565b905092915050565b6000819050919050565b611bf581611be2565b8114611c0057600080fd5b50565b600081359050611c1281611bec565b92915050565b600060208284031215611c2e57611c2d611a6b565b5b6000611c3c84828501611c03565b91505092915050565b600073ffffffffffffffffffffffffffffffffffffffff82169050919050565b6000611c7082611c45565b9050919050565b611c8081611c65565b82525050565b6000602082019050611c9b6000830184611c77565b92915050565b611caa81611c65565b8114611cb557600080fd5b50565b600081359050611cc781611ca1565b92915050565b60008060408385031215611ce457611ce3611a6b565b5b6000611cf285828601611cb8565b9250506020611d0385828601611c03565b9150509250929050565b600080600060608486031215611d2657611d25611a6b565b5b6000611d3486828701611cb8565b9350506020611d4586828701611cb8565b9250506040611d5686828701611c03565b9150509250925092565b600060208284031215611d7657611d75611a6b565b5b6000611d8484828501611cb8565b91505092915050565b611d9681611be2565b82525050565b6000602082019050611db16000830184611d8d565b92915050565b611dc081611afa565b8114611dcb57600080fd5b50565b600081359050611ddd81611db7565b92915050565b60008060408385031215611dfa57611df9611a6b565b5b6000611e0885828601611cb8565b9250506020611e1985828601611dce565b9150509250929050565b600080fd5b600080fd5b7f4e487b7100000000000000000000000000000000000000000000000000000000600052604160045260246000fd5b611e6582611b76565b810181811067ffffffffffffffff82111715611e8457611e83611e2d565b5b80604052505050565b6000611e97611a61565b9050611ea38282611e5c565b919050565b600067ffffffffffffffff821115611ec357611ec2611e2d565b5b611ecc82611b76565b9050602081019050919050565b82818337600083830152505050565b6000611efb611ef684611ea8565b611e8d565b905082815260208101848484011115611f1757611f16611e28565b5b611f22848285611ed9565b509392505050565b600082601f830112611f3f57611f3e611e23565b5b8135611f4f848260208601611ee8565b91505092915050565b60008060008060808587031215611f7257611f71611a6b565b5b6000611f8087828801611cb8565b9450506020611f9187828801611cb8565b9350506040611fa287828801611c03565b925050606085013567ffffffffffffffff811115611fc357611fc2611a70565b5b611fcf87828801611f2a565b91505092959194509250565b600067ffffffffffffffff821115611ff657611ff5611e2d565b5b611fff82611b76565b9050602081019050919050565b600061201f61201a84611fdb565b611e8d565b90508281526020810184848401111561203b5761203a611e28565b5b612046848285611ed9565b509392505050565b600082601f83011261206357612062611e23565b5b813561207384826020860161200c565b91505092915050565b6000806040838503121561209357612092611a6b565b5b60006120a185828601611cb8565b925050602083013567ffffffffffffffff8111156120c2576120c1611a70565b5b6120ce8582860161204e565b9150509250929050565b600080604083850312156120ef576120ee611a6b565b5b60006120fd85828601611cb8565b925050602061210e85828601611cb8565b9150509250929050565b7f4e487b7100000000000000000000000000000000000000000000000000000000600052602260045260246000fd5b6000600282049050600182168061215f57607f821691505b60208210810361217257612171612118565b5b50919050565b600060608201905061218d6000830186611c77565b61219a6020830185611d8d565b6121a76040830184611c77565b949350505050565b600081905092915050565b60006121c582611b30565b6121cf81856121af565b93506121df818560208601611b4c565b80840191505092915050565b60006121f782856121ba565b915061220382846121ba565b91508190509392505050565b7f4e487b7100000000000000000000000000000000000000000000000000000000600052601160045260246000fd5b600061224982611be2565b91507fffffffffffffffffffffffffffffffffffffffffffffffffffffffffffffffff820361227b5761227a61220f565b5b600182019050919050565b600081519050919050565b600082825260208201905092915050565b60006122ad82612286565b6122b78185612291565b93506122c7818560208601611b4c565b6122d081611b76565b840191505092915050565b60006080820190506122f06000830187611c77565b6122fd6020830186611c77565b61230a6040830185611d8d565b818103606083015261231c81846122a2565b905095945050505050565b60008151905061233681611aa1565b92915050565b60006020828403121561235257612351611a6b565b5b600061236084828501612327565b91505092915050565b60008190508160005260206000209050919050565b60006020601f8301049050919050565b600082821b905092915050565b6000600883026123cb7fffffffffffffffffffffffffffffffffffffffffffffffffffffffffffffffff8261238e565b6123d5868361238e565b95508019841693508086168417925050509392505050565b6000819050919050565b600061241261240d61240884611be2565b6123ed565b611be2565b9050919050565b6000819050919050565b61242c836123f7565b61244061243882612419565b84845461239b565b825550505050565b600090565b612455612448565b612460818484612423565b505050565b5b818110156124845761247960008261244d565b600181019050612466565b5050565b601f8211156124c95761249a81612369565b6124a38461237e565b810160208510156124b2578190505b6124c66124be8561237e565b830182612465565b50505b505050565b600082821c905092915050565b60006124ec600019846008026124ce565b1980831691505092915050565b600061250583836124db565b9150826002028217905092915050565b61251e82611b30565b67ffffffffffffffff81111561253757612536611e2d565b5b6125418254612147565b61254c828285612488565b600060209050601f83116001811461257f576000841561256d578287015190505b61257785826124f9565b8655506125df565b601f19841661258d86612369565b60005b828110156125b557848901518255600182019150602085019450602081019050612590565b868310156125d257848901516125ce601f8916826124db565b8355505b6001600288020188555050505b505050505050565b60006040820190506125fc6000830185611c77565b6126096020830184611d8d565b9392505050565b7f4e487b7100000000000000000000000000000000000000000000000000000000600052601260045260246000fdfea2646970667358221220e0d1bd5bfbf045bf00057e25147e7a0db6917ac51970a44a4ef5f65e28cfb03764736f6c63430008180033",
  "linkReferences": {},
  "deployedLinkReferences": {}
}