{
  "_format": "hh-sol-artifact-1",
  "contractName": "ArtCreation",
  "sourceName": "contracts/ArtCreation.sol",
  "abi": [
    {
      "inputs": [],
      "stateMutability": "nonpayable",
      "type": "constructor"
    },
    {
      "inputs": [
        {
          "internalType": "address",
          "name": "owner",
          "type": "address"
        }
      ],
      "name": "OwnableInvalidOwner",
      "type": "error"
    },
    {
      "inputs": [
        {
          "internalType": "address",
          "name": "account",
          "type": "address"
        }
      ],
      "name": "OwnableUnauthorizedAccount",
      "type": "error"
    },
    {
      "anonymous": false,
      "inputs": [
        {
          "indexed": false,
          "internalType": "uint256",
          "name": "tokenId",
          "type": "uint256"
        }
      ],
      "name": "CR8ArtNFTCreated",
      "type": "event"
    },
    {
      "anonymous": false,
      "inputs": [
        {
          "indexed": true,
          "internalType": "address",
          "name": "previousOwner",
          "type": "address"
        },
        {
          "indexed": true,
          "internalType": "address",
          "name": "newOwner",
          "type": "address"
        }
      ],
      "name": "OwnershipTransferred",
      "type": "event"
    },
    {
      "anonymous": false,
      "inputs": [],
      "name": "PayementFailed",
      "type": "event"
    },
    {
      "anonymous": false,
      "inputs": [
        {
          "indexed": false,
          "internalType": "string",
          "name": "artId",
          "type": "string"
        }
      ],
      "name": "SuccessfulArtCreationAttempt",
      "type": "event"
    },
    {
      "inputs": [
        {
          "internalType": "string",
          "name": "artId",
          "type": "string"
        }
      ],
      "name": "_calculateTotalProvidersFees",
      "outputs": [
        {
          "internalType": "uint256",
          "name": "",
          "type": "uint256"
        }
      ],
      "stateMutability": "view",
      "type": "function"
    },
    {
      "inputs": [
        {
          "internalType": "address",
          "name": "addr",
          "type": "address"
        },
        {
          "internalType": "string",
          "name": "artId",
          "type": "string"
        }
      ],
      "name": "_isCreator",
      "outputs": [
        {
          "internalType": "bool",
          "name": "",
          "type": "bool"
        }
      ],
      "stateMutability": "view",
      "type": "function"
    },
    {
      "inputs": [],
      "name": "cr8Art",
      "outputs": [
        {
          "internalType": "contract CR8Art",
          "name": "",
          "type": "address"
        }
      ],
      "stateMutability": "view",
      "type": "function"
    },
    {
      "inputs": [
        {
          "internalType": "string",
          "name": "artId",
          "type": "string"
        },
        {
          "internalType": "string[]",
          "name": "datasetIds",
          "type": "string[]"
        },
        {
          "internalType": "string[]",
          "name": "modelIds",
          "type": "string[]"
        },
        {
          "internalType": "string",
          "name": "prompt",
          "type": "string"
        },
        {
          "internalType": "string",
          "name": "storageUrl",
          "type": "string"
        }
      ],
      "name": "generateArt",
      "outputs": [],
      "stateMutability": "nonpayable",
      "type": "function"
    },
    {
      "inputs": [],
      "name": "owner",
      "outputs": [
        {
          "internalType": "address",
          "name": "",
          "type": "address"
        }
      ],
      "stateMutability": "view",
      "type": "function"
    },
    {
      "inputs": [
        {
          "internalType": "string",
          "name": "artId",
          "type": "string"
        }
      ],
      "name": "payFee",
      "outputs": [],
      "stateMutability": "payable",
      "type": "function"
    },
    {
      "inputs": [],
      "name": "recieve",
      "outputs": [],
      "stateMutability": "payable",
      "type": "function"
    },
    {
      "inputs": [],
      "name": "renounceOwnership",
      "outputs": [],
      "stateMutability": "nonpayable",
      "type": "function"
    },
    {
      "inputs": [
        {
          "internalType": "address",
          "name": "_dataProvision",
          "type": "address"
        }
      ],
      "name": "setDataProvisionAddr",
      "outputs": [],
      "stateMutability": "nonpayable",
      "type": "function"
    },
    {
      "inputs": [
        {
          "internalType": "address",
          "name": "newOwner",
          "type": "address"
        }
      ],
      "name": "transferOwnership",
      "outputs": [],
      "stateMutability": "nonpayable",
      "type": "function"
    }
  ],
  "bytecode": "0x60806040523480156200001157600080fd5b5033600073ffffffffffffffffffffffffffffffffffffffff168173ffffffffffffffffffffffffffffffffffffffff1603620000885760006040517f1e4fbdf70000000000000000000000000000000000000000000000000000000081526004016200007f919062000223565b60405180910390fd5b62000099816200010c60201b60201c565b50604051620000a890620001d0565b604051809103906000f080158015620000c5573d6000803e3d6000fd5b50600260006101000a81548173ffffffffffffffffffffffffffffffffffffffff021916908373ffffffffffffffffffffffffffffffffffffffff16021790555062000240565b60008060009054906101000a900473ffffffffffffffffffffffffffffffffffffffff169050816000806101000a81548173ffffffffffffffffffffffffffffffffffffffff021916908373ffffffffffffffffffffffffffffffffffffffff1602179055508173ffffffffffffffffffffffffffffffffffffffff168173ffffffffffffffffffffffffffffffffffffffff167f8be0079c531659141344cd1fd0a4f28419497f9722a3daafe3b4186f6b6457e060405160405180910390a35050565b612c40806200286083390190565b600073ffffffffffffffffffffffffffffffffffffffff82169050919050565b60006200020b82620001de565b9050919050565b6200021d81620001fe565b82525050565b60006020820190506200023a600083018462000212565b92915050565b61261080620002506000396000f3fe6080604052600436106100915760003560e01c8063ab0c516111610059578063ab0c516114610136578063b23bf44314610173578063ba7aef831461018f578063cd5b2d89146101cc578063f2fde38b146101f557610091565b806303071269146100965780631551fd09146100bf578063715018a6146100ea5780638da5cb5b14610101578063a9e10bf21461012c575b600080fd5b3480156100a257600080fd5b506100bd60048036038101906100b891906116ca565b61021e565b005b3480156100cb57600080fd5b506100d461042d565b6040516100e19190611850565b60405180910390f35b3480156100f657600080fd5b506100ff610453565b005b34801561010d57600080fd5b50610116610467565b604051610123919061188c565b60405180910390f35b610134610490565b005b34801561014257600080fd5b5061015d600480360381019061015891906118a7565b610492565b60405161016a9190611909565b60405180910390f35b61018d600480360381019061018891906118a7565b6108ec565b005b34801561019b57600080fd5b506101b660048036038101906101b19190611950565b610b0e565b6040516101c391906119c7565b60405180910390f35b3480156101d857600080fd5b506101f360048036038101906101ee91906119e2565b610bd4565b005b34801561020157600080fd5b5061021c600480360381019061021791906119e2565b610c18565b005b6040518060e001604052808681526020013373ffffffffffffffffffffffffffffffffffffffff16815260200185815260200184815260200183815260200182815260200160001515815250600160003373ffffffffffffffffffffffffffffffffffffffff1673ffffffffffffffffffffffffffffffffffffffff168152602001908152602001600020866040516102b79190611a80565b908152602001604051809103902060008201518160000190816102da9190611c99565b5060208201518160010160006101000a81548173ffffffffffffffffffffffffffffffffffffffff021916908373ffffffffffffffffffffffffffffffffffffffff160217905550604082015181600201908051906020019061033e9291906113b0565b50606082015181600301908051906020019061035b9291906113b0565b5060808201518160040190816103719190611c99565b5060a08201518160050190816103879190611c99565b5060c08201518160060160006101000a81548160ff02191690831515021790555090505060008151116103ef576040517f08c379a00000000000000000000000000000000000000000000000000000000081526004016103e690611dc8565b60405180910390fd5b7f6e412f1890f3430008d7758af7cc74978ed55ad9ac28146cbc927c6d47b6fa378560405161041e9190611e21565b60405180910390a15050505050565b600260009054906101000a900473ffffffffffffffffffffffffffffffffffffffff1681565b61045b610c9e565b6104656000610d25565b565b60008060009054906101000a900473ffffffffffffffffffffffffffffffffffffffff16905090565b565b600080600090506000600160003373ffffffffffffffffffffffffffffffffffffffff1673ffffffffffffffffffffffffffffffffffffffff168152602001908152602001600020846040516104e89190611a80565b9081526020016040518091039020600201805480602002602001604051908101604052809291908181526020016000905b828210156105c557838290600052602060002001805461053890611ac6565b80601f016020809104026020016040519081016040528092919081815260200182805461056490611ac6565b80156105b15780601f10610586576101008083540402835291602001916105b1565b820191906000526020600020905b81548152906001019060200180831161059457829003601f168201915b505050505081526020019060010190610519565b5050505090506000600160003373ffffffffffffffffffffffffffffffffffffffff1673ffffffffffffffffffffffffffffffffffffffff1681526020019081526020016000208560405161061a9190611a80565b9081526020016040518091039020600301805480602002602001604051908101604052809291908181526020016000905b828210156106f757838290600052602060002001805461066a90611ac6565b80601f016020809104026020016040519081016040528092919081815260200182805461069690611ac6565b80156106e35780601f106106b8576101008083540402835291602001916106e3565b820191906000526020600020905b8154815290600101906020018083116106c657829003601f168201915b50505050508152602001906001019061064b565b50505050905060005b825181116107ee576000600360009054906101000a900473ffffffffffffffffffffffffffffffffffffffff1673ffffffffffffffffffffffffffffffffffffffff16634eb4635f85848151811061075b5761075a611e43565b5b60200260200101516040518263ffffffff1660e01b815260040161077f9190611e21565b600060405180830381865afa15801561079c573d6000803e3d6000fd5b505050506040513d6000823e3d601f19601f820116820180604052508101906107c591906120da565b90508060200151856107d79190612152565b9450506001816107e79190612152565b9050610700565b5060005b815181116108e0576000600360009054906101000a900473ffffffffffffffffffffffffffffffffffffffff1673ffffffffffffffffffffffffffffffffffffffff1663781a433684848151811061084d5761084c611e43565b5b60200260200101516040518263ffffffff1660e01b81526004016108719190611e21565b600060405180830381865afa15801561088e573d6000803e3d6000fd5b505050506040513d6000823e3d601f19601f820116820180604052508101906108b79190612266565b90508060200151856108c99190612152565b9450506001816108d99190612152565b90506107f2565b50829350505050919050565b6108f63382610b0e565b610935576040517f08c379a000000000000000000000000000000000000000000000000000000000815260040161092c90612321565b60405180910390fd5b600061094033610de9565b9050600061094d83610492565b9050818161095b9190612152565b3373ffffffffffffffffffffffffffffffffffffffff1631116109b3576040517f08c379a00000000000000000000000000000000000000000000000000000000081526004016109aa9061238d565b60405180910390fd5b6109c782826109c29190612152565b610df4565b6000600260009054906101000a900473ffffffffffffffffffffffffffffffffffffffff1673ffffffffffffffffffffffffffffffffffffffff1663d204c45e33600160003373ffffffffffffffffffffffffffffffffffffffff1673ffffffffffffffffffffffffffffffffffffffff16815260200190815260200160002087604051610a559190611a80565b90815260200160405180910390206005016040518363ffffffff1660e01b8152600401610a83929190612431565b6020604051808303816000875af1158015610aa2573d6000803e3d6000fd5b505050506040513d601f19601f82011682018060405250810190610ac69190612461565b9050610ad184610ea7565b7f38c9222d6472b481a0836dc03771dda9ced555e716b2e29aea17c0426eab48d381604051610b009190611909565b60405180910390a150505050565b600081604051602001610b219190611a80565b60405160208183030381529060405280519060200120600160008573ffffffffffffffffffffffffffffffffffffffff1673ffffffffffffffffffffffffffffffffffffffff16815260200190815260200160002083604051610b849190611a80565b9081526020016040518091039020600001604051602001610ba59190612511565b6040516020818303038152906040528051906020012003610bc95760019050610bce565b600090505b92915050565b80600360006101000a81548173ffffffffffffffffffffffffffffffffffffffff021916908373ffffffffffffffffffffffffffffffffffffffff16021790555050565b610c20610c9e565b600073ffffffffffffffffffffffffffffffffffffffff168173ffffffffffffffffffffffffffffffffffffffff1603610c925760006040517f1e4fbdf7000000000000000000000000000000000000000000000000000000008152600401610c89919061188c565b60405180910390fd5b610c9b81610d25565b50565b610ca66112f4565b73ffffffffffffffffffffffffffffffffffffffff16610cc4610467565b73ffffffffffffffffffffffffffffffffffffffff1614610d2357610ce76112f4565b6040517f118cdaa7000000000000000000000000000000000000000000000000000000008152600401610d1a919061188c565b60405180910390fd5b565b60008060009054906101000a900473ffffffffffffffffffffffffffffffffffffffff169050816000806101000a81548173ffffffffffffffffffffffffffffffffffffffff021916908373ffffffffffffffffffffffffffffffffffffffff1602179055508173ffffffffffffffffffffffffffffffffffffffff168173ffffffffffffffffffffffffffffffffffffffff167f8be0079c531659141344cd1fd0a4f28419497f9722a3daafe3b4186f6b6457e060405160405180910390a35050565b600060029050919050565b6000803073ffffffffffffffffffffffffffffffffffffffff1683604051610e1b90612559565b60006040518083038185875af1925050503d8060008114610e58576040519150601f19603f3d011682016040523d82523d6000602084013e610e5d565b606091505b509150915081610ea2576040517f08c379a0000000000000000000000000000000000000000000000000000000008152600401610e99906125ba565b60405180910390fd5b505050565b6000600160003373ffffffffffffffffffffffffffffffffffffffff1673ffffffffffffffffffffffffffffffffffffffff16815260200190815260200160002082604051610ef69190611a80565b9081526020016040518091039020600201805480602002602001604051908101604052809291908181526020016000905b82821015610fd3578382906000526020600020018054610f4690611ac6565b80601f0160208091040260200160405190810160405280929190818152602001828054610f7290611ac6565b8015610fbf5780601f10610f9457610100808354040283529160200191610fbf565b820191906000526020600020905b815481529060010190602001808311610fa257829003601f168201915b505050505081526020019060010190610f27565b50505050905060005b815181116110ca576000600360009054906101000a900473ffffffffffffffffffffffffffffffffffffffff1673ffffffffffffffffffffffffffffffffffffffff16634eb4635f84848151811061103757611036611e43565b5b60200260200101516040518263ffffffff1660e01b815260040161105b9190611e21565b600060405180830381865afa158015611078573d6000803e3d6000fd5b505050506040513d6000823e3d601f19601f820116820180604052508101906110a191906120da565b90506110b5816040015182602001516112fc565b506001816110c39190612152565b9050610fdc565b506000600160003373ffffffffffffffffffffffffffffffffffffffff1673ffffffffffffffffffffffffffffffffffffffff1681526020019081526020016000208360405161111a9190611a80565b9081526020016040518091039020600301805480602002602001604051908101604052809291908181526020016000905b828210156111f757838290600052602060002001805461116a90611ac6565b80601f016020809104026020016040519081016040528092919081815260200182805461119690611ac6565b80156111e35780601f106111b8576101008083540402835291602001916111e3565b820191906000526020600020905b8154815290600101906020018083116111c657829003601f168201915b50505050508152602001906001019061114b565b50505050905060005b815181116112ee576000600360009054906101000a900473ffffffffffffffffffffffffffffffffffffffff1673ffffffffffffffffffffffffffffffffffffffff1663781a433684848151811061125b5761125a611e43565b5b60200260200101516040518263ffffffff1660e01b815260040161127f9190611e21565b600060405180830381865afa15801561129c573d6000803e3d6000fd5b505050506040513d6000823e3d601f19601f820116820180604052508101906112c59190612266565b90506112d9816040015182602001516112fc565b506001816112e79190612152565b9050611200565b50505050565b600033905090565b6000808373ffffffffffffffffffffffffffffffffffffffff168360405161132390612559565b60006040518083038185875af1925050503d8060008114611360576040519150601f19603f3d011682016040523d82523d6000602084013e611365565b606091505b5091509150816113aa576040517f08c379a00000000000000000000000000000000000000000000000000000000081526004016113a1906125ba565b60405180910390fd5b50505050565b8280548282559060005260206000209081019282156113f8579160200282015b828111156113f75782518290816113e79190611c99565b50916020019190600101906113d0565b5b5090506114059190611409565b5090565b5b808211156114295760008181611420919061142d565b5060010161140a565b5090565b50805461143990611ac6565b6000825580601f1061144b575061146a565b601f016020900490600052602060002090810190611469919061146d565b5b50565b5b8082111561148657600081600090555060010161146e565b5090565b6000604051905090565b600080fd5b600080fd5b600080fd5b600080fd5b6000601f19601f8301169050919050565b7f4e487b7100000000000000000000000000000000000000000000000000000000600052604160045260246000fd5b6114f1826114a8565b810181811067ffffffffffffffff821117156115105761150f6114b9565b5b80604052505050565b600061152361148a565b905061152f82826114e8565b919050565b600067ffffffffffffffff82111561154f5761154e6114b9565b5b611558826114a8565b9050602081019050919050565b82818337600083830152505050565b600061158761158284611534565b611519565b9050828152602081018484840111156115a3576115a26114a3565b5b6115ae848285611565565b509392505050565b600082601f8301126115cb576115ca61149e565b5b81356115db848260208601611574565b91505092915050565b600067ffffffffffffffff8211156115ff576115fe6114b9565b5b602082029050602081019050919050565b600080fd5b6000611628611623846115e4565b611519565b9050808382526020820190506020840283018581111561164b5761164a611610565b5b835b8181101561169257803567ffffffffffffffff8111156116705761166f61149e565b5b80860161167d89826115b6565b8552602085019450505060208101905061164d565b5050509392505050565b600082601f8301126116b1576116b061149e565b5b81356116c1848260208601611615565b91505092915050565b600080600080600060a086880312156116e6576116e5611494565b5b600086013567ffffffffffffffff81111561170457611703611499565b5b611710888289016115b6565b955050602086013567ffffffffffffffff81111561173157611730611499565b5b61173d8882890161169c565b945050604086013567ffffffffffffffff81111561175e5761175d611499565b5b61176a8882890161169c565b935050606086013567ffffffffffffffff81111561178b5761178a611499565b5b611797888289016115b6565b925050608086013567ffffffffffffffff8111156117b8576117b7611499565b5b6117c4888289016115b6565b9150509295509295909350565b600073ffffffffffffffffffffffffffffffffffffffff82169050919050565b6000819050919050565b600061181661181161180c846117d1565b6117f1565b6117d1565b9050919050565b6000611828826117fb565b9050919050565b600061183a8261181d565b9050919050565b61184a8161182f565b82525050565b60006020820190506118656000830184611841565b92915050565b6000611876826117d1565b9050919050565b6118868161186b565b82525050565b60006020820190506118a1600083018461187d565b92915050565b6000602082840312156118bd576118bc611494565b5b600082013567ffffffffffffffff8111156118db576118da611499565b5b6118e7848285016115b6565b91505092915050565b6000819050919050565b611903816118f0565b82525050565b600060208201905061191e60008301846118fa565b92915050565b61192d8161186b565b811461193857600080fd5b50565b60008135905061194a81611924565b92915050565b6000806040838503121561196757611966611494565b5b60006119758582860161193b565b925050602083013567ffffffffffffffff81111561199657611995611499565b5b6119a2858286016115b6565b9150509250929050565b60008115159050919050565b6119c1816119ac565b82525050565b60006020820190506119dc60008301846119b8565b92915050565b6000602082840312156119f8576119f7611494565b5b6000611a068482850161193b565b91505092915050565b600081519050919050565b600081905092915050565b60005b83811015611a43578082015181840152602081019050611a28565b60008484015250505050565b6000611a5a82611a0f565b611a648185611a1a565b9350611a74818560208601611a25565b80840191505092915050565b6000611a8c8284611a4f565b915081905092915050565b7f4e487b7100000000000000000000000000000000000000000000000000000000600052602260045260246000fd5b60006002820490506001821680611ade57607f821691505b602082108103611af157611af0611a97565b5b50919050565b60008190508160005260206000209050919050565b60006020601f8301049050919050565b600082821b905092915050565b600060088302611b597fffffffffffffffffffffffffffffffffffffffffffffffffffffffffffffffff82611b1c565b611b638683611b1c565b95508019841693508086168417925050509392505050565b6000611b96611b91611b8c846118f0565b6117f1565b6118f0565b9050919050565b6000819050919050565b611bb083611b7b565b611bc4611bbc82611b9d565b848454611b29565b825550505050565b600090565b611bd9611bcc565b611be4818484611ba7565b505050565b5b81811015611c0857611bfd600082611bd1565b600181019050611bea565b5050565b601f821115611c4d57611c1e81611af7565b611c2784611b0c565b81016020851015611c36578190505b611c4a611c4285611b0c565b830182611be9565b50505b505050565b600082821c905092915050565b6000611c7060001984600802611c52565b1980831691505092915050565b6000611c898383611c5f565b9150826002028217905092915050565b611ca282611a0f565b67ffffffffffffffff811115611cbb57611cba6114b9565b5b611cc58254611ac6565b611cd0828285611c0c565b600060209050601f831160018114611d035760008415611cf1578287015190505b611cfb8582611c7d565b865550611d63565b601f198416611d1186611af7565b60005b82811015611d3957848901518255600182019150602085019450602081019050611d14565b86831015611d565784890151611d52601f891682611c5f565b8355505b6001600288020188555050505b505050505050565b600082825260208201905092915050565b7f53746f726167652055726c20697320656d707479000000000000000000000000600082015250565b6000611db2601483611d6b565b9150611dbd82611d7c565b602082019050919050565b60006020820190508181036000830152611de181611da5565b9050919050565b6000611df382611a0f565b611dfd8185611d6b565b9350611e0d818560208601611a25565b611e16816114a8565b840191505092915050565b60006020820190508181036000830152611e3b8184611de8565b905092915050565b7f4e487b7100000000000000000000000000000000000000000000000000000000600052603260045260246000fd5b600080fd5b600080fd5b6000611e8f611e8a84611534565b611519565b905082815260208101848484011115611eab57611eaa6114a3565b5b611eb6848285611a25565b509392505050565b600082601f830112611ed357611ed261149e565b5b8151611ee3848260208601611e7c565b91505092915050565b611ef5816118f0565b8114611f0057600080fd5b50565b600081519050611f1281611eec565b92915050565b600081519050611f2781611924565b92915050565b60048110611f3a57600080fd5b50565b600081519050611f4c81611f2d565b92915050565b600060808284031215611f6857611f67611e72565b5b611f726080611519565b90506000611f8284828501611f03565b600083015250602082015167ffffffffffffffff811115611fa657611fa5611e77565b5b611fb284828501611ebe565b6020830152506040611fc684828501611f03565b6040830152506060611fda84828501611f03565b60608301525092915050565b600060c08284031215611ffc57611ffb611e72565b5b61200660c0611519565b9050600082015167ffffffffffffffff81111561202657612025611e77565b5b61203284828501611ebe565b600083015250602061204684828501611f03565b602083015250604061205a84828501611f18565b604083015250606061206e84828501611f3d565b606083015250608082015167ffffffffffffffff81111561209257612091611e77565b5b61209e84828501611ebe565b60808301525060a082015167ffffffffffffffff8111156120c2576120c1611e77565b5b6120ce84828501611f52565b60a08301525092915050565b6000602082840312156120f0576120ef611494565b5b600082015167ffffffffffffffff81111561210e5761210d611499565b5b61211a84828501611fe6565b91505092915050565b7f4e487b7100000000000000000000000000000000000000000000000000000000600052601160045260246000fd5b600061215d826118f0565b9150612168836118f0565b92508282019050808211156121805761217f612123565b5b92915050565b600060a0828403121561219c5761219b611e72565b5b6121a660a0611519565b9050600082015167ffffffffffffffff8111156121c6576121c5611e77565b5b6121d284828501611ebe565b60008301525060206121e684828501611f03565b60208301525060406121fa84828501611f18565b604083015250606082015167ffffffffffffffff81111561221e5761221d611e77565b5b61222a84828501611ebe565b606083015250608082015167ffffffffffffffff81111561224e5761224d611e77565b5b61225a84828501611ebe565b60808301525092915050565b60006020828403121561227c5761227b611494565b5b600082015167ffffffffffffffff81111561229a57612299611499565b5b6122a684828501612186565b91505092915050565b7f596f752063616e277420636c61696d20776861742773206e6f7420796f75727360008201527f2100000000000000000000000000000000000000000000000000000000000000602082015250565b600061230b602183611d6b565b9150612316826122af565b604082019050919050565b6000602082019050818103600083015261233a816122fe565b9050919050565b7f4e6f7420656e6f7567682062616c616e63652100000000000000000000000000600082015250565b6000612377601383611d6b565b915061238282612341565b602082019050919050565b600060208201905081810360008301526123a68161236a565b9050919050565b600081546123ba81611ac6565b6123c48186611d6b565b945060018216600081146123df57600181146123f557612428565b60ff198316865281151560200286019350612428565b6123fe85611af7565b60005b8381101561242057815481890152600182019150602081019050612401565b808801955050505b50505092915050565b6000604082019050612446600083018561187d565b818103602083015261245881846123ad565b90509392505050565b60006020828403121561247757612476611494565b5b600061248584828501611f03565b91505092915050565b6000815461249b81611ac6565b6124a58186611a1a565b945060018216600081146124c057600181146124d557612508565b60ff1983168652811515820286019350612508565b6124de85611af7565b60005b83811015612500578154818901526001820191506020810190506124e1565b838801955050505b50505092915050565b600061251d828461248e565b915081905092915050565b600081905092915050565b50565b6000612543600083612528565b915061254e82612533565b600082019050919050565b600061256482612536565b9150819050919050565b7f4661696c656420746f2073656e642058545a2e00000000000000000000000000600082015250565b60006125a4601383611d6b565b91506125af8261256e565b602082019050919050565b600060208201905081810360008301526125d381612597565b905091905056fea2646970667358221220e1522ecf5d4feac96b876afa59bf03c3b81841b66418fc4dbdf4a411645bb6bf64736f6c6343000818003360806040523480156200001157600080fd5b50336040518060400160405280600681526020017f43523841727400000000000000000000000000000000000000000000000000008152506040518060400160405280600481526020017f4352384100000000000000000000000000000000000000000000000000000000815250816000908162000090919062000472565b508060019081620000a2919062000472565b505050600073ffffffffffffffffffffffffffffffffffffffff168173ffffffffffffffffffffffffffffffffffffffff16036200011a5760006040517f1e4fbdf70000000000000000000000000000000000000000000000000000000081526004016200011191906200059e565b60405180910390fd5b6200012b816200013260201b60201c565b50620005bb565b6000600760009054906101000a900473ffffffffffffffffffffffffffffffffffffffff16905081600760006101000a81548173ffffffffffffffffffffffffffffffffffffffff021916908373ffffffffffffffffffffffffffffffffffffffff1602179055508173ffffffffffffffffffffffffffffffffffffffff168173ffffffffffffffffffffffffffffffffffffffff167f8be0079c531659141344cd1fd0a4f28419497f9722a3daafe3b4186f6b6457e060405160405180910390a35050565b600081519050919050565b7f4e487b7100000000000000000000000000000000000000000000000000000000600052604160045260246000fd5b7f4e487b7100000000000000000000000000000000000000000000000000000000600052602260045260246000fd5b600060028204905060018216806200027a57607f821691505b60208210810362000290576200028f62000232565b5b50919050565b60008190508160005260206000209050919050565b60006020601f8301049050919050565b600082821b905092915050565b600060088302620002fa7fffffffffffffffffffffffffffffffffffffffffffffffffffffffffffffffff82620002bb565b620003068683620002bb565b95508019841693508086168417925050509392505050565b6000819050919050565b6000819050919050565b6000620003536200034d62000347846200031e565b62000328565b6200031e565b9050919050565b6000819050919050565b6200036f8362000332565b620003876200037e826200035a565b848454620002c8565b825550505050565b600090565b6200039e6200038f565b620003ab81848462000364565b505050565b5b81811015620003d357620003c760008262000394565b600181019050620003b1565b5050565b601f8211156200042257620003ec8162000296565b620003f784620002ab565b8101602085101562000407578190505b6200041f6200041685620002ab565b830182620003b0565b50505b505050565b600082821c905092915050565b6000620004476000198460080262000427565b1980831691505092915050565b600062000462838362000434565b9150826002028217905092915050565b6200047d82620001f8565b67ffffffffffffffff81111562000499576200049862000203565b5b620004a5825462000261565b620004b2828285620003d7565b600060209050601f831160018114620004ea5760008415620004d5578287015190505b620004e1858262000454565b86555062000551565b601f198416620004fa8662000296565b60005b828110156200052457848901518255600182019150602085019450602081019050620004fd565b8683101562000544578489015162000540601f89168262000434565b8355505b6001600288020188555050505b505050505050565b600073ffffffffffffffffffffffffffffffffffffffff82169050919050565b6000620005868262000559565b9050919050565b620005988162000579565b82525050565b6000602082019050620005b560008301846200058d565b92915050565b61267580620005cb6000396000f3fe608060405234801561001057600080fd5b506004361061010b5760003560e01c8063715018a6116100a2578063b88d4fde11610071578063b88d4fde146102a4578063c87b56dd146102c0578063d204c45e146102f0578063e985e9c514610320578063f2fde38b146103505761010b565b8063715018a6146102425780638da5cb5b1461024c57806395d89b411461026a578063a22cb465146102885761010b565b806323b872dd116100de57806323b872dd146101aa57806342842e0e146101c65780636352211e146101e257806370a08231146102125761010b565b806301ffc9a71461011057806306fdde0314610140578063081812fc1461015e578063095ea7b31461018e575b600080fd5b61012a60048036038101906101259190611acd565b61036c565b6040516101379190611b15565b60405180910390f35b6101486103cd565b6040516101559190611bc0565b60405180910390f35b61017860048036038101906101739190611c18565b61045f565b6040516101859190611c86565b60405180910390f35b6101a860048036038101906101a39190611ccd565b61047b565b005b6101c460048036038101906101bf9190611d0d565b610491565b005b6101e060048036038101906101db9190611d0d565b610593565b005b6101fc60048036038101906101f79190611c18565b6105b3565b6040516102099190611c86565b60405180910390f35b61022c60048036038101906102279190611d60565b6105c5565b6040516102399190611d9c565b60405180910390f35b61024a61067f565b005b610254610693565b6040516102619190611c86565b60405180910390f35b6102726106bd565b60405161027f9190611bc0565b60405180910390f35b6102a2600480360381019061029d9190611de3565b61074f565b005b6102be60048036038101906102b99190611f58565b610765565b005b6102da60048036038101906102d59190611c18565b610782565b6040516102e79190611bc0565b60405180910390f35b61030a6004803603810190610305919061207c565b610895565b6040516103179190611d9c565b60405180910390f35b61033a600480360381019061033591906120d8565b6108d8565b6040516103479190611b15565b60405180910390f35b61036a60048036038101906103659190611d60565b61096c565b005b6000634906490660e01b7bffffffffffffffffffffffffffffffffffffffffffffffffffffffff1916827bffffffffffffffffffffffffffffffffffffffffffffffffffffffff191614806103c657506103c5826109f2565b5b9050919050565b6060600080546103dc90612147565b80601f016020809104026020016040519081016040528092919081815260200182805461040890612147565b80156104555780601f1061042a57610100808354040283529160200191610455565b820191906000526020600020905b81548152906001019060200180831161043857829003601f168201915b5050505050905090565b600061046a82610ad4565b5061047482610b5c565b9050919050565b61048d8282610488610b99565b610ba1565b5050565b600073ffffffffffffffffffffffffffffffffffffffff168273ffffffffffffffffffffffffffffffffffffffff16036105035760006040517f64a0ae920000000000000000000000000000000000000000000000000000000081526004016104fa9190611c86565b60405180910390fd5b60006105178383610512610b99565b610bb3565b90508373ffffffffffffffffffffffffffffffffffffffff168173ffffffffffffffffffffffffffffffffffffffff161461058d578382826040517f64283d7b00000000000000000000000000000000000000000000000000000000815260040161058493929190612178565b60405180910390fd5b50505050565b6105ae83838360405180602001604052806000815250610765565b505050565b60006105be82610ad4565b9050919050565b60008073ffffffffffffffffffffffffffffffffffffffff168273ffffffffffffffffffffffffffffffffffffffff16036106385760006040517f89c62b6400000000000000000000000000000000000000000000000000000000815260040161062f9190611c86565b60405180910390fd5b600360008373ffffffffffffffffffffffffffffffffffffffff1673ffffffffffffffffffffffffffffffffffffffff168152602001908152602001600020549050919050565b610687610dcd565b6106916000610e54565b565b6000600760009054906101000a900473ffffffffffffffffffffffffffffffffffffffff16905090565b6060600180546106cc90612147565b80601f01602080910402602001604051908101604052809291908181526020018280546106f890612147565b80156107455780601f1061071a57610100808354040283529160200191610745565b820191906000526020600020905b81548152906001019060200180831161072857829003601f168201915b5050505050905090565b61076161075a610b99565b8383610f1a565b5050565b610770848484610491565b61077c84848484611089565b50505050565b606061078d82610ad4565b5060006006600084815260200190815260200160002080546107ae90612147565b80601f01602080910402602001604051908101604052809291908181526020018280546107da90612147565b80156108275780601f106107fc57610100808354040283529160200191610827565b820191906000526020600020905b81548152906001019060200180831161080a57829003601f168201915b505050505090506000610838611240565b9050600081510361084d578192505050610890565b60008251111561088257808260405160200161086a9291906121eb565b60405160208183030381529060405292505050610890565b61088b84611257565b925050505b919050565b600061089f610dcd565b6000600860008154809291906108b49061223e565b9190505590506108c484826112c0565b6108ce81846112de565b8091505092915050565b6000600560008473ffffffffffffffffffffffffffffffffffffffff1673ffffffffffffffffffffffffffffffffffffffff16815260200190815260200160002060008373ffffffffffffffffffffffffffffffffffffffff1673ffffffffffffffffffffffffffffffffffffffff16815260200190815260200160002060009054906101000a900460ff16905092915050565b610974610dcd565b600073ffffffffffffffffffffffffffffffffffffffff168173ffffffffffffffffffffffffffffffffffffffff16036109e65760006040517f1e4fbdf70000000000000000000000000000000000000000000000000000000081526004016109dd9190611c86565b60405180910390fd5b6109ef81610e54565b50565b60007f80ac58cd000000000000000000000000000000000000000000000000000000007bffffffffffffffffffffffffffffffffffffffffffffffffffffffff1916827bffffffffffffffffffffffffffffffffffffffffffffffffffffffff19161480610abd57507f5b5e139f000000000000000000000000000000000000000000000000000000007bffffffffffffffffffffffffffffffffffffffffffffffffffffffff1916827bffffffffffffffffffffffffffffffffffffffffffffffffffffffff1916145b80610acd5750610acc8261133a565b5b9050919050565b600080610ae0836113a4565b9050600073ffffffffffffffffffffffffffffffffffffffff168173ffffffffffffffffffffffffffffffffffffffff1603610b5357826040517f7e273289000000000000000000000000000000000000000000000000000000008152600401610b4a9190611d9c565b60405180910390fd5b80915050919050565b60006004600083815260200190815260200160002060009054906101000a900473ffffffffffffffffffffffffffffffffffffffff169050919050565b600033905090565b610bae83838360016113e1565b505050565b600080610bbf846113a4565b9050600073ffffffffffffffffffffffffffffffffffffffff168373ffffffffffffffffffffffffffffffffffffffff1614610c0157610c008184866115a6565b5b600073ffffffffffffffffffffffffffffffffffffffff168173ffffffffffffffffffffffffffffffffffffffff1614610c9257610c436000856000806113e1565b6001600360008373ffffffffffffffffffffffffffffffffffffffff1673ffffffffffffffffffffffffffffffffffffffff168152602001908152602001600020600082825403925050819055505b600073ffffffffffffffffffffffffffffffffffffffff168573ffffffffffffffffffffffffffffffffffffffff1614610d15576001600360008773ffffffffffffffffffffffffffffffffffffffff1673ffffffffffffffffffffffffffffffffffffffff168152602001908152602001600020600082825401925050819055505b846002600086815260200190815260200160002060006101000a81548173ffffffffffffffffffffffffffffffffffffffff021916908373ffffffffffffffffffffffffffffffffffffffff160217905550838573ffffffffffffffffffffffffffffffffffffffff168273ffffffffffffffffffffffffffffffffffffffff167fddf252ad1be2c89b69c2b068fc378daa952ba7f163c4a11628f55a4df523b3ef60405160405180910390a4809150509392505050565b610dd5610b99565b73ffffffffffffffffffffffffffffffffffffffff16610df3610693565b73ffffffffffffffffffffffffffffffffffffffff1614610e5257610e16610b99565b6040517f118cdaa7000000000000000000000000000000000000000000000000000000008152600401610e499190611c86565b60405180910390fd5b565b6000600760009054906101000a900473ffffffffffffffffffffffffffffffffffffffff16905081600760006101000a81548173ffffffffffffffffffffffffffffffffffffffff021916908373ffffffffffffffffffffffffffffffffffffffff1602179055508173ffffffffffffffffffffffffffffffffffffffff168173ffffffffffffffffffffffffffffffffffffffff167f8be0079c531659141344cd1fd0a4f28419497f9722a3daafe3b4186f6b6457e060405160405180910390a35050565b600073ffffffffffffffffffffffffffffffffffffffff168273ffffffffffffffffffffffffffffffffffffffff1603610f8b57816040517f5b08ba18000000000000000000000000000000000000000000000000000000008152600401610f829190611c86565b60405180910390fd5b80600560008573ffffffffffffffffffffffffffffffffffffffff1673ffffffffffffffffffffffffffffffffffffffff16815260200190815260200160002060008473ffffffffffffffffffffffffffffffffffffffff1673ffffffffffffffffffffffffffffffffffffffff16815260200190815260200160002060006101000a81548160ff0219169083151502179055508173ffffffffffffffffffffffffffffffffffffffff168373ffffffffffffffffffffffffffffffffffffffff167f17307eab39ab6107e8899845ad3d59bd9653f200f220920489ca2b5937696c318360405161107c9190611b15565b60405180910390a3505050565b60008373ffffffffffffffffffffffffffffffffffffffff163b111561123a578273ffffffffffffffffffffffffffffffffffffffff1663150b7a026110cd610b99565b8685856040518563ffffffff1660e01b81526004016110ef94939291906122db565b6020604051808303816000875af192505050801561112b57506040513d601f19601f82011682018060405250810190611128919061233c565b60015b6111af573d806000811461115b576040519150601f19603f3d011682016040523d82523d6000602084013e611160565b606091505b5060008151036111a757836040517f64a0ae9200000000000000000000000000000000000000000000000000000000815260040161119e9190611c86565b60405180910390fd5b805181602001fd5b63150b7a0260e01b7bffffffffffffffffffffffffffffffffffffffffffffffffffffffff1916817bffffffffffffffffffffffffffffffffffffffffffffffffffffffff19161461123857836040517f64a0ae9200000000000000000000000000000000000000000000000000000000815260040161122f9190611c86565b60405180910390fd5b505b50505050565b606060405180602001604052806000815250905090565b606061126282610ad4565b50600061126d611240565b9050600081511161128d57604051806020016040528060008152506112b8565b806112978461166a565b6040516020016112a89291906121eb565b6040516020818303038152906040525b915050919050565b6112da828260405180602001604052806000815250611738565b5050565b806006600084815260200190815260200160002090816112fe9190612515565b507ff8e1a15aba9398e019f0b49df1a4fde98ee17ae345cb5f6b5e2c27f5033e8ce78260405161132e9190611d9c565b60405180910390a15050565b60007f01ffc9a7000000000000000000000000000000000000000000000000000000007bffffffffffffffffffffffffffffffffffffffffffffffffffffffff1916827bffffffffffffffffffffffffffffffffffffffffffffffffffffffff1916149050919050565b60006002600083815260200190815260200160002060009054906101000a900473ffffffffffffffffffffffffffffffffffffffff169050919050565b808061141a5750600073ffffffffffffffffffffffffffffffffffffffff168273ffffffffffffffffffffffffffffffffffffffff1614155b1561154e57600061142a84610ad4565b9050600073ffffffffffffffffffffffffffffffffffffffff168373ffffffffffffffffffffffffffffffffffffffff161415801561149557508273ffffffffffffffffffffffffffffffffffffffff168173ffffffffffffffffffffffffffffffffffffffff1614155b80156114a857506114a681846108d8565b155b156114ea57826040517fa9fbf51f0000000000000000000000000000000000000000000000000000000081526004016114e19190611c86565b60405180910390fd5b811561154c57838573ffffffffffffffffffffffffffffffffffffffff168273ffffffffffffffffffffffffffffffffffffffff167f8c5be1e5ebec7d5bd14f71427d1e84f3dd0314c0f7b2291e5b200ac8c7c3b92560405160405180910390a45b505b836004600085815260200190815260200160002060006101000a81548173ffffffffffffffffffffffffffffffffffffffff021916908373ffffffffffffffffffffffffffffffffffffffff16021790555050505050565b6115b1838383611754565b61166557600073ffffffffffffffffffffffffffffffffffffffff168373ffffffffffffffffffffffffffffffffffffffff160361162657806040517f7e27328900000000000000000000000000000000000000000000000000000000815260040161161d9190611d9c565b60405180910390fd5b81816040517f177e802f00000000000000000000000000000000000000000000000000000000815260040161165c9291906125e7565b60405180910390fd5b505050565b60606000600161167984611815565b01905060008167ffffffffffffffff81111561169857611697611e2d565b5b6040519080825280601f01601f1916602001820160405280156116ca5781602001600182028036833780820191505090505b509050600082602001820190505b60011561172d578080600190039150507f3031323334353637383961626364656600000000000000000000000000000000600a86061a8153600a858161172157611720612610565b5b049450600085036116d8575b819350505050919050565b6117428383611968565b61174f6000848484611089565b505050565b60008073ffffffffffffffffffffffffffffffffffffffff168373ffffffffffffffffffffffffffffffffffffffff161415801561180c57508273ffffffffffffffffffffffffffffffffffffffff168473ffffffffffffffffffffffffffffffffffffffff1614806117cd57506117cc84846108d8565b5b8061180b57508273ffffffffffffffffffffffffffffffffffffffff166117f383610b5c565b73ffffffffffffffffffffffffffffffffffffffff16145b5b90509392505050565b600080600090507a184f03e93ff9f4daa797ed6e38ed64bf6a1f0100000000000000008310611873577a184f03e93ff9f4daa797ed6e38ed64bf6a1f010000000000000000838161186957611868612610565b5b0492506040810190505b6d04ee2d6d415b85acef810000000083106118b0576d04ee2d6d415b85acef810000000083816118a6576118a5612610565b5b0492506020810190505b662386f26fc1000083106118df57662386f26fc1000083816118d5576118d4612610565b5b0492506010810190505b6305f5e1008310611908576305f5e10083816118fe576118fd612610565b5b0492506008810190505b612710831061192d57612710838161192357611922612610565b5b0492506004810190505b60648310611950576064838161194657611945612610565b5b0492506002810190505b600a831061195f576001810190505b80915050919050565b600073ffffffffffffffffffffffffffffffffffffffff168273ffffffffffffffffffffffffffffffffffffffff16036119da5760006040517f64a0ae920000000000000000000000000000000000000000000000000000000081526004016119d19190611c86565b60405180910390fd5b60006119e883836000610bb3565b9050600073ffffffffffffffffffffffffffffffffffffffff168173ffffffffffffffffffffffffffffffffffffffff1614611a5c5760006040517f73c6ac6e000000000000000000000000000000000000000000000000000000008152600401611a539190611c86565b60405180910390fd5b505050565b6000604051905090565b600080fd5b600080fd5b60007fffffffff0000000000000000000000000000000000000000000000000000000082169050919050565b611aaa81611a75565b8114611ab557600080fd5b50565b600081359050611ac781611aa1565b92915050565b600060208284031215611ae357611ae2611a6b565b5b6000611af184828501611ab8565b91505092915050565b60008115159050919050565b611b0f81611afa565b82525050565b6000602082019050611b2a6000830184611b06565b92915050565b600081519050919050565b600082825260208201905092915050565b60005b83811015611b6a578082015181840152602081019050611b4f565b60008484015250505050565b6000601f19601f8301169050919050565b6000611b9282611b30565b611b9c8185611b3b565b9350611bac818560208601611b4c565b611bb581611b76565b840191505092915050565b60006020820190508181036000830152611bda8184611b87565b905092915050565b6000819050919050565b611bf581611be2565b8114611c0057600080fd5b50565b600081359050611c1281611bec565b92915050565b600060208284031215611c2e57611c2d611a6b565b5b6000611c3c84828501611c03565b91505092915050565b600073ffffffffffffffffffffffffffffffffffffffff82169050919050565b6000611c7082611c45565b9050919050565b611c8081611c65565b82525050565b6000602082019050611c9b6000830184611c77565b92915050565b611caa81611c65565b8114611cb557600080fd5b50565b600081359050611cc781611ca1565b92915050565b60008060408385031215611ce457611ce3611a6b565b5b6000611cf285828601611cb8565b9250506020611d0385828601611c03565b9150509250929050565b600080600060608486031215611d2657611d25611a6b565b5b6000611d3486828701611cb8565b9350506020611d4586828701611cb8565b9250506040611d5686828701611c03565b9150509250925092565b600060208284031215611d7657611d75611a6b565b5b6000611d8484828501611cb8565b91505092915050565b611d9681611be2565b82525050565b6000602082019050611db16000830184611d8d565b92915050565b611dc081611afa565b8114611dcb57600080fd5b50565b600081359050611ddd81611db7565b92915050565b60008060408385031215611dfa57611df9611a6b565b5b6000611e0885828601611cb8565b9250506020611e1985828601611dce565b9150509250929050565b600080fd5b600080fd5b7f4e487b7100000000000000000000000000000000000000000000000000000000600052604160045260246000fd5b611e6582611b76565b810181811067ffffffffffffffff82111715611e8457611e83611e2d565b5b80604052505050565b6000611e97611a61565b9050611ea38282611e5c565b919050565b600067ffffffffffffffff821115611ec357611ec2611e2d565b5b611ecc82611b76565b9050602081019050919050565b82818337600083830152505050565b6000611efb611ef684611ea8565b611e8d565b905082815260208101848484011115611f1757611f16611e28565b5b611f22848285611ed9565b509392505050565b600082601f830112611f3f57611f3e611e23565b5b8135611f4f848260208601611ee8565b91505092915050565b60008060008060808587031215611f7257611f71611a6b565b5b6000611f8087828801611cb8565b9450506020611f9187828801611cb8565b9350506040611fa287828801611c03565b925050606085013567ffffffffffffffff811115611fc357611fc2611a70565b5b611fcf87828801611f2a565b91505092959194509250565b600067ffffffffffffffff821115611ff657611ff5611e2d565b5b611fff82611b76565b9050602081019050919050565b600061201f61201a84611fdb565b611e8d565b90508281526020810184848401111561203b5761203a611e28565b5b612046848285611ed9565b509392505050565b600082601f83011261206357612062611e23565b5b813561207384826020860161200c565b91505092915050565b6000806040838503121561209357612092611a6b565b5b60006120a185828601611cb8565b925050602083013567ffffffffffffffff8111156120c2576120c1611a70565b5b6120ce8582860161204e565b9150509250929050565b600080604083850312156120ef576120ee611a6b565b5b60006120fd85828601611cb8565b925050602061210e85828601611cb8565b9150509250929050565b7f4e487b7100000000000000000000000000000000000000000000000000000000600052602260045260246000fd5b6000600282049050600182168061215f57607f821691505b60208210810361217257612171612118565b5b50919050565b600060608201905061218d6000830186611c77565b61219a6020830185611d8d565b6121a76040830184611c77565b949350505050565b600081905092915050565b60006121c582611b30565b6121cf81856121af565b93506121df818560208601611b4c565b80840191505092915050565b60006121f782856121ba565b915061220382846121ba565b91508190509392505050565b7f4e487b7100000000000000000000000000000000000000000000000000000000600052601160045260246000fd5b600061224982611be2565b91507fffffffffffffffffffffffffffffffffffffffffffffffffffffffffffffffff820361227b5761227a61220f565b5b600182019050919050565b600081519050919050565b600082825260208201905092915050565b60006122ad82612286565b6122b78185612291565b93506122c7818560208601611b4c565b6122d081611b76565b840191505092915050565b60006080820190506122f06000830187611c77565b6122fd6020830186611c77565b61230a6040830185611d8d565b818103606083015261231c81846122a2565b905095945050505050565b60008151905061233681611aa1565b92915050565b60006020828403121561235257612351611a6b565b5b600061236084828501612327565b91505092915050565b60008190508160005260206000209050919050565b60006020601f8301049050919050565b600082821b905092915050565b6000600883026123cb7fffffffffffffffffffffffffffffffffffffffffffffffffffffffffffffffff8261238e565b6123d5868361238e565b95508019841693508086168417925050509392505050565b6000819050919050565b600061241261240d61240884611be2565b6123ed565b611be2565b9050919050565b6000819050919050565b61242c836123f7565b61244061243882612419565b84845461239b565b825550505050565b600090565b612455612448565b612460818484612423565b505050565b5b818110156124845761247960008261244d565b600181019050612466565b5050565b601f8211156124c95761249a81612369565b6124a38461237e565b810160208510156124b2578190505b6124c66124be8561237e565b830182612465565b50505b505050565b600082821c905092915050565b60006124ec600019846008026124ce565b1980831691505092915050565b600061250583836124db565b9150826002028217905092915050565b61251e82611b30565b67ffffffffffffffff81111561253757612536611e2d565b5b6125418254612147565b61254c828285612488565b600060209050601f83116001811461257f576000841561256d578287015190505b61257785826124f9565b8655506125df565b601f19841661258d86612369565b60005b828110156125b557848901518255600182019150602085019450602081019050612590565b868310156125d257848901516125ce601f8916826124db565b8355505b6001600288020188555050505b505050505050565b60006040820190506125fc6000830185611c77565b6126096020830184611d8d565b9392505050565b7f4e487b7100000000000000000000000000000000000000000000000000000000600052601260045260246000fdfea26469706673582212201298dd16ce7b4703f306a50590f1c60c13e6b079a9a468ed774a42a0fd23f0a664736f6c63430008180033",
  "linkReferences": {},
  "deployedLinkReferences": {}
}