{
  "_format": "hh-sol-artifact-1",
  "contractName": "ArtCreation",
  "sourceName": "contracts/ArtCreation.sol",
  "abi": [
    {
      "inputs": [
        {
          "internalType": "uint256[]",
          "name": "datasetIds",
          "type": "uint256[]"
        },
        {
          "internalType": "uint256[]",
          "name": "modelIds",
          "type": "uint256[]"
        },
        {
          "internalType": "string",
          "name": "prompt",
          "type": "string"
        }
      ],
      "stateMutability": "nonpayable",
      "type": "constructor"
    },
    {
      "inputs": [
        {
          "internalType": "address",
          "name": "sender",
          "type": "address"
        },
        {
          "internalType": "uint256",
          "name": "tokenId",
          "type": "uint256"
        },
        {
          "internalType": "address",
          "name": "owner",
          "type": "address"
        }
      ],
      "name": "ERC721IncorrectOwner",
      "type": "error"
    },
    {
      "inputs": [
        {
          "internalType": "address",
          "name": "operator",
          "type": "address"
        },
        {
          "internalType": "uint256",
          "name": "tokenId",
          "type": "uint256"
        }
      ],
      "name": "ERC721InsufficientApproval",
      "type": "error"
    },
    {
      "inputs": [
        {
          "internalType": "address",
          "name": "approver",
          "type": "address"
        }
      ],
      "name": "ERC721InvalidApprover",
      "type": "error"
    },
    {
      "inputs": [
        {
          "internalType": "address",
          "name": "operator",
          "type": "address"
        }
      ],
      "name": "ERC721InvalidOperator",
      "type": "error"
    },
    {
      "inputs": [
        {
          "internalType": "address",
          "name": "owner",
          "type": "address"
        }
      ],
      "name": "ERC721InvalidOwner",
      "type": "error"
    },
    {
      "inputs": [
        {
          "internalType": "address",
          "name": "receiver",
          "type": "address"
        }
      ],
      "name": "ERC721InvalidReceiver",
      "type": "error"
    },
    {
      "inputs": [
        {
          "internalType": "address",
          "name": "sender",
          "type": "address"
        }
      ],
      "name": "ERC721InvalidSender",
      "type": "error"
    },
    {
      "inputs": [
        {
          "internalType": "uint256",
          "name": "tokenId",
          "type": "uint256"
        }
      ],
      "name": "ERC721NonexistentToken",
      "type": "error"
    },
    {
      "inputs": [
        {
          "internalType": "address",
          "name": "owner",
          "type": "address"
        }
      ],
      "name": "OwnableInvalidOwner",
      "type": "error"
    },
    {
      "inputs": [
        {
          "internalType": "address",
          "name": "account",
          "type": "address"
        }
      ],
      "name": "OwnableUnauthorizedAccount",
      "type": "error"
    },
    {
      "anonymous": false,
      "inputs": [
        {
          "indexed": true,
          "internalType": "address",
          "name": "owner",
          "type": "address"
        },
        {
          "indexed": true,
          "internalType": "address",
          "name": "approved",
          "type": "address"
        },
        {
          "indexed": true,
          "internalType": "uint256",
          "name": "tokenId",
          "type": "uint256"
        }
      ],
      "name": "Approval",
      "type": "event"
    },
    {
      "anonymous": false,
      "inputs": [
        {
          "indexed": true,
          "internalType": "address",
          "name": "owner",
          "type": "address"
        },
        {
          "indexed": true,
          "internalType": "address",
          "name": "operator",
          "type": "address"
        },
        {
          "indexed": false,
          "internalType": "bool",
          "name": "approved",
          "type": "bool"
        }
      ],
      "name": "ApprovalForAll",
      "type": "event"
    },
    {
      "anonymous": false,
      "inputs": [
        {
          "indexed": false,
          "internalType": "uint256",
          "name": "_fromTokenId",
          "type": "uint256"
        },
        {
          "indexed": false,
          "internalType": "uint256",
          "name": "_toTokenId",
          "type": "uint256"
        }
      ],
      "name": "BatchMetadataUpdate",
      "type": "event"
    },
    {
      "anonymous": false,
      "inputs": [
        {
          "indexed": false,
          "internalType": "uint256",
          "name": "_tokenId",
          "type": "uint256"
        }
      ],
      "name": "MetadataUpdate",
      "type": "event"
    },
    {
      "anonymous": false,
      "inputs": [
        {
          "indexed": true,
          "internalType": "address",
          "name": "previousOwner",
          "type": "address"
        },
        {
          "indexed": true,
          "internalType": "address",
          "name": "newOwner",
          "type": "address"
        }
      ],
      "name": "OwnershipTransferred",
      "type": "event"
    },
    {
      "anonymous": false,
      "inputs": [
        {
          "indexed": true,
          "internalType": "address",
          "name": "from",
          "type": "address"
        },
        {
          "indexed": true,
          "internalType": "address",
          "name": "to",
          "type": "address"
        },
        {
          "indexed": true,
          "internalType": "uint256",
          "name": "tokenId",
          "type": "uint256"
        }
      ],
      "name": "Transfer",
      "type": "event"
    },
    {
      "inputs": [],
      "name": "_calculateTotalProvidersFees",
      "outputs": [
        {
          "internalType": "uint256",
          "name": "",
          "type": "uint256"
        }
      ],
      "stateMutability": "view",
      "type": "function"
    },
    {
      "inputs": [
        {
          "internalType": "address",
          "name": "to",
          "type": "address"
        },
        {
          "internalType": "uint256",
          "name": "tokenId",
          "type": "uint256"
        }
      ],
      "name": "approve",
      "outputs": [],
      "stateMutability": "nonpayable",
      "type": "function"
    },
    {
      "inputs": [
        {
          "internalType": "address",
          "name": "owner",
          "type": "address"
        }
      ],
      "name": "balanceOf",
      "outputs": [
        {
          "internalType": "uint256",
          "name": "",
          "type": "uint256"
        }
      ],
      "stateMutability": "view",
      "type": "function"
    },
    {
      "inputs": [
        {
          "internalType": "uint256",
          "name": "tokenId",
          "type": "uint256"
        }
      ],
      "name": "getApproved",
      "outputs": [
        {
          "internalType": "address",
          "name": "",
          "type": "address"
        }
      ],
      "stateMutability": "view",
      "type": "function"
    },
    {
      "inputs": [
        {
          "internalType": "address",
          "name": "owner",
          "type": "address"
        },
        {
          "internalType": "address",
          "name": "operator",
          "type": "address"
        }
      ],
      "name": "isApprovedForAll",
      "outputs": [
        {
          "internalType": "bool",
          "name": "",
          "type": "bool"
        }
      ],
      "stateMutability": "view",
      "type": "function"
    },
    {
      "inputs": [],
      "name": "name",
      "outputs": [
        {
          "internalType": "string",
          "name": "",
          "type": "string"
        }
      ],
      "stateMutability": "view",
      "type": "function"
    },
    {
      "inputs": [],
      "name": "owner",
      "outputs": [
        {
          "internalType": "address",
          "name": "",
          "type": "address"
        }
      ],
      "stateMutability": "view",
      "type": "function"
    },
    {
      "inputs": [
        {
          "internalType": "uint256",
          "name": "tokenId",
          "type": "uint256"
        }
      ],
      "name": "ownerOf",
      "outputs": [
        {
          "internalType": "address",
          "name": "",
          "type": "address"
        }
      ],
      "stateMutability": "view",
      "type": "function"
    },
    {
      "inputs": [],
      "name": "payFee",
      "outputs": [],
      "stateMutability": "payable",
      "type": "function"
    },
    {
      "inputs": [],
      "name": "recieve",
      "outputs": [],
      "stateMutability": "payable",
      "type": "function"
    },
    {
      "inputs": [],
      "name": "renounceOwnership",
      "outputs": [],
      "stateMutability": "nonpayable",
      "type": "function"
    },
    {
      "inputs": [
        {
          "internalType": "address",
          "name": "from",
          "type": "address"
        },
        {
          "internalType": "address",
          "name": "to",
          "type": "address"
        },
        {
          "internalType": "uint256",
          "name": "tokenId",
          "type": "uint256"
        }
      ],
      "name": "safeTransferFrom",
      "outputs": [],
      "stateMutability": "nonpayable",
      "type": "function"
    },
    {
      "inputs": [
        {
          "internalType": "address",
          "name": "from",
          "type": "address"
        },
        {
          "internalType": "address",
          "name": "to",
          "type": "address"
        },
        {
          "internalType": "uint256",
          "name": "tokenId",
          "type": "uint256"
        },
        {
          "internalType": "bytes",
          "name": "data",
          "type": "bytes"
        }
      ],
      "name": "safeTransferFrom",
      "outputs": [],
      "stateMutability": "nonpayable",
      "type": "function"
    },
    {
      "inputs": [
        {
          "internalType": "address",
          "name": "operator",
          "type": "address"
        },
        {
          "internalType": "bool",
          "name": "approved",
          "type": "bool"
        }
      ],
      "name": "setApprovalForAll",
      "outputs": [],
      "stateMutability": "nonpayable",
      "type": "function"
    },
    {
      "inputs": [
        {
          "internalType": "bytes4",
          "name": "interfaceId",
          "type": "bytes4"
        }
      ],
      "name": "supportsInterface",
      "outputs": [
        {
          "internalType": "bool",
          "name": "",
          "type": "bool"
        }
      ],
      "stateMutability": "view",
      "type": "function"
    },
    {
      "inputs": [],
      "name": "symbol",
      "outputs": [
        {
          "internalType": "string",
          "name": "",
          "type": "string"
        }
      ],
      "stateMutability": "view",
      "type": "function"
    },
    {
      "inputs": [
        {
          "internalType": "uint256",
          "name": "tokenId",
          "type": "uint256"
        }
      ],
      "name": "tokenURI",
      "outputs": [
        {
          "internalType": "string",
          "name": "",
          "type": "string"
        }
      ],
      "stateMutability": "view",
      "type": "function"
    },
    {
      "inputs": [
        {
          "internalType": "address",
          "name": "from",
          "type": "address"
        },
        {
          "internalType": "address",
          "name": "to",
          "type": "address"
        },
        {
          "internalType": "uint256",
          "name": "tokenId",
          "type": "uint256"
        }
      ],
      "name": "transferFrom",
      "outputs": [],
      "stateMutability": "nonpayable",
      "type": "function"
    },
    {
      "inputs": [
        {
          "internalType": "address",
          "name": "newOwner",
          "type": "address"
        }
      ],
      "name": "transferOwnership",
      "outputs": [],
      "stateMutability": "nonpayable",
      "type": "function"
    }
  ],
  "bytecode": "0x60806040523480156200001157600080fd5b506040516200387638038062003876833981810160405281019062000037919062000679565b336040518060400160405280600681526020017f43523841727400000000000000000000000000000000000000000000000000008152506040518060400160405280600381526020017f43523800000000000000000000000000000000000000000000000000000000008152508160009081620000b5919062000973565b508060019081620000c7919062000973565b505050600073ffffffffffffffffffffffffffffffffffffffff168173ffffffffffffffffffffffffffffffffffffffff16036200013f5760006040517f1e4fbdf700000000000000000000000000000000000000000000000000000000815260040162000136919062000a9f565b60405180910390fd5b62000150816200029960201b60201c565b506040518060a001604052803373ffffffffffffffffffffffffffffffffffffffff16815260200184815260200183815260200182815260200160001515815250600960003373ffffffffffffffffffffffffffffffffffffffff1673ffffffffffffffffffffffffffffffffffffffff16815260200190815260200160002060008201518160000160006101000a81548173ffffffffffffffffffffffffffffffffffffffff021916908373ffffffffffffffffffffffffffffffffffffffff1602179055506020820151816001019080519060200190620002359291906200035f565b506040820151816002019080519060200190620002549291906200035f565b5060608201518160030190816200026c919062000973565b5060808201518160040160006101000a81548160ff02191690831515021790555090505050505062000abc565b6000600760009054906101000a900473ffffffffffffffffffffffffffffffffffffffff16905081600760006101000a81548173ffffffffffffffffffffffffffffffffffffffff021916908373ffffffffffffffffffffffffffffffffffffffff1602179055508173ffffffffffffffffffffffffffffffffffffffff168173ffffffffffffffffffffffffffffffffffffffff167f8be0079c531659141344cd1fd0a4f28419497f9722a3daafe3b4186f6b6457e060405160405180910390a35050565b8280548282559060005260206000209081019282156200039e579160200282015b828111156200039d57825182559160200191906001019062000380565b5b509050620003ad9190620003b1565b5090565b5b80821115620003cc576000816000905550600101620003b2565b5090565b6000604051905090565b600080fd5b600080fd5b600080fd5b6000601f19601f8301169050919050565b7f4e487b7100000000000000000000000000000000000000000000000000000000600052604160045260246000fd5b6200043482620003e9565b810181811067ffffffffffffffff82111715620004565762000455620003fa565b5b80604052505050565b60006200046b620003d0565b905062000479828262000429565b919050565b600067ffffffffffffffff8211156200049c576200049b620003fa565b5b602082029050602081019050919050565b600080fd5b6000819050919050565b620004c781620004b2565b8114620004d357600080fd5b50565b600081519050620004e781620004bc565b92915050565b600062000504620004fe846200047e565b6200045f565b905080838252602082019050602084028301858111156200052a5762000529620004ad565b5b835b81811015620005575780620005428882620004d6565b8452602084019350506020810190506200052c565b5050509392505050565b600082601f830112620005795762000578620003e4565b5b81516200058b848260208601620004ed565b91505092915050565b600080fd5b600067ffffffffffffffff821115620005b757620005b6620003fa565b5b620005c282620003e9565b9050602081019050919050565b60005b83811015620005ef578082015181840152602081019050620005d2565b60008484015250505050565b6000620006126200060c8462000599565b6200045f565b90508281526020810184848401111562000631576200063062000594565b5b6200063e848285620005cf565b509392505050565b600082601f8301126200065e576200065d620003e4565b5b815162000670848260208601620005fb565b91505092915050565b600080600060608486031215620006955762000694620003da565b5b600084015167ffffffffffffffff811115620006b657620006b5620003df565b5b620006c48682870162000561565b935050602084015167ffffffffffffffff811115620006e857620006e7620003df565b5b620006f68682870162000561565b925050604084015167ffffffffffffffff8111156200071a5762000719620003df565b5b620007288682870162000646565b9150509250925092565b600081519050919050565b7f4e487b7100000000000000000000000000000000000000000000000000000000600052602260045260246000fd5b600060028204905060018216806200078557607f821691505b6020821081036200079b576200079a6200073d565b5b50919050565b60008190508160005260206000209050919050565b60006020601f8301049050919050565b600082821b905092915050565b600060088302620008057fffffffffffffffffffffffffffffffffffffffffffffffffffffffffffffffff82620007c6565b620008118683620007c6565b95508019841693508086168417925050509392505050565b6000819050919050565b6000620008546200084e6200084884620004b2565b62000829565b620004b2565b9050919050565b6000819050919050565b620008708362000833565b620008886200087f826200085b565b848454620007d3565b825550505050565b600090565b6200089f62000890565b620008ac81848462000865565b505050565b5b81811015620008d457620008c860008262000895565b600181019050620008b2565b5050565b601f8211156200092357620008ed81620007a1565b620008f884620007b6565b8101602085101562000908578190505b620009206200091785620007b6565b830182620008b1565b50505b505050565b600082821c905092915050565b6000620009486000198460080262000928565b1980831691505092915050565b600062000963838362000935565b9150826002028217905092915050565b6200097e8262000732565b67ffffffffffffffff8111156200099a5762000999620003fa565b5b620009a682546200076c565b620009b3828285620008d8565b600060209050601f831160018114620009eb5760008415620009d6578287015190505b620009e2858262000955565b86555062000a52565b601f198416620009fb86620007a1565b60005b8281101562000a2557848901518255600182019150602085019450602081019050620009fe565b8683101562000a45578489015162000a41601f89168262000935565b8355505b6001600288020188555050505b505050505050565b600073ffffffffffffffffffffffffffffffffffffffff82169050919050565b600062000a878262000a5a565b9050919050565b62000a998162000a7a565b82525050565b600060208201905062000ab6600083018462000a8e565b92915050565b612daa8062000acc6000396000f3fe6080604052600436106101145760003560e01c8063715018a6116100a0578063b88d4fde11610064578063b88d4fde1461035d578063c87b56dd14610386578063e985e9c5146103c3578063ec93bddb14610400578063f2fde38b1461042b57610114565b8063715018a6146102bd5780638da5cb5b146102d457806395d89b41146102ff578063a22cb4651461032a578063a9e10bf21461035357610114565b806323b872dd116100e757806323b872dd146101e7578063296102521461021057806342842e0e1461021a5780636352211e1461024357806370a082311461028057610114565b806301ffc9a71461011957806306fdde0314610156578063081812fc14610181578063095ea7b3146101be575b600080fd5b34801561012557600080fd5b50610140600480360381019061013b919061217e565b610454565b60405161014d91906121c6565b60405180910390f35b34801561016257600080fd5b5061016b6104b5565b6040516101789190612271565b60405180910390f35b34801561018d57600080fd5b506101a860048036038101906101a391906122c9565b610547565b6040516101b59190612337565b60405180910390f35b3480156101ca57600080fd5b506101e560048036038101906101e0919061237e565b610563565b005b3480156101f357600080fd5b5061020e600480360381019061020991906123be565b610579565b005b61021861067b565b005b34801561022657600080fd5b50610241600480360381019061023c91906123be565b610741565b005b34801561024f57600080fd5b5061026a600480360381019061026591906122c9565b610761565b6040516102779190612337565b60405180910390f35b34801561028c57600080fd5b506102a760048036038101906102a29190612411565b610773565b6040516102b4919061244d565b60405180910390f35b3480156102c957600080fd5b506102d261082d565b005b3480156102e057600080fd5b506102e9610841565b6040516102f69190612337565b60405180910390f35b34801561030b57600080fd5b5061031461086b565b6040516103219190612271565b60405180910390f35b34801561033657600080fd5b50610351600480360381019061034c9190612494565b6108fd565b005b61035b610913565b005b34801561036957600080fd5b50610384600480360381019061037f9190612609565b610915565b005b34801561039257600080fd5b506103ad60048036038101906103a891906122c9565b610932565b6040516103ba9190612271565b60405180910390f35b3480156103cf57600080fd5b506103ea60048036038101906103e5919061268c565b610a45565b6040516103f791906121c6565b60405180910390f35b34801561040c57600080fd5b50610415610ad9565b604051610422919061244d565b60405180910390f35b34801561043757600080fd5b50610452600480360381019061044d9190612411565b610c87565b005b6000634906490660e01b7bffffffffffffffffffffffffffffffffffffffffffffffffffffffff1916827bffffffffffffffffffffffffffffffffffffffffffffffffffffffff191614806104ae57506104ad82610d0d565b5b9050919050565b6060600080546104c4906126fb565b80601f01602080910402602001604051908101604052809291908181526020018280546104f0906126fb565b801561053d5780601f106105125761010080835404028352916020019161053d565b820191906000526020600020905b81548152906001019060200180831161052057829003601f168201915b5050505050905090565b600061055282610def565b5061055c82610e77565b9050919050565b6105758282610570610eb4565b610ebc565b5050565b600073ffffffffffffffffffffffffffffffffffffffff168273ffffffffffffffffffffffffffffffffffffffff16036105eb5760006040517f64a0ae920000000000000000000000000000000000000000000000000000000081526004016105e29190612337565b60405180910390fd5b60006105ff83836105fa610eb4565b610ece565b90508373ffffffffffffffffffffffffffffffffffffffff168173ffffffffffffffffffffffffffffffffffffffff1614610675578382826040517f64283d7b00000000000000000000000000000000000000000000000000000000815260040161066c9392919061272c565b60405180910390fd5b50505050565b6000610686336110e8565b90506000610692610ad9565b905081816106a09190612792565b34116106e1576040517f08c379a00000000000000000000000000000000000000000000000000000000081526004016106d890612812565b60405180910390fd5b6106f582826106f09190612792565b6110f3565b610734336040518060400160405280600881526020017f746f6b656e5552490000000000000000000000000000000000000000000000008152506111a6565b5061073d6111e0565b5050565b61075c83838360405180602001604052806000815250610915565b505050565b600061076c82610def565b9050919050565b60008073ffffffffffffffffffffffffffffffffffffffff168273ffffffffffffffffffffffffffffffffffffffff16036107e65760006040517f89c62b640000000000000000000000000000000000000000000000000000000081526004016107dd9190612337565b60405180910390fd5b600360008373ffffffffffffffffffffffffffffffffffffffff1673ffffffffffffffffffffffffffffffffffffffff168152602001908152602001600020549050919050565b61083561147a565b61083f6000611501565b565b6000600760009054906101000a900473ffffffffffffffffffffffffffffffffffffffff16905090565b60606001805461087a906126fb565b80601f01602080910402602001604051908101604052809291908181526020018280546108a6906126fb565b80156108f35780601f106108c8576101008083540402835291602001916108f3565b820191906000526020600020905b8154815290600101906020018083116108d657829003601f168201915b5050505050905090565b61090f610908610eb4565b83836115c7565b5050565b565b610920848484610579565b61092c84848484611736565b50505050565b606061093d82610def565b50600060066000848152602001908152602001600020805461095e906126fb565b80601f016020809104026020016040519081016040528092919081815260200182805461098a906126fb565b80156109d75780601f106109ac576101008083540402835291602001916109d7565b820191906000526020600020905b8154815290600101906020018083116109ba57829003601f168201915b5050505050905060006109e86118ed565b905060008151036109fd578192505050610a40565b600082511115610a32578082604051602001610a1a92919061286e565b60405160208183030381529060405292505050610a40565b610a3b84611904565b925050505b919050565b6000600560008473ffffffffffffffffffffffffffffffffffffffff1673ffffffffffffffffffffffffffffffffffffffff16815260200190815260200160002060008373ffffffffffffffffffffffffffffffffffffffff1673ffffffffffffffffffffffffffffffffffffffff16815260200190815260200160002060009054906101000a900460ff16905092915050565b6000806000905060005b600960003373ffffffffffffffffffffffffffffffffffffffff1673ffffffffffffffffffffffffffffffffffffffff168152602001908152602001600020600101805490508111610baf57600960003373ffffffffffffffffffffffffffffffffffffffff1673ffffffffffffffffffffffffffffffffffffffff1681526020019081526020016000206001018181548110610b8357610b82612892565b5b906000526020600020015482610b999190612792565b9150600181610ba89190612792565b9050610ae3565b5060005b600960003373ffffffffffffffffffffffffffffffffffffffff1673ffffffffffffffffffffffffffffffffffffffff168152602001908152602001600020600201805490508111610c7f57600960003373ffffffffffffffffffffffffffffffffffffffff1673ffffffffffffffffffffffffffffffffffffffff1681526020019081526020016000206002018181548110610c5357610c52612892565b5b906000526020600020015482610c699190612792565b9150600181610c789190612792565b9050610bb3565b508091505090565b610c8f61147a565b600073ffffffffffffffffffffffffffffffffffffffff168173ffffffffffffffffffffffffffffffffffffffff1603610d015760006040517f1e4fbdf7000000000000000000000000000000000000000000000000000000008152600401610cf89190612337565b60405180910390fd5b610d0a81611501565b50565b60007f80ac58cd000000000000000000000000000000000000000000000000000000007bffffffffffffffffffffffffffffffffffffffffffffffffffffffff1916827bffffffffffffffffffffffffffffffffffffffffffffffffffffffff19161480610dd857507f5b5e139f000000000000000000000000000000000000000000000000000000007bffffffffffffffffffffffffffffffffffffffffffffffffffffffff1916827bffffffffffffffffffffffffffffffffffffffffffffffffffffffff1916145b80610de85750610de78261196d565b5b9050919050565b600080610dfb836119d7565b9050600073ffffffffffffffffffffffffffffffffffffffff168173ffffffffffffffffffffffffffffffffffffffff1603610e6e57826040517f7e273289000000000000000000000000000000000000000000000000000000008152600401610e65919061244d565b60405180910390fd5b80915050919050565b60006004600083815260200190815260200160002060009054906101000a900473ffffffffffffffffffffffffffffffffffffffff169050919050565b600033905090565b610ec98383836001611a14565b505050565b600080610eda846119d7565b9050600073ffffffffffffffffffffffffffffffffffffffff168373ffffffffffffffffffffffffffffffffffffffff1614610f1c57610f1b818486611bd9565b5b600073ffffffffffffffffffffffffffffffffffffffff168173ffffffffffffffffffffffffffffffffffffffff1614610fad57610f5e600085600080611a14565b6001600360008373ffffffffffffffffffffffffffffffffffffffff1673ffffffffffffffffffffffffffffffffffffffff168152602001908152602001600020600082825403925050819055505b600073ffffffffffffffffffffffffffffffffffffffff168573ffffffffffffffffffffffffffffffffffffffff1614611030576001600360008773ffffffffffffffffffffffffffffffffffffffff1673ffffffffffffffffffffffffffffffffffffffff168152602001908152602001600020600082825401925050819055505b846002600086815260200190815260200160002060006101000a81548173ffffffffffffffffffffffffffffffffffffffff021916908373ffffffffffffffffffffffffffffffffffffffff160217905550838573ffffffffffffffffffffffffffffffffffffffff168273ffffffffffffffffffffffffffffffffffffffff167fddf252ad1be2c89b69c2b068fc378daa952ba7f163c4a11628f55a4df523b3ef60405160405180910390a4809150509392505050565b600060029050919050565b6000803073ffffffffffffffffffffffffffffffffffffffff168360405161111a906128f2565b60006040518083038185875af1925050503d8060008114611157576040519150601f19603f3d011682016040523d82523d6000602084013e61115c565b606091505b5091509150816111a1576040517f08c379a000000000000000000000000000000000000000000000000000000000815260040161119890612953565b60405180910390fd5b505050565b600080600860008154809291906111bc90612973565b9190505590506111cc8482611c9d565b6111d68184611cbb565b8091505092915050565b6000600960003373ffffffffffffffffffffffffffffffffffffffff1673ffffffffffffffffffffffffffffffffffffffff16815260200190815260200160002060010180548060200260200160405190810160405280929190818152602001828054801561126e57602002820191906000526020600020905b81548152602001906001019080831161125a575b5050505050905060005b8151811161132a576000600a600084848151811061129957611298612892565b5b6020026020010151815260200190815260200160002060020160009054906101000a900473ffffffffffffffffffffffffffffffffffffffff1690506000600a60008585815181106112ee576112ed612892565b5b602002602001015181526020019081526020016000206001015490506113148282611d17565b50506001816113239190612792565b9050611278565b506000600960003373ffffffffffffffffffffffffffffffffffffffff1673ffffffffffffffffffffffffffffffffffffffff1681526020019081526020016000206002018054806020026020016040519081016040528092919081815260200182805480156113b957602002820191906000526020600020905b8154815260200190600101908083116113a5575b5050505050905060005b81518111611475576000600a60008584815181106113e4576113e3612892565b5b6020026020010151815260200190815260200160002060020160009054906101000a900473ffffffffffffffffffffffffffffffffffffffff1690506000600a600086858151811061143957611438612892565b5b6020026020010151815260200190815260200160002060010154905061145f8282611d17565b505060018161146e9190612792565b90506113c3565b505050565b611482610eb4565b73ffffffffffffffffffffffffffffffffffffffff166114a0610841565b73ffffffffffffffffffffffffffffffffffffffff16146114ff576114c3610eb4565b6040517f118cdaa70000000000000000000000000000000000000000000000000000000081526004016114f69190612337565b60405180910390fd5b565b6000600760009054906101000a900473ffffffffffffffffffffffffffffffffffffffff16905081600760006101000a81548173ffffffffffffffffffffffffffffffffffffffff021916908373ffffffffffffffffffffffffffffffffffffffff1602179055508173ffffffffffffffffffffffffffffffffffffffff168173ffffffffffffffffffffffffffffffffffffffff167f8be0079c531659141344cd1fd0a4f28419497f9722a3daafe3b4186f6b6457e060405160405180910390a35050565b600073ffffffffffffffffffffffffffffffffffffffff168273ffffffffffffffffffffffffffffffffffffffff160361163857816040517f5b08ba1800000000000000000000000000000000000000000000000000000000815260040161162f9190612337565b60405180910390fd5b80600560008573ffffffffffffffffffffffffffffffffffffffff1673ffffffffffffffffffffffffffffffffffffffff16815260200190815260200160002060008473ffffffffffffffffffffffffffffffffffffffff1673ffffffffffffffffffffffffffffffffffffffff16815260200190815260200160002060006101000a81548160ff0219169083151502179055508173ffffffffffffffffffffffffffffffffffffffff168373ffffffffffffffffffffffffffffffffffffffff167f17307eab39ab6107e8899845ad3d59bd9653f200f220920489ca2b5937696c318360405161172991906121c6565b60405180910390a3505050565b60008373ffffffffffffffffffffffffffffffffffffffff163b11156118e7578273ffffffffffffffffffffffffffffffffffffffff1663150b7a0261177a610eb4565b8685856040518563ffffffff1660e01b815260040161179c9493929190612a10565b6020604051808303816000875af19250505080156117d857506040513d601f19601f820116820180604052508101906117d59190612a71565b60015b61185c573d8060008114611808576040519150601f19603f3d011682016040523d82523d6000602084013e61180d565b606091505b50600081510361185457836040517f64a0ae9200000000000000000000000000000000000000000000000000000000815260040161184b9190612337565b60405180910390fd5b805181602001fd5b63150b7a0260e01b7bffffffffffffffffffffffffffffffffffffffffffffffffffffffff1916817bffffffffffffffffffffffffffffffffffffffffffffffffffffffff1916146118e557836040517f64a0ae920000000000000000000000000000000000000000000000000000000081526004016118dc9190612337565b60405180910390fd5b505b50505050565b606060405180602001604052806000815250905090565b606061190f82610def565b50600061191a6118ed565b9050600081511161193a5760405180602001604052806000815250611965565b8061194484611d1b565b60405160200161195592919061286e565b6040516020818303038152906040525b915050919050565b60007f01ffc9a7000000000000000000000000000000000000000000000000000000007bffffffffffffffffffffffffffffffffffffffffffffffffffffffff1916827bffffffffffffffffffffffffffffffffffffffffffffffffffffffff1916149050919050565b60006002600083815260200190815260200160002060009054906101000a900473ffffffffffffffffffffffffffffffffffffffff169050919050565b8080611a4d5750600073ffffffffffffffffffffffffffffffffffffffff168273ffffffffffffffffffffffffffffffffffffffff1614155b15611b81576000611a5d84610def565b9050600073ffffffffffffffffffffffffffffffffffffffff168373ffffffffffffffffffffffffffffffffffffffff1614158015611ac857508273ffffffffffffffffffffffffffffffffffffffff168173ffffffffffffffffffffffffffffffffffffffff1614155b8015611adb5750611ad98184610a45565b155b15611b1d57826040517fa9fbf51f000000000000000000000000000000000000000000000000000000008152600401611b149190612337565b60405180910390fd5b8115611b7f57838573ffffffffffffffffffffffffffffffffffffffff168273ffffffffffffffffffffffffffffffffffffffff167f8c5be1e5ebec7d5bd14f71427d1e84f3dd0314c0f7b2291e5b200ac8c7c3b92560405160405180910390a45b505b836004600085815260200190815260200160002060006101000a81548173ffffffffffffffffffffffffffffffffffffffff021916908373ffffffffffffffffffffffffffffffffffffffff16021790555050505050565b611be4838383611de9565b611c9857600073ffffffffffffffffffffffffffffffffffffffff168373ffffffffffffffffffffffffffffffffffffffff1603611c5957806040517f7e273289000000000000000000000000000000000000000000000000000000008152600401611c50919061244d565b60405180910390fd5b81816040517f177e802f000000000000000000000000000000000000000000000000000000008152600401611c8f929190612a9e565b60405180910390fd5b505050565b611cb7828260405180602001604052806000815250611eaa565b5050565b80600660008481526020019081526020016000209081611cdb9190612c73565b507ff8e1a15aba9398e019f0b49df1a4fde98ee17ae345cb5f6b5e2c27f5033e8ce782604051611d0b919061244d565b60405180910390a15050565b5050565b606060006001611d2a84611ec6565b01905060008167ffffffffffffffff811115611d4957611d486124de565b5b6040519080825280601f01601f191660200182016040528015611d7b5781602001600182028036833780820191505090505b509050600082602001820190505b600115611dde578080600190039150507f3031323334353637383961626364656600000000000000000000000000000000600a86061a8153600a8581611dd257611dd1612d45565b5b04945060008503611d89575b819350505050919050565b60008073ffffffffffffffffffffffffffffffffffffffff168373ffffffffffffffffffffffffffffffffffffffff1614158015611ea157508273ffffffffffffffffffffffffffffffffffffffff168473ffffffffffffffffffffffffffffffffffffffff161480611e625750611e618484610a45565b5b80611ea057508273ffffffffffffffffffffffffffffffffffffffff16611e8883610e77565b73ffffffffffffffffffffffffffffffffffffffff16145b5b90509392505050565b611eb48383612019565b611ec16000848484611736565b505050565b600080600090507a184f03e93ff9f4daa797ed6e38ed64bf6a1f0100000000000000008310611f24577a184f03e93ff9f4daa797ed6e38ed64bf6a1f0100000000000000008381611f1a57611f19612d45565b5b0492506040810190505b6d04ee2d6d415b85acef81000000008310611f61576d04ee2d6d415b85acef81000000008381611f5757611f56612d45565b5b0492506020810190505b662386f26fc100008310611f9057662386f26fc100008381611f8657611f85612d45565b5b0492506010810190505b6305f5e1008310611fb9576305f5e1008381611faf57611fae612d45565b5b0492506008810190505b6127108310611fde576127108381611fd457611fd3612d45565b5b0492506004810190505b606483106120015760648381611ff757611ff6612d45565b5b0492506002810190505b600a8310612010576001810190505b80915050919050565b600073ffffffffffffffffffffffffffffffffffffffff168273ffffffffffffffffffffffffffffffffffffffff160361208b5760006040517f64a0ae920000000000000000000000000000000000000000000000000000000081526004016120829190612337565b60405180910390fd5b600061209983836000610ece565b9050600073ffffffffffffffffffffffffffffffffffffffff168173ffffffffffffffffffffffffffffffffffffffff161461210d5760006040517f73c6ac6e0000000000000000000000000000000000000000000000000000000081526004016121049190612337565b60405180910390fd5b505050565b6000604051905090565b600080fd5b600080fd5b60007fffffffff0000000000000000000000000000000000000000000000000000000082169050919050565b61215b81612126565b811461216657600080fd5b50565b60008135905061217881612152565b92915050565b6000602082840312156121945761219361211c565b5b60006121a284828501612169565b91505092915050565b60008115159050919050565b6121c0816121ab565b82525050565b60006020820190506121db60008301846121b7565b92915050565b600081519050919050565b600082825260208201905092915050565b60005b8381101561221b578082015181840152602081019050612200565b60008484015250505050565b6000601f19601f8301169050919050565b6000612243826121e1565b61224d81856121ec565b935061225d8185602086016121fd565b61226681612227565b840191505092915050565b6000602082019050818103600083015261228b8184612238565b905092915050565b6000819050919050565b6122a681612293565b81146122b157600080fd5b50565b6000813590506122c38161229d565b92915050565b6000602082840312156122df576122de61211c565b5b60006122ed848285016122b4565b91505092915050565b600073ffffffffffffffffffffffffffffffffffffffff82169050919050565b6000612321826122f6565b9050919050565b61233181612316565b82525050565b600060208201905061234c6000830184612328565b92915050565b61235b81612316565b811461236657600080fd5b50565b60008135905061237881612352565b92915050565b600080604083850312156123955761239461211c565b5b60006123a385828601612369565b92505060206123b4858286016122b4565b9150509250929050565b6000806000606084860312156123d7576123d661211c565b5b60006123e586828701612369565b93505060206123f686828701612369565b9250506040612407868287016122b4565b9150509250925092565b6000602082840312156124275761242661211c565b5b600061243584828501612369565b91505092915050565b61244781612293565b82525050565b6000602082019050612462600083018461243e565b92915050565b612471816121ab565b811461247c57600080fd5b50565b60008135905061248e81612468565b92915050565b600080604083850312156124ab576124aa61211c565b5b60006124b985828601612369565b92505060206124ca8582860161247f565b9150509250929050565b600080fd5b600080fd5b7f4e487b7100000000000000000000000000000000000000000000000000000000600052604160045260246000fd5b61251682612227565b810181811067ffffffffffffffff82111715612535576125346124de565b5b80604052505050565b6000612548612112565b9050612554828261250d565b919050565b600067ffffffffffffffff821115612574576125736124de565b5b61257d82612227565b9050602081019050919050565b82818337600083830152505050565b60006125ac6125a784612559565b61253e565b9050828152602081018484840111156125c8576125c76124d9565b5b6125d384828561258a565b509392505050565b600082601f8301126125f0576125ef6124d4565b5b8135612600848260208601612599565b91505092915050565b600080600080608085870312156126235761262261211c565b5b600061263187828801612369565b945050602061264287828801612369565b9350506040612653878288016122b4565b925050606085013567ffffffffffffffff81111561267457612673612121565b5b612680878288016125db565b91505092959194509250565b600080604083850312156126a3576126a261211c565b5b60006126b185828601612369565b92505060206126c285828601612369565b9150509250929050565b7f4e487b7100000000000000000000000000000000000000000000000000000000600052602260045260246000fd5b6000600282049050600182168061271357607f821691505b602082108103612726576127256126cc565b5b50919050565b60006060820190506127416000830186612328565b61274e602083018561243e565b61275b6040830184612328565b949350505050565b7f4e487b7100000000000000000000000000000000000000000000000000000000600052601160045260246000fd5b600061279d82612293565b91506127a883612293565b92508282019050808211156127c0576127bf612763565b5b92915050565b7f4e6f7420656e6f75676820637265646974000000000000000000000000000000600082015250565b60006127fc6011836121ec565b9150612807826127c6565b602082019050919050565b6000602082019050818103600083015261282b816127ef565b9050919050565b600081905092915050565b6000612848826121e1565b6128528185612832565b93506128628185602086016121fd565b80840191505092915050565b600061287a828561283d565b9150612886828461283d565b91508190509392505050565b7f4e487b7100000000000000000000000000000000000000000000000000000000600052603260045260246000fd5b600081905092915050565b50565b60006128dc6000836128c1565b91506128e7826128cc565b600082019050919050565b60006128fd826128cf565b9150819050919050565b7f4661696c656420746f2073656e642045746865722e0000000000000000000000600082015250565b600061293d6015836121ec565b915061294882612907565b602082019050919050565b6000602082019050818103600083015261296c81612930565b9050919050565b600061297e82612293565b91507fffffffffffffffffffffffffffffffffffffffffffffffffffffffffffffffff82036129b0576129af612763565b5b600182019050919050565b600081519050919050565b600082825260208201905092915050565b60006129e2826129bb565b6129ec81856129c6565b93506129fc8185602086016121fd565b612a0581612227565b840191505092915050565b6000608082019050612a256000830187612328565b612a326020830186612328565b612a3f604083018561243e565b8181036060830152612a5181846129d7565b905095945050505050565b600081519050612a6b81612152565b92915050565b600060208284031215612a8757612a8661211c565b5b6000612a9584828501612a5c565b91505092915050565b6000604082019050612ab36000830185612328565b612ac0602083018461243e565b9392505050565b60008190508160005260206000209050919050565b60006020601f8301049050919050565b600082821b905092915050565b600060088302612b297fffffffffffffffffffffffffffffffffffffffffffffffffffffffffffffffff82612aec565b612b338683612aec565b95508019841693508086168417925050509392505050565b6000819050919050565b6000612b70612b6b612b6684612293565b612b4b565b612293565b9050919050565b6000819050919050565b612b8a83612b55565b612b9e612b9682612b77565b848454612af9565b825550505050565b600090565b612bb3612ba6565b612bbe818484612b81565b505050565b5b81811015612be257612bd7600082612bab565b600181019050612bc4565b5050565b601f821115612c2757612bf881612ac7565b612c0184612adc565b81016020851015612c10578190505b612c24612c1c85612adc565b830182612bc3565b50505b505050565b600082821c905092915050565b6000612c4a60001984600802612c2c565b1980831691505092915050565b6000612c638383612c39565b9150826002028217905092915050565b612c7c826121e1565b67ffffffffffffffff811115612c9557612c946124de565b5b612c9f82546126fb565b612caa828285612be6565b600060209050601f831160018114612cdd5760008415612ccb578287015190505b612cd58582612c57565b865550612d3d565b601f198416612ceb86612ac7565b60005b82811015612d1357848901518255600182019150602085019450602081019050612cee565b86831015612d305784890151612d2c601f891682612c39565b8355505b6001600288020188555050505b505050505050565b7f4e487b7100000000000000000000000000000000000000000000000000000000600052601260045260246000fdfea264697066735822122094337cd7bf0a38928153395d8355573873dcaf778397d6addf3511c535df41fa64736f6c63430008180033",
  "linkReferences": {},
  "deployedLinkReferences": {}
}