{
  "_format": "hh-sol-artifact-1",
  "contractName": "CR8Cert",
  "sourceName": "contracts/CR8Cert.sol",
  "abi": [
    {
      "inputs": [],
      "stateMutability": "nonpayable",
      "type": "constructor"
    },
    {
      "inputs": [
        {
          "internalType": "address",
          "name": "sender",
          "type": "address"
        },
        {
          "internalType": "uint256",
          "name": "tokenId",
          "type": "uint256"
        },
        {
          "internalType": "address",
          "name": "owner",
          "type": "address"
        }
      ],
      "name": "ERC721IncorrectOwner",
      "type": "error"
    },
    {
      "inputs": [
        {
          "internalType": "address",
          "name": "operator",
          "type": "address"
        },
        {
          "internalType": "uint256",
          "name": "tokenId",
          "type": "uint256"
        }
      ],
      "name": "ERC721InsufficientApproval",
      "type": "error"
    },
    {
      "inputs": [
        {
          "internalType": "address",
          "name": "approver",
          "type": "address"
        }
      ],
      "name": "ERC721InvalidApprover",
      "type": "error"
    },
    {
      "inputs": [
        {
          "internalType": "address",
          "name": "operator",
          "type": "address"
        }
      ],
      "name": "ERC721InvalidOperator",
      "type": "error"
    },
    {
      "inputs": [
        {
          "internalType": "address",
          "name": "owner",
          "type": "address"
        }
      ],
      "name": "ERC721InvalidOwner",
      "type": "error"
    },
    {
      "inputs": [
        {
          "internalType": "address",
          "name": "receiver",
          "type": "address"
        }
      ],
      "name": "ERC721InvalidReceiver",
      "type": "error"
    },
    {
      "inputs": [
        {
          "internalType": "address",
          "name": "sender",
          "type": "address"
        }
      ],
      "name": "ERC721InvalidSender",
      "type": "error"
    },
    {
      "inputs": [
        {
          "internalType": "uint256",
          "name": "tokenId",
          "type": "uint256"
        }
      ],
      "name": "ERC721NonexistentToken",
      "type": "error"
    },
    {
      "anonymous": false,
      "inputs": [
        {
          "indexed": true,
          "internalType": "address",
          "name": "owner",
          "type": "address"
        },
        {
          "indexed": true,
          "internalType": "address",
          "name": "approved",
          "type": "address"
        },
        {
          "indexed": true,
          "internalType": "uint256",
          "name": "tokenId",
          "type": "uint256"
        }
      ],
      "name": "Approval",
      "type": "event"
    },
    {
      "anonymous": false,
      "inputs": [
        {
          "indexed": true,
          "internalType": "address",
          "name": "owner",
          "type": "address"
        },
        {
          "indexed": true,
          "internalType": "address",
          "name": "operator",
          "type": "address"
        },
        {
          "indexed": false,
          "internalType": "bool",
          "name": "approved",
          "type": "bool"
        }
      ],
      "name": "ApprovalForAll",
      "type": "event"
    },
    {
      "anonymous": false,
      "inputs": [
        {
          "indexed": false,
          "internalType": "uint256",
          "name": "_fromTokenId",
          "type": "uint256"
        },
        {
          "indexed": false,
          "internalType": "uint256",
          "name": "_toTokenId",
          "type": "uint256"
        }
      ],
      "name": "BatchMetadataUpdate",
      "type": "event"
    },
    {
      "anonymous": false,
      "inputs": [
        {
          "indexed": false,
          "internalType": "uint256",
          "name": "_tokenId",
          "type": "uint256"
        }
      ],
      "name": "MetadataUpdate",
      "type": "event"
    },
    {
      "anonymous": false,
      "inputs": [
        {
          "indexed": true,
          "internalType": "address",
          "name": "from",
          "type": "address"
        },
        {
          "indexed": true,
          "internalType": "address",
          "name": "to",
          "type": "address"
        },
        {
          "indexed": true,
          "internalType": "uint256",
          "name": "tokenId",
          "type": "uint256"
        }
      ],
      "name": "Transfer",
      "type": "event"
    },
    {
      "inputs": [
        {
          "internalType": "address",
          "name": "player",
          "type": "address"
        },
        {
          "internalType": "string",
          "name": "tokenURI",
          "type": "string"
        }
      ],
      "name": "addItem",
      "outputs": [
        {
          "internalType": "uint256",
          "name": "",
          "type": "uint256"
        }
      ],
      "stateMutability": "nonpayable",
      "type": "function"
    },
    {
      "inputs": [
        {
          "internalType": "address",
          "name": "to",
          "type": "address"
        },
        {
          "internalType": "uint256",
          "name": "tokenId",
          "type": "uint256"
        }
      ],
      "name": "approve",
      "outputs": [],
      "stateMutability": "nonpayable",
      "type": "function"
    },
    {
      "inputs": [
        {
          "internalType": "address",
          "name": "owner",
          "type": "address"
        }
      ],
      "name": "balanceOf",
      "outputs": [
        {
          "internalType": "uint256",
          "name": "",
          "type": "uint256"
        }
      ],
      "stateMutability": "view",
      "type": "function"
    },
    {
      "inputs": [
        {
          "internalType": "uint256",
          "name": "tokenId",
          "type": "uint256"
        }
      ],
      "name": "getApproved",
      "outputs": [
        {
          "internalType": "address",
          "name": "",
          "type": "address"
        }
      ],
      "stateMutability": "view",
      "type": "function"
    },
    {
      "inputs": [
        {
          "internalType": "address",
          "name": "owner",
          "type": "address"
        },
        {
          "internalType": "address",
          "name": "operator",
          "type": "address"
        }
      ],
      "name": "isApprovedForAll",
      "outputs": [
        {
          "internalType": "bool",
          "name": "",
          "type": "bool"
        }
      ],
      "stateMutability": "view",
      "type": "function"
    },
    {
      "inputs": [],
      "name": "name",
      "outputs": [
        {
          "internalType": "string",
          "name": "",
          "type": "string"
        }
      ],
      "stateMutability": "view",
      "type": "function"
    },
    {
      "inputs": [
        {
          "internalType": "uint256",
          "name": "tokenId",
          "type": "uint256"
        }
      ],
      "name": "ownerOf",
      "outputs": [
        {
          "internalType": "address",
          "name": "",
          "type": "address"
        }
      ],
      "stateMutability": "view",
      "type": "function"
    },
    {
      "inputs": [
        {
          "internalType": "address",
          "name": "from",
          "type": "address"
        },
        {
          "internalType": "address",
          "name": "to",
          "type": "address"
        },
        {
          "internalType": "uint256",
          "name": "tokenId",
          "type": "uint256"
        }
      ],
      "name": "safeTransferFrom",
      "outputs": [],
      "stateMutability": "nonpayable",
      "type": "function"
    },
    {
      "inputs": [
        {
          "internalType": "address",
          "name": "from",
          "type": "address"
        },
        {
          "internalType": "address",
          "name": "to",
          "type": "address"
        },
        {
          "internalType": "uint256",
          "name": "tokenId",
          "type": "uint256"
        },
        {
          "internalType": "bytes",
          "name": "data",
          "type": "bytes"
        }
      ],
      "name": "safeTransferFrom",
      "outputs": [],
      "stateMutability": "nonpayable",
      "type": "function"
    },
    {
      "inputs": [
        {
          "internalType": "address",
          "name": "operator",
          "type": "address"
        },
        {
          "internalType": "bool",
          "name": "approved",
          "type": "bool"
        }
      ],
      "name": "setApprovalForAll",
      "outputs": [],
      "stateMutability": "nonpayable",
      "type": "function"
    },
    {
      "inputs": [
        {
          "internalType": "bytes4",
          "name": "interfaceId",
          "type": "bytes4"
        }
      ],
      "name": "supportsInterface",
      "outputs": [
        {
          "internalType": "bool",
          "name": "",
          "type": "bool"
        }
      ],
      "stateMutability": "view",
      "type": "function"
    },
    {
      "inputs": [],
      "name": "symbol",
      "outputs": [
        {
          "internalType": "string",
          "name": "",
          "type": "string"
        }
      ],
      "stateMutability": "view",
      "type": "function"
    },
    {
      "inputs": [
        {
          "internalType": "uint256",
          "name": "tokenId",
          "type": "uint256"
        }
      ],
      "name": "tokenURI",
      "outputs": [
        {
          "internalType": "string",
          "name": "",
          "type": "string"
        }
      ],
      "stateMutability": "view",
      "type": "function"
    },
    {
      "inputs": [
        {
          "internalType": "address",
          "name": "from",
          "type": "address"
        },
        {
          "internalType": "address",
          "name": "to",
          "type": "address"
        },
        {
          "internalType": "uint256",
          "name": "tokenId",
          "type": "uint256"
        }
      ],
      "name": "transferFrom",
      "outputs": [],
      "stateMutability": "nonpayable",
      "type": "function"
    }
  ],
  "bytecode": "0x60806040523480156200001157600080fd5b506040518060400160405280600e81526020017f43523843657274696669636174650000000000000000000000000000000000008152506040518060400160405280600481526020017f435238430000000000000000000000000000000000000000000000000000000081525081600090816200008f919062000324565b508060019081620000a1919062000324565b5050506200040b565b600081519050919050565b7f4e487b7100000000000000000000000000000000000000000000000000000000600052604160045260246000fd5b7f4e487b7100000000000000000000000000000000000000000000000000000000600052602260045260246000fd5b600060028204905060018216806200012c57607f821691505b602082108103620001425762000141620000e4565b5b50919050565b60008190508160005260206000209050919050565b60006020601f8301049050919050565b600082821b905092915050565b600060088302620001ac7fffffffffffffffffffffffffffffffffffffffffffffffffffffffffffffffff826200016d565b620001b886836200016d565b95508019841693508086168417925050509392505050565b6000819050919050565b6000819050919050565b600062000205620001ff620001f984620001d0565b620001da565b620001d0565b9050919050565b6000819050919050565b6200022183620001e4565b6200023962000230826200020c565b8484546200017a565b825550505050565b600090565b6200025062000241565b6200025d81848462000216565b505050565b5b8181101562000285576200027960008262000246565b60018101905062000263565b5050565b601f821115620002d4576200029e8162000148565b620002a9846200015d565b81016020851015620002b9578190505b620002d1620002c8856200015d565b83018262000262565b50505b505050565b600082821c905092915050565b6000620002f960001984600802620002d9565b1980831691505092915050565b6000620003148383620002e6565b9150826002028217905092915050565b6200032f82620000aa565b67ffffffffffffffff8111156200034b576200034a620000b5565b5b62000357825462000113565b6200036482828562000289565b600060209050601f8311600181146200039c576000841562000387578287015190505b62000393858262000306565b86555062000403565b601f198416620003ac8662000148565b60005b82811015620003d657848901518255600182019150602085019450602081019050620003af565b86831015620003f65784890151620003f2601f891682620002e6565b8355505b6001600288020188555050505b505050505050565b6123bc806200041b6000396000f3fe608060405234801561001057600080fd5b50600436106100ea5760003560e01c80636352211e1161008c578063a22cb46511610066578063a22cb4651461026f578063b88d4fde1461028b578063c87b56dd146102a7578063e985e9c5146102d7576100ea565b80636352211e146101f157806370a082311461022157806395d89b4114610251576100ea565b8063095ea7b3116100c8578063095ea7b31461016d57806323b872dd1461018957806336e0271d146101a557806342842e0e146101d5576100ea565b806301ffc9a7146100ef57806306fdde031461011f578063081812fc1461013d575b600080fd5b61010960048036038101906101049190611814565b610307565b604051610116919061185c565b60405180910390f35b610127610368565b6040516101349190611907565b60405180910390f35b6101576004803603810190610152919061195f565b6103fa565b60405161016491906119cd565b60405180910390f35b61018760048036038101906101829190611a14565b610416565b005b6101a3600480360381019061019e9190611a54565b61042c565b005b6101bf60048036038101906101ba9190611bdc565b61052e565b6040516101cc9190611c47565b60405180910390f35b6101ef60048036038101906101ea9190611a54565b610568565b005b61020b6004803603810190610206919061195f565b610588565b60405161021891906119cd565b60405180910390f35b61023b60048036038101906102369190611c62565b61059a565b6040516102489190611c47565b60405180910390f35b610259610654565b6040516102669190611907565b60405180910390f35b61028960048036038101906102849190611cbb565b6106e6565b005b6102a560048036038101906102a09190611d9c565b6106fc565b005b6102c160048036038101906102bc919061195f565b610719565b6040516102ce9190611907565b60405180910390f35b6102f160048036038101906102ec9190611e1f565b61082c565b6040516102fe919061185c565b60405180910390f35b6000634906490660e01b7bffffffffffffffffffffffffffffffffffffffffffffffffffffffff1916827bffffffffffffffffffffffffffffffffffffffffffffffffffffffff191614806103615750610360826108c0565b5b9050919050565b60606000805461037790611e8e565b80601f01602080910402602001604051908101604052809291908181526020018280546103a390611e8e565b80156103f05780601f106103c5576101008083540402835291602001916103f0565b820191906000526020600020905b8154815290600101906020018083116103d357829003601f168201915b5050505050905090565b6000610405826109a2565b5061040f82610a2a565b9050919050565b6104288282610423610a67565b610a6f565b5050565b600073ffffffffffffffffffffffffffffffffffffffff168273ffffffffffffffffffffffffffffffffffffffff160361049e5760006040517f64a0ae9200000000000000000000000000000000000000000000000000000000815260040161049591906119cd565b60405180910390fd5b60006104b283836104ad610a67565b610a81565b90508373ffffffffffffffffffffffffffffffffffffffff168173ffffffffffffffffffffffffffffffffffffffff1614610528578382826040517f64283d7b00000000000000000000000000000000000000000000000000000000815260040161051f93929190611ebf565b60405180910390fd5b50505050565b6000806007600081548092919061054490611f25565b9190505590506105548482610c9b565b61055e8184610d94565b8091505092915050565b610583838383604051806020016040528060008152506106fc565b505050565b6000610593826109a2565b9050919050565b60008073ffffffffffffffffffffffffffffffffffffffff168273ffffffffffffffffffffffffffffffffffffffff160361060d5760006040517f89c62b6400000000000000000000000000000000000000000000000000000000815260040161060491906119cd565b60405180910390fd5b600360008373ffffffffffffffffffffffffffffffffffffffff1673ffffffffffffffffffffffffffffffffffffffff168152602001908152602001600020549050919050565b60606001805461066390611e8e565b80601f016020809104026020016040519081016040528092919081815260200182805461068f90611e8e565b80156106dc5780601f106106b1576101008083540402835291602001916106dc565b820191906000526020600020905b8154815290600101906020018083116106bf57829003601f168201915b5050505050905090565b6106f86106f1610a67565b8383610df0565b5050565b61070784848461042c565b61071384848484610f5f565b50505050565b6060610724826109a2565b50600060066000848152602001908152602001600020805461074590611e8e565b80601f016020809104026020016040519081016040528092919081815260200182805461077190611e8e565b80156107be5780601f10610793576101008083540402835291602001916107be565b820191906000526020600020905b8154815290600101906020018083116107a157829003601f168201915b5050505050905060006107cf611116565b905060008151036107e4578192505050610827565b600082511115610819578082604051602001610801929190611fa9565b60405160208183030381529060405292505050610827565b6108228461112d565b925050505b919050565b6000600560008473ffffffffffffffffffffffffffffffffffffffff1673ffffffffffffffffffffffffffffffffffffffff16815260200190815260200160002060008373ffffffffffffffffffffffffffffffffffffffff1673ffffffffffffffffffffffffffffffffffffffff16815260200190815260200160002060009054906101000a900460ff16905092915050565b60007f80ac58cd000000000000000000000000000000000000000000000000000000007bffffffffffffffffffffffffffffffffffffffffffffffffffffffff1916827bffffffffffffffffffffffffffffffffffffffffffffffffffffffff1916148061098b57507f5b5e139f000000000000000000000000000000000000000000000000000000007bffffffffffffffffffffffffffffffffffffffffffffffffffffffff1916827bffffffffffffffffffffffffffffffffffffffffffffffffffffffff1916145b8061099b575061099a82611196565b5b9050919050565b6000806109ae83611200565b9050600073ffffffffffffffffffffffffffffffffffffffff168173ffffffffffffffffffffffffffffffffffffffff1603610a2157826040517f7e273289000000000000000000000000000000000000000000000000000000008152600401610a189190611c47565b60405180910390fd5b80915050919050565b60006004600083815260200190815260200160002060009054906101000a900473ffffffffffffffffffffffffffffffffffffffff169050919050565b600033905090565b610a7c838383600161123d565b505050565b600080610a8d84611200565b9050600073ffffffffffffffffffffffffffffffffffffffff168373ffffffffffffffffffffffffffffffffffffffff1614610acf57610ace818486611402565b5b600073ffffffffffffffffffffffffffffffffffffffff168173ffffffffffffffffffffffffffffffffffffffff1614610b6057610b1160008560008061123d565b6001600360008373ffffffffffffffffffffffffffffffffffffffff1673ffffffffffffffffffffffffffffffffffffffff168152602001908152602001600020600082825403925050819055505b600073ffffffffffffffffffffffffffffffffffffffff168573ffffffffffffffffffffffffffffffffffffffff1614610be3576001600360008773ffffffffffffffffffffffffffffffffffffffff1673ffffffffffffffffffffffffffffffffffffffff168152602001908152602001600020600082825401925050819055505b846002600086815260200190815260200160002060006101000a81548173ffffffffffffffffffffffffffffffffffffffff021916908373ffffffffffffffffffffffffffffffffffffffff160217905550838573ffffffffffffffffffffffffffffffffffffffff168273ffffffffffffffffffffffffffffffffffffffff167fddf252ad1be2c89b69c2b068fc378daa952ba7f163c4a11628f55a4df523b3ef60405160405180910390a4809150509392505050565b600073ffffffffffffffffffffffffffffffffffffffff168273ffffffffffffffffffffffffffffffffffffffff1603610d0d5760006040517f64a0ae92000000000000000000000000000000000000000000000000000000008152600401610d0491906119cd565b60405180910390fd5b6000610d1b83836000610a81565b9050600073ffffffffffffffffffffffffffffffffffffffff168173ffffffffffffffffffffffffffffffffffffffff1614610d8f5760006040517f73c6ac6e000000000000000000000000000000000000000000000000000000008152600401610d8691906119cd565b60405180910390fd5b505050565b80600660008481526020019081526020016000209081610db49190612179565b507ff8e1a15aba9398e019f0b49df1a4fde98ee17ae345cb5f6b5e2c27f5033e8ce782604051610de49190611c47565b60405180910390a15050565b600073ffffffffffffffffffffffffffffffffffffffff168273ffffffffffffffffffffffffffffffffffffffff1603610e6157816040517f5b08ba18000000000000000000000000000000000000000000000000000000008152600401610e5891906119cd565b60405180910390fd5b80600560008573ffffffffffffffffffffffffffffffffffffffff1673ffffffffffffffffffffffffffffffffffffffff16815260200190815260200160002060008473ffffffffffffffffffffffffffffffffffffffff1673ffffffffffffffffffffffffffffffffffffffff16815260200190815260200160002060006101000a81548160ff0219169083151502179055508173ffffffffffffffffffffffffffffffffffffffff168373ffffffffffffffffffffffffffffffffffffffff167f17307eab39ab6107e8899845ad3d59bd9653f200f220920489ca2b5937696c3183604051610f52919061185c565b60405180910390a3505050565b60008373ffffffffffffffffffffffffffffffffffffffff163b1115611110578273ffffffffffffffffffffffffffffffffffffffff1663150b7a02610fa3610a67565b8685856040518563ffffffff1660e01b8152600401610fc594939291906122a0565b6020604051808303816000875af192505050801561100157506040513d601f19601f82011682018060405250810190610ffe9190612301565b60015b611085573d8060008114611031576040519150601f19603f3d011682016040523d82523d6000602084013e611036565b606091505b50600081510361107d57836040517f64a0ae9200000000000000000000000000000000000000000000000000000000815260040161107491906119cd565b60405180910390fd5b805181602001fd5b63150b7a0260e01b7bffffffffffffffffffffffffffffffffffffffffffffffffffffffff1916817bffffffffffffffffffffffffffffffffffffffffffffffffffffffff19161461110e57836040517f64a0ae9200000000000000000000000000000000000000000000000000000000815260040161110591906119cd565b60405180910390fd5b505b50505050565b606060405180602001604052806000815250905090565b6060611138826109a2565b506000611143611116565b90506000815111611163576040518060200160405280600081525061118e565b8061116d846114c6565b60405160200161117e929190611fa9565b6040516020818303038152906040525b915050919050565b60007f01ffc9a7000000000000000000000000000000000000000000000000000000007bffffffffffffffffffffffffffffffffffffffffffffffffffffffff1916827bffffffffffffffffffffffffffffffffffffffffffffffffffffffff1916149050919050565b60006002600083815260200190815260200160002060009054906101000a900473ffffffffffffffffffffffffffffffffffffffff169050919050565b80806112765750600073ffffffffffffffffffffffffffffffffffffffff168273ffffffffffffffffffffffffffffffffffffffff1614155b156113aa576000611286846109a2565b9050600073ffffffffffffffffffffffffffffffffffffffff168373ffffffffffffffffffffffffffffffffffffffff16141580156112f157508273ffffffffffffffffffffffffffffffffffffffff168173ffffffffffffffffffffffffffffffffffffffff1614155b80156113045750611302818461082c565b155b1561134657826040517fa9fbf51f00000000000000000000000000000000000000000000000000000000815260040161133d91906119cd565b60405180910390fd5b81156113a857838573ffffffffffffffffffffffffffffffffffffffff168273ffffffffffffffffffffffffffffffffffffffff167f8c5be1e5ebec7d5bd14f71427d1e84f3dd0314c0f7b2291e5b200ac8c7c3b92560405160405180910390a45b505b836004600085815260200190815260200160002060006101000a81548173ffffffffffffffffffffffffffffffffffffffff021916908373ffffffffffffffffffffffffffffffffffffffff16021790555050505050565b61140d838383611594565b6114c157600073ffffffffffffffffffffffffffffffffffffffff168373ffffffffffffffffffffffffffffffffffffffff160361148257806040517f7e2732890000000000000000000000000000000000000000000000000000000081526004016114799190611c47565b60405180910390fd5b81816040517f177e802f0000000000000000000000000000000000000000000000000000000081526004016114b892919061232e565b60405180910390fd5b505050565b6060600060016114d584611655565b01905060008167ffffffffffffffff8111156114f4576114f3611ab1565b5b6040519080825280601f01601f1916602001820160405280156115265781602001600182028036833780820191505090505b509050600082602001820190505b600115611589578080600190039150507f3031323334353637383961626364656600000000000000000000000000000000600a86061a8153600a858161157d5761157c612357565b5b04945060008503611534575b819350505050919050565b60008073ffffffffffffffffffffffffffffffffffffffff168373ffffffffffffffffffffffffffffffffffffffff161415801561164c57508273ffffffffffffffffffffffffffffffffffffffff168473ffffffffffffffffffffffffffffffffffffffff16148061160d575061160c848461082c565b5b8061164b57508273ffffffffffffffffffffffffffffffffffffffff1661163383610a2a565b73ffffffffffffffffffffffffffffffffffffffff16145b5b90509392505050565b600080600090507a184f03e93ff9f4daa797ed6e38ed64bf6a1f01000000000000000083106116b3577a184f03e93ff9f4daa797ed6e38ed64bf6a1f01000000000000000083816116a9576116a8612357565b5b0492506040810190505b6d04ee2d6d415b85acef810000000083106116f0576d04ee2d6d415b85acef810000000083816116e6576116e5612357565b5b0492506020810190505b662386f26fc10000831061171f57662386f26fc10000838161171557611714612357565b5b0492506010810190505b6305f5e1008310611748576305f5e100838161173e5761173d612357565b5b0492506008810190505b612710831061176d57612710838161176357611762612357565b5b0492506004810190505b60648310611790576064838161178657611785612357565b5b0492506002810190505b600a831061179f576001810190505b80915050919050565b6000604051905090565b600080fd5b600080fd5b60007fffffffff0000000000000000000000000000000000000000000000000000000082169050919050565b6117f1816117bc565b81146117fc57600080fd5b50565b60008135905061180e816117e8565b92915050565b60006020828403121561182a576118296117b2565b5b6000611838848285016117ff565b91505092915050565b60008115159050919050565b61185681611841565b82525050565b6000602082019050611871600083018461184d565b92915050565b600081519050919050565b600082825260208201905092915050565b60005b838110156118b1578082015181840152602081019050611896565b60008484015250505050565b6000601f19601f8301169050919050565b60006118d982611877565b6118e38185611882565b93506118f3818560208601611893565b6118fc816118bd565b840191505092915050565b6000602082019050818103600083015261192181846118ce565b905092915050565b6000819050919050565b61193c81611929565b811461194757600080fd5b50565b60008135905061195981611933565b92915050565b600060208284031215611975576119746117b2565b5b60006119838482850161194a565b91505092915050565b600073ffffffffffffffffffffffffffffffffffffffff82169050919050565b60006119b78261198c565b9050919050565b6119c7816119ac565b82525050565b60006020820190506119e260008301846119be565b92915050565b6119f1816119ac565b81146119fc57600080fd5b50565b600081359050611a0e816119e8565b92915050565b60008060408385031215611a2b57611a2a6117b2565b5b6000611a39858286016119ff565b9250506020611a4a8582860161194a565b9150509250929050565b600080600060608486031215611a6d57611a6c6117b2565b5b6000611a7b868287016119ff565b9350506020611a8c868287016119ff565b9250506040611a9d8682870161194a565b9150509250925092565b600080fd5b600080fd5b7f4e487b7100000000000000000000000000000000000000000000000000000000600052604160045260246000fd5b611ae9826118bd565b810181811067ffffffffffffffff82111715611b0857611b07611ab1565b5b80604052505050565b6000611b1b6117a8565b9050611b278282611ae0565b919050565b600067ffffffffffffffff821115611b4757611b46611ab1565b5b611b50826118bd565b9050602081019050919050565b82818337600083830152505050565b6000611b7f611b7a84611b2c565b611b11565b905082815260208101848484011115611b9b57611b9a611aac565b5b611ba6848285611b5d565b509392505050565b600082601f830112611bc357611bc2611aa7565b5b8135611bd3848260208601611b6c565b91505092915050565b60008060408385031215611bf357611bf26117b2565b5b6000611c01858286016119ff565b925050602083013567ffffffffffffffff811115611c2257611c216117b7565b5b611c2e85828601611bae565b9150509250929050565b611c4181611929565b82525050565b6000602082019050611c5c6000830184611c38565b92915050565b600060208284031215611c7857611c776117b2565b5b6000611c86848285016119ff565b91505092915050565b611c9881611841565b8114611ca357600080fd5b50565b600081359050611cb581611c8f565b92915050565b60008060408385031215611cd257611cd16117b2565b5b6000611ce0858286016119ff565b9250506020611cf185828601611ca6565b9150509250929050565b600067ffffffffffffffff821115611d1657611d15611ab1565b5b611d1f826118bd565b9050602081019050919050565b6000611d3f611d3a84611cfb565b611b11565b905082815260208101848484011115611d5b57611d5a611aac565b5b611d66848285611b5d565b509392505050565b600082601f830112611d8357611d82611aa7565b5b8135611d93848260208601611d2c565b91505092915050565b60008060008060808587031215611db657611db56117b2565b5b6000611dc4878288016119ff565b9450506020611dd5878288016119ff565b9350506040611de68782880161194a565b925050606085013567ffffffffffffffff811115611e0757611e066117b7565b5b611e1387828801611d6e565b91505092959194509250565b60008060408385031215611e3657611e356117b2565b5b6000611e44858286016119ff565b9250506020611e55858286016119ff565b9150509250929050565b7f4e487b7100000000000000000000000000000000000000000000000000000000600052602260045260246000fd5b60006002820490506001821680611ea657607f821691505b602082108103611eb957611eb8611e5f565b5b50919050565b6000606082019050611ed460008301866119be565b611ee16020830185611c38565b611eee60408301846119be565b949350505050565b7f4e487b7100000000000000000000000000000000000000000000000000000000600052601160045260246000fd5b6000611f3082611929565b91507fffffffffffffffffffffffffffffffffffffffffffffffffffffffffffffffff8203611f6257611f61611ef6565b5b600182019050919050565b600081905092915050565b6000611f8382611877565b611f8d8185611f6d565b9350611f9d818560208601611893565b80840191505092915050565b6000611fb58285611f78565b9150611fc18284611f78565b91508190509392505050565b60008190508160005260206000209050919050565b60006020601f8301049050919050565b600082821b905092915050565b60006008830261202f7fffffffffffffffffffffffffffffffffffffffffffffffffffffffffffffffff82611ff2565b6120398683611ff2565b95508019841693508086168417925050509392505050565b6000819050919050565b600061207661207161206c84611929565b612051565b611929565b9050919050565b6000819050919050565b6120908361205b565b6120a461209c8261207d565b848454611fff565b825550505050565b600090565b6120b96120ac565b6120c4818484612087565b505050565b5b818110156120e8576120dd6000826120b1565b6001810190506120ca565b5050565b601f82111561212d576120fe81611fcd565b61210784611fe2565b81016020851015612116578190505b61212a61212285611fe2565b8301826120c9565b50505b505050565b600082821c905092915050565b600061215060001984600802612132565b1980831691505092915050565b6000612169838361213f565b9150826002028217905092915050565b61218282611877565b67ffffffffffffffff81111561219b5761219a611ab1565b5b6121a58254611e8e565b6121b08282856120ec565b600060209050601f8311600181146121e357600084156121d1578287015190505b6121db858261215d565b865550612243565b601f1984166121f186611fcd565b60005b82811015612219578489015182556001820191506020850194506020810190506121f4565b868310156122365784890151612232601f89168261213f565b8355505b6001600288020188555050505b505050505050565b600081519050919050565b600082825260208201905092915050565b60006122728261224b565b61227c8185612256565b935061228c818560208601611893565b612295816118bd565b840191505092915050565b60006080820190506122b560008301876119be565b6122c260208301866119be565b6122cf6040830185611c38565b81810360608301526122e18184612267565b905095945050505050565b6000815190506122fb816117e8565b92915050565b600060208284031215612317576123166117b2565b5b6000612325848285016122ec565b91505092915050565b600060408201905061234360008301856119be565b6123506020830184611c38565b9392505050565b7f4e487b7100000000000000000000000000000000000000000000000000000000600052601260045260246000fdfea264697066735822122038ab513c80f2016c6d614a97ee01ce2baf8c0b5457460e2051c03a829bdece5164736f6c63430008180033",
  "linkReferences": {},
  "deployedLinkReferences": {}
}