{
  "_format": "hh-sol-artifact-1",
  "contractName": "ArtCreation",
  "sourceName": "contracts/ArtCreation.sol",
  "abi": [
    {
      "inputs": [],
      "stateMutability": "nonpayable",
      "type": "constructor"
    },
    {
      "inputs": [
        {
          "internalType": "address",
          "name": "owner",
          "type": "address"
        }
      ],
      "name": "OwnableInvalidOwner",
      "type": "error"
    },
    {
      "inputs": [
        {
          "internalType": "address",
          "name": "account",
          "type": "address"
        }
      ],
      "name": "OwnableUnauthorizedAccount",
      "type": "error"
    },
    {
      "anonymous": false,
      "inputs": [
        {
          "indexed": false,
          "internalType": "uint256",
          "name": "tokenId",
          "type": "uint256"
        }
      ],
      "name": "CR8ArtNFTCreated",
      "type": "event"
    },
    {
      "anonymous": false,
      "inputs": [
        {
          "indexed": true,
          "internalType": "address",
          "name": "previousOwner",
          "type": "address"
        },
        {
          "indexed": true,
          "internalType": "address",
          "name": "newOwner",
          "type": "address"
        }
      ],
      "name": "OwnershipTransferred",
      "type": "event"
    },
    {
      "anonymous": false,
      "inputs": [],
      "name": "PayementFailed",
      "type": "event"
    },
    {
      "anonymous": false,
      "inputs": [
        {
          "indexed": false,
          "internalType": "string",
          "name": "artId",
          "type": "string"
        }
      ],
      "name": "SuccessfulArtCreationAttempt",
      "type": "event"
    },
    {
      "inputs": [
        {
          "internalType": "string",
          "name": "artId",
          "type": "string"
        }
      ],
      "name": "_calculateTotalProvidersFees",
      "outputs": [
        {
          "internalType": "uint256",
          "name": "",
          "type": "uint256"
        }
      ],
      "stateMutability": "view",
      "type": "function"
    },
    {
      "inputs": [
        {
          "internalType": "address",
          "name": "addr",
          "type": "address"
        },
        {
          "internalType": "string",
          "name": "artId",
          "type": "string"
        }
      ],
      "name": "_isCreator",
      "outputs": [
        {
          "internalType": "bool",
          "name": "",
          "type": "bool"
        }
      ],
      "stateMutability": "view",
      "type": "function"
    },
    {
      "inputs": [],
      "name": "cr8Art",
      "outputs": [
        {
          "internalType": "contract CR8Art",
          "name": "",
          "type": "address"
        }
      ],
      "stateMutability": "view",
      "type": "function"
    },
    {
      "inputs": [
        {
          "internalType": "address",
          "name": "",
          "type": "address"
        },
        {
          "internalType": "string",
          "name": "",
          "type": "string"
        }
      ],
      "name": "cr8Metadata",
      "outputs": [
        {
          "internalType": "string",
          "name": "artId",
          "type": "string"
        },
        {
          "internalType": "address",
          "name": "creator",
          "type": "address"
        },
        {
          "internalType": "string",
          "name": "prompt",
          "type": "string"
        },
        {
          "internalType": "string",
          "name": "storageUrl",
          "type": "string"
        },
        {
          "internalType": "bool",
          "name": "paid",
          "type": "bool"
        }
      ],
      "stateMutability": "view",
      "type": "function"
    },
    {
      "inputs": [],
      "name": "dataProvision",
      "outputs": [
        {
          "internalType": "address",
          "name": "",
          "type": "address"
        }
      ],
      "stateMutability": "view",
      "type": "function"
    },
    {
      "inputs": [
        {
          "internalType": "string",
          "name": "artId",
          "type": "string"
        },
        {
          "internalType": "string[]",
          "name": "datasetIds",
          "type": "string[]"
        },
        {
          "internalType": "string[]",
          "name": "modelIds",
          "type": "string[]"
        },
        {
          "internalType": "string",
          "name": "prompt",
          "type": "string"
        },
        {
          "internalType": "string",
          "name": "storageUrl",
          "type": "string"
        }
      ],
      "name": "generateArt",
      "outputs": [],
      "stateMutability": "nonpayable",
      "type": "function"
    },
    {
      "inputs": [],
      "name": "owner",
      "outputs": [
        {
          "internalType": "address",
          "name": "",
          "type": "address"
        }
      ],
      "stateMutability": "view",
      "type": "function"
    },
    {
      "inputs": [
        {
          "internalType": "string",
          "name": "artId",
          "type": "string"
        }
      ],
      "name": "payFee",
      "outputs": [],
      "stateMutability": "payable",
      "type": "function"
    },
    {
      "inputs": [],
      "name": "plateformFees",
      "outputs": [
        {
          "internalType": "uint256",
          "name": "",
          "type": "uint256"
        }
      ],
      "stateMutability": "view",
      "type": "function"
    },
    {
      "inputs": [],
      "name": "recieve",
      "outputs": [],
      "stateMutability": "payable",
      "type": "function"
    },
    {
      "inputs": [],
      "name": "renounceOwnership",
      "outputs": [],
      "stateMutability": "nonpayable",
      "type": "function"
    },
    {
      "inputs": [
        {
          "internalType": "address",
          "name": "_dataProvision",
          "type": "address"
        }
      ],
      "name": "setDataProvisionAddr",
      "outputs": [],
      "stateMutability": "nonpayable",
      "type": "function"
    },
    {
      "inputs": [
        {
          "internalType": "uint256",
          "name": "fees",
          "type": "uint256"
        }
      ],
      "name": "setFees",
      "outputs": [],
      "stateMutability": "nonpayable",
      "type": "function"
    },
    {
      "inputs": [
        {
          "internalType": "address",
          "name": "newOwner",
          "type": "address"
        }
      ],
      "name": "transferOwnership",
      "outputs": [],
      "stateMutability": "nonpayable",
      "type": "function"
    }
  ],
  "bytecode": "0x60806040523480156200001157600080fd5b5033600073ffffffffffffffffffffffffffffffffffffffff168173ffffffffffffffffffffffffffffffffffffffff1603620000885760006040517f1e4fbdf70000000000000000000000000000000000000000000000000000000081526004016200007f919062000223565b60405180910390fd5b62000099816200010c60201b60201c565b50604051620000a890620001d0565b604051809103906000f080158015620000c5573d6000803e3d6000fd5b50600260006101000a81548173ffffffffffffffffffffffffffffffffffffffff021916908373ffffffffffffffffffffffffffffffffffffffff16021790555062000240565b60008060009054906101000a900473ffffffffffffffffffffffffffffffffffffffff169050816000806101000a81548173ffffffffffffffffffffffffffffffffffffffff021916908373ffffffffffffffffffffffffffffffffffffffff1602179055508173ffffffffffffffffffffffffffffffffffffffff168173ffffffffffffffffffffffffffffffffffffffff167f8be0079c531659141344cd1fd0a4f28419497f9722a3daafe3b4186f6b6457e060405160405180910390a35050565b612c408062002d3183390190565b600073ffffffffffffffffffffffffffffffffffffffff82169050919050565b60006200020b82620001de565b9050919050565b6200021d81620001fe565b82525050565b60006020820190506200023a600083018462000212565b92915050565b612ae180620002506000396000f3fe6080604052600436106100dd5760003560e01c8063ab0c51611161007f578063c279a09a11610059578063c279a09a1461026c578063cd5b2d89146102ad578063d1076217146102d6578063f2fde38b14610301576100dd565b8063ab0c5161146101d6578063b23bf44314610213578063ba7aef831461022f576100dd565b8063715018a6116100bb578063715018a61461015f5780638da5cb5b146101765780639c2c0270146101a1578063a9e10bf2146101cc576100dd565b806303071269146100e25780631551fd091461010b5780633d18678e14610136575b600080fd5b3480156100ee57600080fd5b5061010960048036038101906101049190611a4f565b61032a565b005b34801561011757600080fd5b50610120610539565b60405161012d9190611bd5565b60405180910390f35b34801561014257600080fd5b5061015d60048036038101906101589190611c26565b61055f565b005b34801561016b57600080fd5b50610174610571565b005b34801561018257600080fd5b5061018b610585565b6040516101989190611c74565b60405180910390f35b3480156101ad57600080fd5b506101b66105ae565b6040516101c39190611c9e565b60405180910390f35b6101d46105b4565b005b3480156101e257600080fd5b506101fd60048036038101906101f89190611cb9565b6105b6565b60405161020a9190611c9e565b60405180910390f35b61022d60048036038101906102289190611cb9565b610a10565b005b34801561023b57600080fd5b5061025660048036038101906102519190611d2e565b610c35565b6040516102639190611da5565b60405180910390f35b34801561027857600080fd5b50610293600480360381019061028e9190611d2e565b610cfb565b6040516102a4959493929190611e3f565b60405180910390f35b3480156102b957600080fd5b506102d460048036038101906102cf9190611ea7565b610f19565b005b3480156102e257600080fd5b506102eb610f5d565b6040516102f89190611c74565b60405180910390f35b34801561030d57600080fd5b5061032860048036038101906103239190611ea7565b610f83565b005b6040518060e001604052808681526020013373ffffffffffffffffffffffffffffffffffffffff16815260200185815260200184815260200183815260200182815260200160001515815250600160003373ffffffffffffffffffffffffffffffffffffffff1673ffffffffffffffffffffffffffffffffffffffff168152602001908152602001600020866040516103c39190611f10565b908152602001604051809103902060008201518160000190816103e69190612129565b5060208201518160010160006101000a81548173ffffffffffffffffffffffffffffffffffffffff021916908373ffffffffffffffffffffffffffffffffffffffff160217905550604082015181600201908051906020019061044a929190611735565b506060820151816003019080519060200190610467929190611735565b50608082015181600401908161047d9190612129565b5060a08201518160050190816104939190612129565b5060c08201518160060160006101000a81548160ff02191690831515021790555090505060008151116104fb576040517f08c379a00000000000000000000000000000000000000000000000000000000081526004016104f290612247565b60405180910390fd5b7f6e412f1890f3430008d7758af7cc74978ed55ad9ac28146cbc927c6d47b6fa378560405161052a9190612267565b60405180910390a15050505050565b600260009054906101000a900473ffffffffffffffffffffffffffffffffffffffff1681565b610567611009565b8060048190555050565b610579611009565b6105836000611090565b565b60008060009054906101000a900473ffffffffffffffffffffffffffffffffffffffff16905090565b60045481565b565b600080600090506000600160003373ffffffffffffffffffffffffffffffffffffffff1673ffffffffffffffffffffffffffffffffffffffff1681526020019081526020016000208460405161060c9190611f10565b9081526020016040518091039020600201805480602002602001604051908101604052809291908181526020016000905b828210156106e957838290600052602060002001805461065c90611f56565b80601f016020809104026020016040519081016040528092919081815260200182805461068890611f56565b80156106d55780601f106106aa576101008083540402835291602001916106d5565b820191906000526020600020905b8154815290600101906020018083116106b857829003601f168201915b50505050508152602001906001019061063d565b5050505090506000600160003373ffffffffffffffffffffffffffffffffffffffff1673ffffffffffffffffffffffffffffffffffffffff1681526020019081526020016000208560405161073e9190611f10565b9081526020016040518091039020600301805480602002602001604051908101604052809291908181526020016000905b8282101561081b57838290600052602060002001805461078e90611f56565b80601f01602080910402602001604051908101604052809291908181526020018280546107ba90611f56565b80156108075780601f106107dc57610100808354040283529160200191610807565b820191906000526020600020905b8154815290600101906020018083116107ea57829003601f168201915b50505050508152602001906001019061076f565b50505050905060005b82518111610912576000600360009054906101000a900473ffffffffffffffffffffffffffffffffffffffff1673ffffffffffffffffffffffffffffffffffffffff16634eb4635f85848151811061087f5761087e612289565b5b60200260200101516040518263ffffffff1660e01b81526004016108a39190612267565b600060405180830381865afa1580156108c0573d6000803e3d6000fd5b505050506040513d6000823e3d601f19601f820116820180604052508101906108e99190612509565b90508060200151856108fb9190612581565b94505060018161090b9190612581565b9050610824565b5060005b81518111610a04576000600360009054906101000a900473ffffffffffffffffffffffffffffffffffffffff1673ffffffffffffffffffffffffffffffffffffffff1663781a433684848151811061097157610970612289565b5b60200260200101516040518263ffffffff1660e01b81526004016109959190612267565b600060405180830381865afa1580156109b2573d6000803e3d6000fd5b505050506040513d6000823e3d601f19601f820116820180604052508101906109db9190612695565b90508060200151856109ed9190612581565b9450506001816109fd9190612581565b9050610916565b50829350505050919050565b610a1a3382610c35565b610a59576040517f08c379a0000000000000000000000000000000000000000000000000000000008152600401610a5090612750565b60405180910390fd5b6000610a6733614e20611154565b90506000610a74836105b6565b90508181610a829190612581565b3373ffffffffffffffffffffffffffffffffffffffff163111610ada576040517f08c379a0000000000000000000000000000000000000000000000000000000008152600401610ad1906127bc565b60405180910390fd5b610aee8282610ae99190612581565b611179565b6000600260009054906101000a900473ffffffffffffffffffffffffffffffffffffffff1673ffffffffffffffffffffffffffffffffffffffff1663d204c45e33600160003373ffffffffffffffffffffffffffffffffffffffff1673ffffffffffffffffffffffffffffffffffffffff16815260200190815260200160002087604051610b7c9190611f10565b90815260200160405180910390206005016040518363ffffffff1660e01b8152600401610baa929190612860565b6020604051808303816000875af1158015610bc9573d6000803e3d6000fd5b505050506040513d601f19601f82011682018060405250810190610bed9190612890565b9050610bf88461122c565b7f38c9222d6472b481a0836dc03771dda9ced555e716b2e29aea17c0426eab48d381604051610c279190611c9e565b60405180910390a150505050565b600081604051602001610c489190611f10565b60405160208183030381529060405280519060200120600160008573ffffffffffffffffffffffffffffffffffffffff1673ffffffffffffffffffffffffffffffffffffffff16815260200190815260200160002083604051610cab9190611f10565b9081526020016040518091039020600001604051602001610ccc9190612940565b6040516020818303038152906040528051906020012003610cf05760019050610cf5565b600090505b92915050565b60016020528160005260406000208180516020810182018051848252602083016020850120818352809550505050505060009150915050806000018054610d4190611f56565b80601f0160208091040260200160405190810160405280929190818152602001828054610d6d90611f56565b8015610dba5780601f10610d8f57610100808354040283529160200191610dba565b820191906000526020600020905b815481529060010190602001808311610d9d57829003601f168201915b5050505050908060010160009054906101000a900473ffffffffffffffffffffffffffffffffffffffff1690806004018054610df590611f56565b80601f0160208091040260200160405190810160405280929190818152602001828054610e2190611f56565b8015610e6e5780601f10610e4357610100808354040283529160200191610e6e565b820191906000526020600020905b815481529060010190602001808311610e5157829003601f168201915b505050505090806005018054610e8390611f56565b80601f0160208091040260200160405190810160405280929190818152602001828054610eaf90611f56565b8015610efc5780601f10610ed157610100808354040283529160200191610efc565b820191906000526020600020905b815481529060010190602001808311610edf57829003601f168201915b5050505050908060060160009054906101000a900460ff16905085565b80600360006101000a81548173ffffffffffffffffffffffffffffffffffffffff021916908373ffffffffffffffffffffffffffffffffffffffff16021790555050565b600360009054906101000a900473ffffffffffffffffffffffffffffffffffffffff1681565b610f8b611009565b600073ffffffffffffffffffffffffffffffffffffffff168173ffffffffffffffffffffffffffffffffffffffff1603610ffd5760006040517f1e4fbdf7000000000000000000000000000000000000000000000000000000008152600401610ff49190611c74565b60405180910390fd5b61100681611090565b50565b611011611679565b73ffffffffffffffffffffffffffffffffffffffff1661102f610585565b73ffffffffffffffffffffffffffffffffffffffff161461108e57611052611679565b6040517f118cdaa70000000000000000000000000000000000000000000000000000000081526004016110859190611c74565b60405180910390fd5b565b60008060009054906101000a900473ffffffffffffffffffffffffffffffffffffffff169050816000806101000a81548173ffffffffffffffffffffffffffffffffffffffff021916908373ffffffffffffffffffffffffffffffffffffffff1602179055508173ffffffffffffffffffffffffffffffffffffffff168173ffffffffffffffffffffffffffffffffffffffff167f8be0079c531659141344cd1fd0a4f28419497f9722a3daafe3b4186f6b6457e060405160405180910390a35050565b6000612710826004546111679190612957565b61117191906129c8565b905092915050565b6000803073ffffffffffffffffffffffffffffffffffffffff16836040516111a090612a2a565b60006040518083038185875af1925050503d80600081146111dd576040519150601f19603f3d011682016040523d82523d6000602084013e6111e2565b606091505b509150915081611227576040517f08c379a000000000000000000000000000000000000000000000000000000000815260040161121e90612a8b565b60405180910390fd5b505050565b6000600160003373ffffffffffffffffffffffffffffffffffffffff1673ffffffffffffffffffffffffffffffffffffffff1681526020019081526020016000208260405161127b9190611f10565b9081526020016040518091039020600201805480602002602001604051908101604052809291908181526020016000905b828210156113585783829060005260206000200180546112cb90611f56565b80601f01602080910402602001604051908101604052809291908181526020018280546112f790611f56565b80156113445780601f1061131957610100808354040283529160200191611344565b820191906000526020600020905b81548152906001019060200180831161132757829003601f168201915b5050505050815260200190600101906112ac565b50505050905060005b8151811161144f576000600360009054906101000a900473ffffffffffffffffffffffffffffffffffffffff1673ffffffffffffffffffffffffffffffffffffffff16634eb4635f8484815181106113bc576113bb612289565b5b60200260200101516040518263ffffffff1660e01b81526004016113e09190612267565b600060405180830381865afa1580156113fd573d6000803e3d6000fd5b505050506040513d6000823e3d601f19601f820116820180604052508101906114269190612509565b905061143a81604001518260200151611681565b506001816114489190612581565b9050611361565b506000600160003373ffffffffffffffffffffffffffffffffffffffff1673ffffffffffffffffffffffffffffffffffffffff1681526020019081526020016000208360405161149f9190611f10565b9081526020016040518091039020600301805480602002602001604051908101604052809291908181526020016000905b8282101561157c5783829060005260206000200180546114ef90611f56565b80601f016020809104026020016040519081016040528092919081815260200182805461151b90611f56565b80156115685780601f1061153d57610100808354040283529160200191611568565b820191906000526020600020905b81548152906001019060200180831161154b57829003601f168201915b5050505050815260200190600101906114d0565b50505050905060005b81518111611673576000600360009054906101000a900473ffffffffffffffffffffffffffffffffffffffff1673ffffffffffffffffffffffffffffffffffffffff1663781a43368484815181106115e0576115df612289565b5b60200260200101516040518263ffffffff1660e01b81526004016116049190612267565b600060405180830381865afa158015611621573d6000803e3d6000fd5b505050506040513d6000823e3d601f19601f8201168201806040525081019061164a9190612695565b905061165e81604001518260200151611681565b5060018161166c9190612581565b9050611585565b50505050565b600033905090565b6000808373ffffffffffffffffffffffffffffffffffffffff16836040516116a890612a2a565b60006040518083038185875af1925050503d80600081146116e5576040519150601f19603f3d011682016040523d82523d6000602084013e6116ea565b606091505b50915091508161172f576040517f08c379a000000000000000000000000000000000000000000000000000000000815260040161172690612a8b565b60405180910390fd5b50505050565b82805482825590600052602060002090810192821561177d579160200282015b8281111561177c57825182908161176c9190612129565b5091602001919060010190611755565b5b50905061178a919061178e565b5090565b5b808211156117ae57600081816117a591906117b2565b5060010161178f565b5090565b5080546117be90611f56565b6000825580601f106117d057506117ef565b601f0160209004906000526020600020908101906117ee91906117f2565b5b50565b5b8082111561180b5760008160009055506001016117f3565b5090565b6000604051905090565b600080fd5b600080fd5b600080fd5b600080fd5b6000601f19601f8301169050919050565b7f4e487b7100000000000000000000000000000000000000000000000000000000600052604160045260246000fd5b6118768261182d565b810181811067ffffffffffffffff821117156118955761189461183e565b5b80604052505050565b60006118a861180f565b90506118b4828261186d565b919050565b600067ffffffffffffffff8211156118d4576118d361183e565b5b6118dd8261182d565b9050602081019050919050565b82818337600083830152505050565b600061190c611907846118b9565b61189e565b90508281526020810184848401111561192857611927611828565b5b6119338482856118ea565b509392505050565b600082601f8301126119505761194f611823565b5b81356119608482602086016118f9565b91505092915050565b600067ffffffffffffffff8211156119845761198361183e565b5b602082029050602081019050919050565b600080fd5b60006119ad6119a884611969565b61189e565b905080838252602082019050602084028301858111156119d0576119cf611995565b5b835b81811015611a1757803567ffffffffffffffff8111156119f5576119f4611823565b5b808601611a02898261193b565b855260208501945050506020810190506119d2565b5050509392505050565b600082601f830112611a3657611a35611823565b5b8135611a4684826020860161199a565b91505092915050565b600080600080600060a08688031215611a6b57611a6a611819565b5b600086013567ffffffffffffffff811115611a8957611a8861181e565b5b611a958882890161193b565b955050602086013567ffffffffffffffff811115611ab657611ab561181e565b5b611ac288828901611a21565b945050604086013567ffffffffffffffff811115611ae357611ae261181e565b5b611aef88828901611a21565b935050606086013567ffffffffffffffff811115611b1057611b0f61181e565b5b611b1c8882890161193b565b925050608086013567ffffffffffffffff811115611b3d57611b3c61181e565b5b611b498882890161193b565b9150509295509295909350565b600073ffffffffffffffffffffffffffffffffffffffff82169050919050565b6000819050919050565b6000611b9b611b96611b9184611b56565b611b76565b611b56565b9050919050565b6000611bad82611b80565b9050919050565b6000611bbf82611ba2565b9050919050565b611bcf81611bb4565b82525050565b6000602082019050611bea6000830184611bc6565b92915050565b6000819050919050565b611c0381611bf0565b8114611c0e57600080fd5b50565b600081359050611c2081611bfa565b92915050565b600060208284031215611c3c57611c3b611819565b5b6000611c4a84828501611c11565b91505092915050565b6000611c5e82611b56565b9050919050565b611c6e81611c53565b82525050565b6000602082019050611c896000830184611c65565b92915050565b611c9881611bf0565b82525050565b6000602082019050611cb36000830184611c8f565b92915050565b600060208284031215611ccf57611cce611819565b5b600082013567ffffffffffffffff811115611ced57611cec61181e565b5b611cf98482850161193b565b91505092915050565b611d0b81611c53565b8114611d1657600080fd5b50565b600081359050611d2881611d02565b92915050565b60008060408385031215611d4557611d44611819565b5b6000611d5385828601611d19565b925050602083013567ffffffffffffffff811115611d7457611d7361181e565b5b611d808582860161193b565b9150509250929050565b60008115159050919050565b611d9f81611d8a565b82525050565b6000602082019050611dba6000830184611d96565b92915050565b600081519050919050565b600082825260208201905092915050565b60005b83811015611dfa578082015181840152602081019050611ddf565b60008484015250505050565b6000611e1182611dc0565b611e1b8185611dcb565b9350611e2b818560208601611ddc565b611e348161182d565b840191505092915050565b600060a0820190508181036000830152611e598188611e06565b9050611e686020830187611c65565b8181036040830152611e7a8186611e06565b90508181036060830152611e8e8185611e06565b9050611e9d6080830184611d96565b9695505050505050565b600060208284031215611ebd57611ebc611819565b5b6000611ecb84828501611d19565b91505092915050565b600081905092915050565b6000611eea82611dc0565b611ef48185611ed4565b9350611f04818560208601611ddc565b80840191505092915050565b6000611f1c8284611edf565b915081905092915050565b7f4e487b7100000000000000000000000000000000000000000000000000000000600052602260045260246000fd5b60006002820490506001821680611f6e57607f821691505b602082108103611f8157611f80611f27565b5b50919050565b60008190508160005260206000209050919050565b60006020601f8301049050919050565b600082821b905092915050565b600060088302611fe97fffffffffffffffffffffffffffffffffffffffffffffffffffffffffffffffff82611fac565b611ff38683611fac565b95508019841693508086168417925050509392505050565b600061202661202161201c84611bf0565b611b76565b611bf0565b9050919050565b6000819050919050565b6120408361200b565b61205461204c8261202d565b848454611fb9565b825550505050565b600090565b61206961205c565b612074818484612037565b505050565b5b818110156120985761208d600082612061565b60018101905061207a565b5050565b601f8211156120dd576120ae81611f87565b6120b784611f9c565b810160208510156120c6578190505b6120da6120d285611f9c565b830182612079565b50505b505050565b600082821c905092915050565b6000612100600019846008026120e2565b1980831691505092915050565b600061211983836120ef565b9150826002028217905092915050565b61213282611dc0565b67ffffffffffffffff81111561214b5761214a61183e565b5b6121558254611f56565b61216082828561209c565b600060209050601f8311600181146121935760008415612181578287015190505b61218b858261210d565b8655506121f3565b601f1984166121a186611f87565b60005b828110156121c9578489015182556001820191506020850194506020810190506121a4565b868310156121e657848901516121e2601f8916826120ef565b8355505b6001600288020188555050505b505050505050565b7f53746f726167652055726c20697320656d707479000000000000000000000000600082015250565b6000612231601483611dcb565b915061223c826121fb565b602082019050919050565b6000602082019050818103600083015261226081612224565b9050919050565b600060208201905081810360008301526122818184611e06565b905092915050565b7f4e487b7100000000000000000000000000000000000000000000000000000000600052603260045260246000fd5b600080fd5b600080fd5b60006122d56122d0846118b9565b61189e565b9050828152602081018484840111156122f1576122f0611828565b5b6122fc848285611ddc565b509392505050565b600082601f83011261231957612318611823565b5b81516123298482602086016122c2565b91505092915050565b60008151905061234181611bfa565b92915050565b60008151905061235681611d02565b92915050565b6004811061236957600080fd5b50565b60008151905061237b8161235c565b92915050565b600060808284031215612397576123966122b8565b5b6123a1608061189e565b905060006123b184828501612332565b600083015250602082015167ffffffffffffffff8111156123d5576123d46122bd565b5b6123e184828501612304565b60208301525060406123f584828501612332565b604083015250606061240984828501612332565b60608301525092915050565b600060c0828403121561242b5761242a6122b8565b5b61243560c061189e565b9050600082015167ffffffffffffffff811115612455576124546122bd565b5b61246184828501612304565b600083015250602061247584828501612332565b602083015250604061248984828501612347565b604083015250606061249d8482850161236c565b606083015250608082015167ffffffffffffffff8111156124c1576124c06122bd565b5b6124cd84828501612304565b60808301525060a082015167ffffffffffffffff8111156124f1576124f06122bd565b5b6124fd84828501612381565b60a08301525092915050565b60006020828403121561251f5761251e611819565b5b600082015167ffffffffffffffff81111561253d5761253c61181e565b5b61254984828501612415565b91505092915050565b7f4e487b7100000000000000000000000000000000000000000000000000000000600052601160045260246000fd5b600061258c82611bf0565b915061259783611bf0565b92508282019050808211156125af576125ae612552565b5b92915050565b600060a082840312156125cb576125ca6122b8565b5b6125d560a061189e565b9050600082015167ffffffffffffffff8111156125f5576125f46122bd565b5b61260184828501612304565b600083015250602061261584828501612332565b602083015250604061262984828501612347565b604083015250606082015167ffffffffffffffff81111561264d5761264c6122bd565b5b61265984828501612304565b606083015250608082015167ffffffffffffffff81111561267d5761267c6122bd565b5b61268984828501612304565b60808301525092915050565b6000602082840312156126ab576126aa611819565b5b600082015167ffffffffffffffff8111156126c9576126c861181e565b5b6126d5848285016125b5565b91505092915050565b7f596f752063616e277420636c61696d20776861742773206e6f7420796f75727360008201527f2100000000000000000000000000000000000000000000000000000000000000602082015250565b600061273a602183611dcb565b9150612745826126de565b604082019050919050565b600060208201905081810360008301526127698161272d565b9050919050565b7f4e6f7420656e6f7567682062616c616e63652100000000000000000000000000600082015250565b60006127a6601383611dcb565b91506127b182612770565b602082019050919050565b600060208201905081810360008301526127d581612799565b9050919050565b600081546127e981611f56565b6127f38186611dcb565b9450600182166000811461280e576001811461282457612857565b60ff198316865281151560200286019350612857565b61282d85611f87565b60005b8381101561284f57815481890152600182019150602081019050612830565b808801955050505b50505092915050565b60006040820190506128756000830185611c65565b818103602083015261288781846127dc565b90509392505050565b6000602082840312156128a6576128a5611819565b5b60006128b484828501612332565b91505092915050565b600081546128ca81611f56565b6128d48186611ed4565b945060018216600081146128ef576001811461290457612937565b60ff1983168652811515820286019350612937565b61290d85611f87565b60005b8381101561292f57815481890152600182019150602081019050612910565b838801955050505b50505092915050565b600061294c82846128bd565b915081905092915050565b600061296282611bf0565b915061296d83611bf0565b925082820261297b81611bf0565b9150828204841483151761299257612991612552565b5b5092915050565b7f4e487b7100000000000000000000000000000000000000000000000000000000600052601260045260246000fd5b60006129d382611bf0565b91506129de83611bf0565b9250826129ee576129ed612999565b5b828204905092915050565b600081905092915050565b50565b6000612a146000836129f9565b9150612a1f82612a04565b600082019050919050565b6000612a3582612a07565b9150819050919050565b7f4661696c656420746f2073656e642058545a2e00000000000000000000000000600082015250565b6000612a75601383611dcb565b9150612a8082612a3f565b602082019050919050565b60006020820190508181036000830152612aa481612a68565b905091905056fea26469706673582212206172e0546219f3ff6da2e545643b0338bf7252664d554a133470a5ba206b494a64736f6c6343000818003360806040523480156200001157600080fd5b50336040518060400160405280600681526020017f43523841727400000000000000000000000000000000000000000000000000008152506040518060400160405280600481526020017f4352384100000000000000000000000000000000000000000000000000000000815250816000908162000090919062000472565b508060019081620000a2919062000472565b505050600073ffffffffffffffffffffffffffffffffffffffff168173ffffffffffffffffffffffffffffffffffffffff16036200011a5760006040517f1e4fbdf70000000000000000000000000000000000000000000000000000000081526004016200011191906200059e565b60405180910390fd5b6200012b816200013260201b60201c565b50620005bb565b6000600760009054906101000a900473ffffffffffffffffffffffffffffffffffffffff16905081600760006101000a81548173ffffffffffffffffffffffffffffffffffffffff021916908373ffffffffffffffffffffffffffffffffffffffff1602179055508173ffffffffffffffffffffffffffffffffffffffff168173ffffffffffffffffffffffffffffffffffffffff167f8be0079c531659141344cd1fd0a4f28419497f9722a3daafe3b4186f6b6457e060405160405180910390a35050565b600081519050919050565b7f4e487b7100000000000000000000000000000000000000000000000000000000600052604160045260246000fd5b7f4e487b7100000000000000000000000000000000000000000000000000000000600052602260045260246000fd5b600060028204905060018216806200027a57607f821691505b60208210810362000290576200028f62000232565b5b50919050565b60008190508160005260206000209050919050565b60006020601f8301049050919050565b600082821b905092915050565b600060088302620002fa7fffffffffffffffffffffffffffffffffffffffffffffffffffffffffffffffff82620002bb565b620003068683620002bb565b95508019841693508086168417925050509392505050565b6000819050919050565b6000819050919050565b6000620003536200034d62000347846200031e565b62000328565b6200031e565b9050919050565b6000819050919050565b6200036f8362000332565b620003876200037e826200035a565b848454620002c8565b825550505050565b600090565b6200039e6200038f565b620003ab81848462000364565b505050565b5b81811015620003d357620003c760008262000394565b600181019050620003b1565b5050565b601f8211156200042257620003ec8162000296565b620003f784620002ab565b8101602085101562000407578190505b6200041f6200041685620002ab565b830182620003b0565b50505b505050565b600082821c905092915050565b6000620004476000198460080262000427565b1980831691505092915050565b600062000462838362000434565b9150826002028217905092915050565b6200047d82620001f8565b67ffffffffffffffff81111562000499576200049862000203565b5b620004a5825462000261565b620004b2828285620003d7565b600060209050601f831160018114620004ea5760008415620004d5578287015190505b620004e1858262000454565b86555062000551565b601f198416620004fa8662000296565b60005b828110156200052457848901518255600182019150602085019450602081019050620004fd565b8683101562000544578489015162000540601f89168262000434565b8355505b6001600288020188555050505b505050505050565b600073ffffffffffffffffffffffffffffffffffffffff82169050919050565b6000620005868262000559565b9050919050565b620005988162000579565b82525050565b6000602082019050620005b560008301846200058d565b92915050565b61267580620005cb6000396000f3fe608060405234801561001057600080fd5b506004361061010b5760003560e01c8063715018a6116100a2578063b88d4fde11610071578063b88d4fde146102a4578063c87b56dd146102c0578063d204c45e146102f0578063e985e9c514610320578063f2fde38b146103505761010b565b8063715018a6146102425780638da5cb5b1461024c57806395d89b411461026a578063a22cb465146102885761010b565b806323b872dd116100de57806323b872dd146101aa57806342842e0e146101c65780636352211e146101e257806370a08231146102125761010b565b806301ffc9a71461011057806306fdde0314610140578063081812fc1461015e578063095ea7b31461018e575b600080fd5b61012a60048036038101906101259190611acd565b61036c565b6040516101379190611b15565b60405180910390f35b6101486103cd565b6040516101559190611bc0565b60405180910390f35b61017860048036038101906101739190611c18565b61045f565b6040516101859190611c86565b60405180910390f35b6101a860048036038101906101a39190611ccd565b61047b565b005b6101c460048036038101906101bf9190611d0d565b610491565b005b6101e060048036038101906101db9190611d0d565b610593565b005b6101fc60048036038101906101f79190611c18565b6105b3565b6040516102099190611c86565b60405180910390f35b61022c60048036038101906102279190611d60565b6105c5565b6040516102399190611d9c565b60405180910390f35b61024a61067f565b005b610254610693565b6040516102619190611c86565b60405180910390f35b6102726106bd565b60405161027f9190611bc0565b60405180910390f35b6102a2600480360381019061029d9190611de3565b61074f565b005b6102be60048036038101906102b99190611f58565b610765565b005b6102da60048036038101906102d59190611c18565b610782565b6040516102e79190611bc0565b60405180910390f35b61030a6004803603810190610305919061207c565b610895565b6040516103179190611d9c565b60405180910390f35b61033a600480360381019061033591906120d8565b6108d8565b6040516103479190611b15565b60405180910390f35b61036a60048036038101906103659190611d60565b61096c565b005b6000634906490660e01b7bffffffffffffffffffffffffffffffffffffffffffffffffffffffff1916827bffffffffffffffffffffffffffffffffffffffffffffffffffffffff191614806103c657506103c5826109f2565b5b9050919050565b6060600080546103dc90612147565b80601f016020809104026020016040519081016040528092919081815260200182805461040890612147565b80156104555780601f1061042a57610100808354040283529160200191610455565b820191906000526020600020905b81548152906001019060200180831161043857829003601f168201915b5050505050905090565b600061046a82610ad4565b5061047482610b5c565b9050919050565b61048d8282610488610b99565b610ba1565b5050565b600073ffffffffffffffffffffffffffffffffffffffff168273ffffffffffffffffffffffffffffffffffffffff16036105035760006040517f64a0ae920000000000000000000000000000000000000000000000000000000081526004016104fa9190611c86565b60405180910390fd5b60006105178383610512610b99565b610bb3565b90508373ffffffffffffffffffffffffffffffffffffffff168173ffffffffffffffffffffffffffffffffffffffff161461058d578382826040517f64283d7b00000000000000000000000000000000000000000000000000000000815260040161058493929190612178565b60405180910390fd5b50505050565b6105ae83838360405180602001604052806000815250610765565b505050565b60006105be82610ad4565b9050919050565b60008073ffffffffffffffffffffffffffffffffffffffff168273ffffffffffffffffffffffffffffffffffffffff16036106385760006040517f89c62b6400000000000000000000000000000000000000000000000000000000815260040161062f9190611c86565b60405180910390fd5b600360008373ffffffffffffffffffffffffffffffffffffffff1673ffffffffffffffffffffffffffffffffffffffff168152602001908152602001600020549050919050565b610687610dcd565b6106916000610e54565b565b6000600760009054906101000a900473ffffffffffffffffffffffffffffffffffffffff16905090565b6060600180546106cc90612147565b80601f01602080910402602001604051908101604052809291908181526020018280546106f890612147565b80156107455780601f1061071a57610100808354040283529160200191610745565b820191906000526020600020905b81548152906001019060200180831161072857829003601f168201915b5050505050905090565b61076161075a610b99565b8383610f1a565b5050565b610770848484610491565b61077c84848484611089565b50505050565b606061078d82610ad4565b5060006006600084815260200190815260200160002080546107ae90612147565b80601f01602080910402602001604051908101604052809291908181526020018280546107da90612147565b80156108275780601f106107fc57610100808354040283529160200191610827565b820191906000526020600020905b81548152906001019060200180831161080a57829003601f168201915b505050505090506000610838611240565b9050600081510361084d578192505050610890565b60008251111561088257808260405160200161086a9291906121eb565b60405160208183030381529060405292505050610890565b61088b84611257565b925050505b919050565b600061089f610dcd565b6000600860008154809291906108b49061223e565b9190505590506108c484826112c0565b6108ce81846112de565b8091505092915050565b6000600560008473ffffffffffffffffffffffffffffffffffffffff1673ffffffffffffffffffffffffffffffffffffffff16815260200190815260200160002060008373ffffffffffffffffffffffffffffffffffffffff1673ffffffffffffffffffffffffffffffffffffffff16815260200190815260200160002060009054906101000a900460ff16905092915050565b610974610dcd565b600073ffffffffffffffffffffffffffffffffffffffff168173ffffffffffffffffffffffffffffffffffffffff16036109e65760006040517f1e4fbdf70000000000000000000000000000000000000000000000000000000081526004016109dd9190611c86565b60405180910390fd5b6109ef81610e54565b50565b60007f80ac58cd000000000000000000000000000000000000000000000000000000007bffffffffffffffffffffffffffffffffffffffffffffffffffffffff1916827bffffffffffffffffffffffffffffffffffffffffffffffffffffffff19161480610abd57507f5b5e139f000000000000000000000000000000000000000000000000000000007bffffffffffffffffffffffffffffffffffffffffffffffffffffffff1916827bffffffffffffffffffffffffffffffffffffffffffffffffffffffff1916145b80610acd5750610acc8261133a565b5b9050919050565b600080610ae0836113a4565b9050600073ffffffffffffffffffffffffffffffffffffffff168173ffffffffffffffffffffffffffffffffffffffff1603610b5357826040517f7e273289000000000000000000000000000000000000000000000000000000008152600401610b4a9190611d9c565b60405180910390fd5b80915050919050565b60006004600083815260200190815260200160002060009054906101000a900473ffffffffffffffffffffffffffffffffffffffff169050919050565b600033905090565b610bae83838360016113e1565b505050565b600080610bbf846113a4565b9050600073ffffffffffffffffffffffffffffffffffffffff168373ffffffffffffffffffffffffffffffffffffffff1614610c0157610c008184866115a6565b5b600073ffffffffffffffffffffffffffffffffffffffff168173ffffffffffffffffffffffffffffffffffffffff1614610c9257610c436000856000806113e1565b6001600360008373ffffffffffffffffffffffffffffffffffffffff1673ffffffffffffffffffffffffffffffffffffffff168152602001908152602001600020600082825403925050819055505b600073ffffffffffffffffffffffffffffffffffffffff168573ffffffffffffffffffffffffffffffffffffffff1614610d15576001600360008773ffffffffffffffffffffffffffffffffffffffff1673ffffffffffffffffffffffffffffffffffffffff168152602001908152602001600020600082825401925050819055505b846002600086815260200190815260200160002060006101000a81548173ffffffffffffffffffffffffffffffffffffffff021916908373ffffffffffffffffffffffffffffffffffffffff160217905550838573ffffffffffffffffffffffffffffffffffffffff168273ffffffffffffffffffffffffffffffffffffffff167fddf252ad1be2c89b69c2b068fc378daa952ba7f163c4a11628f55a4df523b3ef60405160405180910390a4809150509392505050565b610dd5610b99565b73ffffffffffffffffffffffffffffffffffffffff16610df3610693565b73ffffffffffffffffffffffffffffffffffffffff1614610e5257610e16610b99565b6040517f118cdaa7000000000000000000000000000000000000000000000000000000008152600401610e499190611c86565b60405180910390fd5b565b6000600760009054906101000a900473ffffffffffffffffffffffffffffffffffffffff16905081600760006101000a81548173ffffffffffffffffffffffffffffffffffffffff021916908373ffffffffffffffffffffffffffffffffffffffff1602179055508173ffffffffffffffffffffffffffffffffffffffff168173ffffffffffffffffffffffffffffffffffffffff167f8be0079c531659141344cd1fd0a4f28419497f9722a3daafe3b4186f6b6457e060405160405180910390a35050565b600073ffffffffffffffffffffffffffffffffffffffff168273ffffffffffffffffffffffffffffffffffffffff1603610f8b57816040517f5b08ba18000000000000000000000000000000000000000000000000000000008152600401610f829190611c86565b60405180910390fd5b80600560008573ffffffffffffffffffffffffffffffffffffffff1673ffffffffffffffffffffffffffffffffffffffff16815260200190815260200160002060008473ffffffffffffffffffffffffffffffffffffffff1673ffffffffffffffffffffffffffffffffffffffff16815260200190815260200160002060006101000a81548160ff0219169083151502179055508173ffffffffffffffffffffffffffffffffffffffff168373ffffffffffffffffffffffffffffffffffffffff167f17307eab39ab6107e8899845ad3d59bd9653f200f220920489ca2b5937696c318360405161107c9190611b15565b60405180910390a3505050565b60008373ffffffffffffffffffffffffffffffffffffffff163b111561123a578273ffffffffffffffffffffffffffffffffffffffff1663150b7a026110cd610b99565b8685856040518563ffffffff1660e01b81526004016110ef94939291906122db565b6020604051808303816000875af192505050801561112b57506040513d601f19601f82011682018060405250810190611128919061233c565b60015b6111af573d806000811461115b576040519150601f19603f3d011682016040523d82523d6000602084013e611160565b606091505b5060008151036111a757836040517f64a0ae9200000000000000000000000000000000000000000000000000000000815260040161119e9190611c86565b60405180910390fd5b805181602001fd5b63150b7a0260e01b7bffffffffffffffffffffffffffffffffffffffffffffffffffffffff1916817bffffffffffffffffffffffffffffffffffffffffffffffffffffffff19161461123857836040517f64a0ae9200000000000000000000000000000000000000000000000000000000815260040161122f9190611c86565b60405180910390fd5b505b50505050565b606060405180602001604052806000815250905090565b606061126282610ad4565b50600061126d611240565b9050600081511161128d57604051806020016040528060008152506112b8565b806112978461166a565b6040516020016112a89291906121eb565b6040516020818303038152906040525b915050919050565b6112da828260405180602001604052806000815250611738565b5050565b806006600084815260200190815260200160002090816112fe9190612515565b507ff8e1a15aba9398e019f0b49df1a4fde98ee17ae345cb5f6b5e2c27f5033e8ce78260405161132e9190611d9c565b60405180910390a15050565b60007f01ffc9a7000000000000000000000000000000000000000000000000000000007bffffffffffffffffffffffffffffffffffffffffffffffffffffffff1916827bffffffffffffffffffffffffffffffffffffffffffffffffffffffff1916149050919050565b60006002600083815260200190815260200160002060009054906101000a900473ffffffffffffffffffffffffffffffffffffffff169050919050565b808061141a5750600073ffffffffffffffffffffffffffffffffffffffff168273ffffffffffffffffffffffffffffffffffffffff1614155b1561154e57600061142a84610ad4565b9050600073ffffffffffffffffffffffffffffffffffffffff168373ffffffffffffffffffffffffffffffffffffffff161415801561149557508273ffffffffffffffffffffffffffffffffffffffff168173ffffffffffffffffffffffffffffffffffffffff1614155b80156114a857506114a681846108d8565b155b156114ea57826040517fa9fbf51f0000000000000000000000000000000000000000000000000000000081526004016114e19190611c86565b60405180910390fd5b811561154c57838573ffffffffffffffffffffffffffffffffffffffff168273ffffffffffffffffffffffffffffffffffffffff167f8c5be1e5ebec7d5bd14f71427d1e84f3dd0314c0f7b2291e5b200ac8c7c3b92560405160405180910390a45b505b836004600085815260200190815260200160002060006101000a81548173ffffffffffffffffffffffffffffffffffffffff021916908373ffffffffffffffffffffffffffffffffffffffff16021790555050505050565b6115b1838383611754565b61166557600073ffffffffffffffffffffffffffffffffffffffff168373ffffffffffffffffffffffffffffffffffffffff160361162657806040517f7e27328900000000000000000000000000000000000000000000000000000000815260040161161d9190611d9c565b60405180910390fd5b81816040517f177e802f00000000000000000000000000000000000000000000000000000000815260040161165c9291906125e7565b60405180910390fd5b505050565b60606000600161167984611815565b01905060008167ffffffffffffffff81111561169857611697611e2d565b5b6040519080825280601f01601f1916602001820160405280156116ca5781602001600182028036833780820191505090505b509050600082602001820190505b60011561172d578080600190039150507f3031323334353637383961626364656600000000000000000000000000000000600a86061a8153600a858161172157611720612610565b5b049450600085036116d8575b819350505050919050565b6117428383611968565b61174f6000848484611089565b505050565b60008073ffffffffffffffffffffffffffffffffffffffff168373ffffffffffffffffffffffffffffffffffffffff161415801561180c57508273ffffffffffffffffffffffffffffffffffffffff168473ffffffffffffffffffffffffffffffffffffffff1614806117cd57506117cc84846108d8565b5b8061180b57508273ffffffffffffffffffffffffffffffffffffffff166117f383610b5c565b73ffffffffffffffffffffffffffffffffffffffff16145b5b90509392505050565b600080600090507a184f03e93ff9f4daa797ed6e38ed64bf6a1f0100000000000000008310611873577a184f03e93ff9f4daa797ed6e38ed64bf6a1f010000000000000000838161186957611868612610565b5b0492506040810190505b6d04ee2d6d415b85acef810000000083106118b0576d04ee2d6d415b85acef810000000083816118a6576118a5612610565b5b0492506020810190505b662386f26fc1000083106118df57662386f26fc1000083816118d5576118d4612610565b5b0492506010810190505b6305f5e1008310611908576305f5e10083816118fe576118fd612610565b5b0492506008810190505b612710831061192d57612710838161192357611922612610565b5b0492506004810190505b60648310611950576064838161194657611945612610565b5b0492506002810190505b600a831061195f576001810190505b80915050919050565b600073ffffffffffffffffffffffffffffffffffffffff168273ffffffffffffffffffffffffffffffffffffffff16036119da5760006040517f64a0ae920000000000000000000000000000000000000000000000000000000081526004016119d19190611c86565b60405180910390fd5b60006119e883836000610bb3565b9050600073ffffffffffffffffffffffffffffffffffffffff168173ffffffffffffffffffffffffffffffffffffffff1614611a5c5760006040517f73c6ac6e000000000000000000000000000000000000000000000000000000008152600401611a539190611c86565b60405180910390fd5b505050565b6000604051905090565b600080fd5b600080fd5b60007fffffffff0000000000000000000000000000000000000000000000000000000082169050919050565b611aaa81611a75565b8114611ab557600080fd5b50565b600081359050611ac781611aa1565b92915050565b600060208284031215611ae357611ae2611a6b565b5b6000611af184828501611ab8565b91505092915050565b60008115159050919050565b611b0f81611afa565b82525050565b6000602082019050611b2a6000830184611b06565b92915050565b600081519050919050565b600082825260208201905092915050565b60005b83811015611b6a578082015181840152602081019050611b4f565b60008484015250505050565b6000601f19601f8301169050919050565b6000611b9282611b30565b611b9c8185611b3b565b9350611bac818560208601611b4c565b611bb581611b76565b840191505092915050565b60006020820190508181036000830152611bda8184611b87565b905092915050565b6000819050919050565b611bf581611be2565b8114611c0057600080fd5b50565b600081359050611c1281611bec565b92915050565b600060208284031215611c2e57611c2d611a6b565b5b6000611c3c84828501611c03565b91505092915050565b600073ffffffffffffffffffffffffffffffffffffffff82169050919050565b6000611c7082611c45565b9050919050565b611c8081611c65565b82525050565b6000602082019050611c9b6000830184611c77565b92915050565b611caa81611c65565b8114611cb557600080fd5b50565b600081359050611cc781611ca1565b92915050565b60008060408385031215611ce457611ce3611a6b565b5b6000611cf285828601611cb8565b9250506020611d0385828601611c03565b9150509250929050565b600080600060608486031215611d2657611d25611a6b565b5b6000611d3486828701611cb8565b9350506020611d4586828701611cb8565b9250506040611d5686828701611c03565b9150509250925092565b600060208284031215611d7657611d75611a6b565b5b6000611d8484828501611cb8565b91505092915050565b611d9681611be2565b82525050565b6000602082019050611db16000830184611d8d565b92915050565b611dc081611afa565b8114611dcb57600080fd5b50565b600081359050611ddd81611db7565b92915050565b60008060408385031215611dfa57611df9611a6b565b5b6000611e0885828601611cb8565b9250506020611e1985828601611dce565b9150509250929050565b600080fd5b600080fd5b7f4e487b7100000000000000000000000000000000000000000000000000000000600052604160045260246000fd5b611e6582611b76565b810181811067ffffffffffffffff82111715611e8457611e83611e2d565b5b80604052505050565b6000611e97611a61565b9050611ea38282611e5c565b919050565b600067ffffffffffffffff821115611ec357611ec2611e2d565b5b611ecc82611b76565b9050602081019050919050565b82818337600083830152505050565b6000611efb611ef684611ea8565b611e8d565b905082815260208101848484011115611f1757611f16611e28565b5b611f22848285611ed9565b509392505050565b600082601f830112611f3f57611f3e611e23565b5b8135611f4f848260208601611ee8565b91505092915050565b60008060008060808587031215611f7257611f71611a6b565b5b6000611f8087828801611cb8565b9450506020611f9187828801611cb8565b9350506040611fa287828801611c03565b925050606085013567ffffffffffffffff811115611fc357611fc2611a70565b5b611fcf87828801611f2a565b91505092959194509250565b600067ffffffffffffffff821115611ff657611ff5611e2d565b5b611fff82611b76565b9050602081019050919050565b600061201f61201a84611fdb565b611e8d565b90508281526020810184848401111561203b5761203a611e28565b5b612046848285611ed9565b509392505050565b600082601f83011261206357612062611e23565b5b813561207384826020860161200c565b91505092915050565b6000806040838503121561209357612092611a6b565b5b60006120a185828601611cb8565b925050602083013567ffffffffffffffff8111156120c2576120c1611a70565b5b6120ce8582860161204e565b9150509250929050565b600080604083850312156120ef576120ee611a6b565b5b60006120fd85828601611cb8565b925050602061210e85828601611cb8565b9150509250929050565b7f4e487b7100000000000000000000000000000000000000000000000000000000600052602260045260246000fd5b6000600282049050600182168061215f57607f821691505b60208210810361217257612171612118565b5b50919050565b600060608201905061218d6000830186611c77565b61219a6020830185611d8d565b6121a76040830184611c77565b949350505050565b600081905092915050565b60006121c582611b30565b6121cf81856121af565b93506121df818560208601611b4c565b80840191505092915050565b60006121f782856121ba565b915061220382846121ba565b91508190509392505050565b7f4e487b7100000000000000000000000000000000000000000000000000000000600052601160045260246000fd5b600061224982611be2565b91507fffffffffffffffffffffffffffffffffffffffffffffffffffffffffffffffff820361227b5761227a61220f565b5b600182019050919050565b600081519050919050565b600082825260208201905092915050565b60006122ad82612286565b6122b78185612291565b93506122c7818560208601611b4c565b6122d081611b76565b840191505092915050565b60006080820190506122f06000830187611c77565b6122fd6020830186611c77565b61230a6040830185611d8d565b818103606083015261231c81846122a2565b905095945050505050565b60008151905061233681611aa1565b92915050565b60006020828403121561235257612351611a6b565b5b600061236084828501612327565b91505092915050565b60008190508160005260206000209050919050565b60006020601f8301049050919050565b600082821b905092915050565b6000600883026123cb7fffffffffffffffffffffffffffffffffffffffffffffffffffffffffffffffff8261238e565b6123d5868361238e565b95508019841693508086168417925050509392505050565b6000819050919050565b600061241261240d61240884611be2565b6123ed565b611be2565b9050919050565b6000819050919050565b61242c836123f7565b61244061243882612419565b84845461239b565b825550505050565b600090565b612455612448565b612460818484612423565b505050565b5b818110156124845761247960008261244d565b600181019050612466565b5050565b601f8211156124c95761249a81612369565b6124a38461237e565b810160208510156124b2578190505b6124c66124be8561237e565b830182612465565b50505b505050565b600082821c905092915050565b60006124ec600019846008026124ce565b1980831691505092915050565b600061250583836124db565b9150826002028217905092915050565b61251e82611b30565b67ffffffffffffffff81111561253757612536611e2d565b5b6125418254612147565b61254c828285612488565b600060209050601f83116001811461257f576000841561256d578287015190505b61257785826124f9565b8655506125df565b601f19841661258d86612369565b60005b828110156125b557848901518255600182019150602085019450602081019050612590565b868310156125d257848901516125ce601f8916826124db565b8355505b6001600288020188555050505b505050505050565b60006040820190506125fc6000830185611c77565b6126096020830184611d8d565b9392505050565b7f4e487b7100000000000000000000000000000000000000000000000000000000600052601260045260246000fdfea26469706673582212201298dd16ce7b4703f306a50590f1c60c13e6b079a9a468ed774a42a0fd23f0a664736f6c63430008180033",
  "linkReferences": {},
  "deployedLinkReferences": {}
}